:020000040800F2
:1000000048CE002021020008D35600088F250008A2
:10001000D1560008C3090008D1690008000000009B
:10002000000000000000000000000000E15900088E
:100030005D0C000800000000B9590008275A0008AC
:100040003B0200083B0200083B0200083B0200089C
:100050003B0200083B0200083B0200083B0200088C
:100060003B0200083B0200083B0200083B0200087C
:100070003B0200083B0200083B0200083B0200086C
:100080003B0200083B0200083B0200083B0200085C
:100090003B0200083B0200083B0200083B0200084C
:1000A0003B0200083B0200083B0200083B0200083C
:1000B0003B020008755A00083B0200083B0200089A
:1000C0003B0200083B0200083B0200083B0200081C
:1000D0003B020008A56900083B0200083B0200083B
:1000E0003B0200083B0200083B0200083B020008FC
:1000F0003B0200083B0200083B0200083B020008EC
:100100003B0200083B0200083B0200083B020008DB
:100110003B0200083B0200083B0200083B020008CB
:100120003B0200083B0200083B0200083B020008BB
:1001300000F002F800F065F80AA090E8000C824494
:100140008344AAF10107DA4501D100F05AF8AFF271
:10015000090EBAE80F0013F0010F18BFFB1A43F0A5
:1001600001031847083E0300283E03000A444FF0ED
:10017000000C10F8013B13F0070408BF10F8014B06
:100180001D1108BF10F8015B641E05D010F8016B4B
:10019000641E01F8016BF9D113F0080F1EBF10F8AF
:1001A000014BAD1C0C1B09D16D1E58BF01F801CBD2
:1001B000FAD505E014F8016B01F8016B6D1EF9D555
:1001C0009142D6D37047000000230024002500266A
:1001D000103A28BF78C1FBD8520728BF30C148BFAA
:1001E0000B607047642900F01D81782900F056816A
:1001F000732900F01B83002070471FB51FBD10B589
:1002000010BD00F04DFB1146FFF7F7FF27F026FC6D
:1002100000F06BFB03B4FFF7F2FF03BC08F054FAE5
:100220000948804709480047FEE7FEE7FEE7FEE78A
:10023000FEE7FEE7FEE7FEE7FEE7FEE704480549C6
:10024000054A064B704700002D5A0008310100088E
:1002500048C8002048CE002048CA002048CA0020D4
:10026000704753EA020C00F069802DE9F04B4FF023
:100270000006002B1FBFB3FA83F503FA05F424FA36
:1002800005F65E4012BF1643B2FA82F502FA05F493
:10029000C5F120051EBF22FA05FC44EA0C042035F6
:1002A00056EA044C4FEA144418BF641C4FF000088F
:1002B0004FF00009904271EB030C39D3002919BFAC
:1002C000B1FA81F701FA07F6B0FA80F700FA07F6FB
:1002D000C7F120071EBF20FA07FC46EA0C062037AC
:1002E000B6FBF4FCA7EB0507103F07F01F0BCBF1A3
:1002F00020060CFA0BFB2CFA06F644BFB346002688
:10030000202FA4BF5E464FF0000B5BEA060C08BF2F
:100310004FF0010B19EB0B09ABFB027C48EB060815
:10032000C01B06FB02CC0BFB03CC71EB0C01C1E73D
:100330000B46024641464846BDE8F08B13B54FF0E8
:1003400000004FF00001AFF30080BDE81C40704793
:100350000FB4044910B503AA029800F06BFA10BC60
:100360005DF814FB180000202DE9F0410E4604460C
:10037000002020622046E168884730B3252805D058
:10038000D4E901219047206A401CF2E7E168204649
:1003900000278847050018D0A5F14100192802D888
:1003A00020354FF400673246294620462760FFF784
:1003B00019FF40B1012804D0F61D26F007060836C3
:1003C000D8E7361DD6E72846DAE7206ABDE8F0818F
:1003D00070B50C460546012A05D02878800600D560
:1003E000EA69002302E0012305E05B1C934202D28C
:1003F000E05C0028F9D1A869E618C01AA861286A4B
:10040000184428622846AFF3008004E0D5E90121B2
:1004100014F8010B9047B442F8D32846AFF300809C
:1004200070BD00002DE9F0410646002410687529D2
:10043000314616A510D0AFF30080002802DA404202
:1004400013A507E031688A0701D512A502E0490724
:1004500004D511A5012401E0AFF3008000210A2298
:1004600006F1240709E0B0FBF2FCB0FBF2F302FB5B
:100470001C00303078541846491C0028F3D123461C
:100480002A463046BDE8F04100F065B900000000A2
:100490002D0000002B0000002000000070B5044675
:1004A0000D4621461068AFF300802188090502D56A
:1004B0000F4A7A4402E00E4A7A440E32002104F1D7
:1004C000240305E000F00F060009965D5E54491C08
:1004D0000028F7D120780023000704D5702D02D022
:1004E00009B1022311322046BDE8704000F033B953
:1004F000A234030040EA0103024630B59B0710D145
:100500004FF0013400E008C208C91D1B9D4315EAE5
:10051000C41FF8D013F0FF0102F8011B0DD01B0A15
:10052000F8E711F8013B002B02F8013B05D011F868
:10053000013B002B02F8013BF3D130BD10B5431C49
:1005400002E010F8011B71B18107FAD14FF00132BE
:1005500002C88C1A8C4314EAC211F9D0C01A0A06D8
:1005600003D0C01E10BDC01A10BD0A0401D0801EE9
:1005700010BD0902FCD0401E10BD032A40F230809D
:1005800010F0030C00F0158011F8013BBCF1020FD4
:10059000624498BF11F801CB00F8013B38BF11F855
:1005A000013BA2F1040298BF00F801CB38BF00F86C
:1005B000013B11F0030300F02580083AC0F00880E9
:1005C00051F8043B083A51F804CBA0E80810F5E7CD
:1005D000121D5CBF51F8043B40F8043BAFF30080B0
:1005E000D20724BF11F8013B11F801CB48BF11F825
:1005F000012B24BF00F8013B00F801CB48BF00F8F5
:10060000012B704710B5203AC0F00B80B1E81850AC
:10061000203AA0E81850B1E81850A0E81850BFF4EC
:10062000F5AF5FEA027C24BFB1E81850A0E818508B
:1006300044BF18C918C0BDE810405FEA827C24BFDF
:1006400051F8043B40F8043B08BF7047D20728BF6D
:1006500031F8023B48BF11F8012B28BF20F8023BBC
:1006600048BF00F8012B70474FF0000200B5134659
:1006700094469646203922BFA0E80C50A0E80C50C2
:10068000B1F12001BFF4F7AF090728BFA0E80C5073
:1006900048BF0CC05DF804EB890028BF40F8042B6C
:1006A00008BF704748BF20F8022B11F0804F18BFD9
:1006B00000F8012B704700004FF0013C50F8042B6C
:1006C00051F8043B9A4221D1A2EB0C03934313EA65
:1006D000CC1317D150F8042B51F8043B9A4215D192
:1006E000A2EB0C03934313EACC130BD150F8042B69
:1006F00051F8043B9A4209D1A2EB0C03934313EA4D
:10070000CC13DBD04FF00000704700BFD01A01BA05
:10071000B1FA81F101F0180122FA01F0CB40C1F1E8
:100720002001DBB2C0B2C01A2CFA01F3D11A9143F6
:1007300011EAC311E6D170477047704770477047A0
:1007400010B500F089F8006810BD10B5044600F03F
:1007500083F8046010BD2DE9F0470D469946924696
:10076000044600F124080168880604D5E06921F0F8
:100770001001216000E00120A84201DD471B00E0DC
:100780000027A1697A1902EB0900081AA0612078F4
:10079000C00602D42046AFF30080002608E0D4E96A
:1007A00001211AF806009047206A401C761C20623E
:1007B0004E45F4DB2078C0060AD52046AFF3008012
:1007C00006E0D4E9012130209047206A401C2062D5
:1007D000381EA7F10107F4DC07E0D4E9012118F87D
:1007E00005009047206A401C2062281EA5F10105E3
:1007F000F3DC2046AFF300802078000602D502200B
:10080000BDE8F0870120FBE710B5436913B1AFF3F2
:10081000008001E0FFF7DCFD012010BD127800F13F
:1008200024010A7000224A700122EDE711684FF09E
:10083000FF32E9E7074B70B50D467B4400F015F831
:100840000446284600F024F810B14FF0FF3070BD88
:10085000204670BDB721010000487047E8C700205E
:1008600001694A1C02610878704700B58FB0CDE974
:1008700001310021059105497944CDE90310114664
:100880006846FFF771FD0FB000BD0000E5FFFFFFF8
:10089000007B00F08000704700487047E8C70020E8
:1008A0007546FFF7F9FFAE4605006946534620F04E
:1008B0000700854618B020B5FFF7C0FCBDE8204012
:1008C0004FF000064FF000074FF000084FF0000B0C
:1008D00021F00701AC46ACE8C009ACE8C009ACE8BF
:1008E000C009ACE8C0098D46704710B50446AFF3A7
:1008F00000802046BDE81040FFF78CBC01F064BECC
:1009000070B504460E46154608E02046641CA4B2A5
:1009100000F007F806F8010B6D1EADB2002DF4D102
:1009200070BD10B5044601F0F3FE200AA02101EBD2
:100930004000C0B201F0BCFE01F024FFE0B201F0C3
:10094000B7FE01F01FFF01F0E3FEA12001F0B0FEB1
:1009500001F018FF002001F075FE044601F0F4FEDE
:10096000204610BD70B506460D46144606E02978AF
:10097000304600F007F8761CB6B26D1C641EA4B2B7
:10098000F5D270BD70B504460D4601F0C1FE200AD7
:10099000A02101EB4000C0B201F08AFE01F0F2FE9E
:1009A000E0B201F085FE01F0EDFE284601F080FE88
:1009B00001F0E8FE01F0C8FEBDE870400A2009F031
:1009C00019BFFEE7052009F023BF000070B50C4CED
:1009D000002525600B48016821F0F00101600168E5
:1009E00041F030010160FFF7EDFF07480560FFF7B8
:1009F000E9FF01202060FFF7E5FF256070BD0000E2
:100A000084812142041C0140A481234210B586B098
:100A10001448816941F008018161816901F0080190
:100A20000191816941F080018161806900F080005D
:100A30000190022002900124039404940320059065
:100A400002A9094800F034FE6002029002A907489A
:100A500000F02EFE064804600648C0F8A44106B027
:100A600010BD000000100240000C0140001C0140BD
:100A7000848121420080234270B50C4C0025256002
:100A80000B48016821F0F0010160016841F030017C
:100A90000160FFF797FF074801260660FFF792FF06
:100AA0002660FFF78FFF256070BD00008481214222
:100AB000041C0140A48123422DE9F0478246002412
:100AC0001748016821F0F0010160016841F08001E0
:100AD00001601E2009F09CFE0025124EDFF84890B0
:100AE00000274FF00108C6F88471FFF76BFFC6F8C6
:100AF00084816006040ED9F8240108B1641CE4B2B4
:100B00006D1CEDB2082DEED3BAF1000F04D0FFF743
:100B10005DFF2046BDE8F087FFF7AEFFF9E7000074
:100B2000041C014000802142008023422DE9F0474F
:100B300005461348016821F0F0010160016841F0A9
:100B4000300101600F4E4FF00008C6F88481FFF7B6
:100B500039FF0024DFF830900127E809C9F8A40123
:100B60006806050EC6F88471FFF72CFFC6F884816D
:100B7000FFF728FF641CE4B2082CEED3BDE8F08731
:100B8000041C0140008021420080234270B50B48C4
:100B9000016821F0F0010160016841F0300101605D
:100BA000074D01202860074E30601E2009F030FEFE
:100BB00000242C60FFF706FF346070BD041C014068
:100BC000A48123428481214270B50B48016821F041
:100BD000F0010160016841F0300101600748012522
:100BE00005601E2009F014FE054C00202060FFF770
:100BF000E9FE256070BD0000041C01408481214293
:100C0000A481234270B500241148016821F0F0014D
:100C10000160016841F0800101600E4D0120C5F8BE
:100C2000A4010D4EC6F88401FFF7CCFE09E0641C58
:100C3000E4B2FA2C03D9FFF7C7FF012070BDFFF71C
:100C4000C1FED5F824010028F1D1C6F8840170BD99
:100C5000041C0140008023420080214270470000B4
:100C600030B5B3F5804F05D06FF0704140F82210D9
:100C7000002030BD8C690B688D6823434C688989DE
:100C8000240144EA0524234343EA014150F8223079
:100C9000024C2340194340F82210E9E70000F0CF4E
:100CA00010B50A6850F8223023F0010340F82230D2
:100CB0008B68082B23D000224C681C43CB6813435D
:100CC0000A691C4314434A6914438A691443CA6974
:100CD00014430A6A14434A6A14438A6A1443CA6A68
:100CE00014430A6B14434A6B0968144350F82120DB
:100CF000044B1A40144340F82140002010BD40220C
:100D0000DAE700008000F0FF30B5D1E9003443EAB3
:100D100004138C688D89240244EA054423430C8A19
:100D2000641E43EA04540B7D89699B1E44EA0363F5
:100D30000B43521C50F8221001F040410B4340F885
:100D40002230002030BD000070B588B04148816974
:100D500041F080018161806900F0800001904FF4D2
:100D600000600290012503950495032005903A4EFA
:100D700002A9304600F09CFCA902029100240394D1
:100D800002A9304600F094FCFFF740FE334E346079
:100D9000142009F02FFD3560322009F02BFD8DF86D
:100DA0001840012206A9002000F0DEF9012206A960
:100DB000A42000F0D9F916208DF81800012206A908
:100DC000802000F0D1F90C208DF81800012206A92E
:100DD000882000F0C9F9022206A9A12000F04EF8EF
:100DE0009DF81800302803D19DF8190003282BD056
:100DF000042206A948F2401000F06AFA8DF81C405F
:100E000006A917A0FFF7A4FA18480699C0F802101F
:100E100002208DF8180048F24005012206A9284654
:100E200000F074FB012206A9E81D00F051FA0A2027
:100E300009F0E0FC8DF81840012206A9284600F0D0
:100E400065FB08B0002070BD43F2030108A0FFF766
:100E50007FFAF6E700100240001C0140AC812342FB
:100E60004354502049443A25730D0A0024000020C1
:100E70004354502049443A25780D0A002DE9F041A9
:100E800004460D461646FFF781FE7020FFF74EFE22
:100E9000FFF7B8FEE0B2FFF749FEFFF7B3FEFFF73A
:100EA00075FE7120FFF742FEFFF7ACFE0024771EAF
:100EB00009E0BC4201D0012000E00020FFF7FCFD6A
:100EC0002855641CE4B2B442F3D3BDE8F041FFF707
:100ED0007BBE00002DE9F14783B000270197B8469B
:100EE0009C4C6078401CC0B260704FF00A0AB0FBA6
:100EF000FAF10AFB1101984E002901D00A2870D29C
:100F0000944896A1801CFFF7D7FB18B3012203A9D0
:100F10000220FFF7B3FF9DF80C00010761D000F03D
:100F20000F01207881425CD8FF228A4096F82090F9
:100F3000D14341F0C00186F82010401E06EB40006E
:100F4000B1898181F18AC182042009F053FC0197A3
:100F5000834D99E048F24E15012203A9284600F07E
:100F6000B7F99DF80C000106D5D5217800F00F00E7
:100F70008842D0D80197012201A9284600F0C6FA7C
:100F8000C9E796F8201001228240114278D07148BA
:100F900072A1801CFFF790FB20B372489DF80410EB
:100FA000042230F8110002A9FFF768FF96F830001C
:100FB000C0074DD09DF808109DF8090001F00F0101
:100FC00000EB01219DF8040006EB4000C1829DF872
:100FD0000A209DF80B1002F00F0201EB0221818123
:100FE0004EE07BE05F489DF804100A30042230F8A0
:100FF000110002A900F06CF996F83000C00712D079
:101000009DF808009DF8091000EB01219DF80400EF
:1010100006EB400081819DF80A109DF80B2001EB42
:101020000221C1822CE09DF808009DF8091000EB18
:1010300001219DF8040006EB4000C1829DF80A10D2
:101040009DF80B2001EB02212A88511A818117E0BB
:101050009DF808109DF8090001F00F0100EB012038
:101060002988091A9DF8040006EB400081819DF84B
:101070000A209DF80B1002F00F0201EB0221C18241
:101080009DF80400401C01909DF8040021788842DE
:10109000FFF477AF4FF00108B0892988884203D860
:1010A000F08A6988884218D99DF80C0000F00F007A
:1010B000012805D9F089B081308BF08267700DE08E
:1010C0002078401E06EB40008189B181C08AF08201
:1010D0008020039086F8209000E067701D481FA1D3
:1010E000801CFFF7E9FA4FF6FF7120B19DF80C0064
:1010F000C00616D024E09DF80C0000F08F00802878
:101100001ED196F82000020604D520F0800086F853
:10111000200015E0B181F18200F0E00086F82000A7
:101120000EE096F82000020604D520F0800086F834
:10113000200005E0B181F18200F0E00086F8200097
:101140006078F02801D984F801A004B04046BDE8D9
:10115000F0870000240000203400002039313100E5
:10116000C80300201AF702082DE9F04104460E4694
:1011700015460027FFF70AFD7020FFF7D7FCFFF7A1
:1011800041FDE0B2FFF7D2FCFFF73CFD002409E08F
:10119000305DFFF7CBFCFFF735FD0746380003D184
:1011A000641CE4B2AC42F3D3FFF70EFD3846BDE851
:1011B000F08100002DE9F04188B03848816941F0A4
:1011C00080018161806900F0800001904FF400602F
:1011D000029001250395049503200590304F02A944
:1011E000384600F065FA4FF48068CDF80880002496
:1011F000039402A9384600F05BFAFFF707FC294E7A
:1012000034600A2009F0F6FA35600A2009F0F2FA93
:10121000CDF8088002250495039402A9384600F011
:1012200047FA642009F0E6FA042206A948F24010C1
:1012300000F04EF88DF81C4006A91BA0FFF788F8B7
:101240001CA106A8FFF738FA18B1002008B0BDE8C5
:10125000F0818DF8185048F24005012206A9284671
:1012600000F054F9012206A9E81D00F031F89DF8BC
:101270001810602905D211A0FFF76AF8012000F0CC
:101280001DF90A2009F0B6FA8DF81840012206A9C6
:10129000284600F03BF90020D8E70000001002408B
:1012A000001C0140AC8123424354502049443A255C
:1012B000730D0A003931343700000000446566615F
:1012C000756C74205665723A25640D0A00000000A2
:1012D0002DE9F04104460D461646FFF757FC28203D
:1012E000FFF724FCFFF78EFC200AFFF71FFCFFF737
:1012F00089FCE0B2FFF71AFCFFF784FCFFF746FC1D
:101300002920FFF713FCFFF77DFC0024771E09E07E
:10131000BC4201D0012000E00020FFF7CDFB2855A2
:10132000641CE4B2B442F3D3BDE8F041FFF74CBC17
:101330002DE9F14783B00024A2465C4D2878401C7B
:10134000C0B228704FF00A09B0FBF9F109FB110196
:10135000574E002901D00A287DD248F24E180122AA
:1013600003A94046FFF7B4FF9DF80C004FF00007BB
:10137000010609D500F00F00062805D201970122C9
:1013800001A9404600F0C2F89DF80C0001076DD09D
:1013900000F00F01062969D2FF208840019096F8DD
:1013A0002080C04340F0C00086F82000B089B082A1
:1013B000F08AF0834FF0010A96F820000AFA04F14F
:1013C00008422DD03B48042202A930F81400FFF750
:1013D0007FFF96F83000C00712D09DF808009DF8F6
:1013E000091000EB012106EB4400C1829DF80A10B0
:1013F0009DF80B2001EB0221C1F5487181810FE0BE
:101400009DF808009DF8091000EB012106EB44004F
:1014100081819DF80A109DF80B2001EB0221C18209
:10142000641CE4B2052CC7D34FF0010A2249B289EB
:1014300030460B889A4203D8C28A49888A4214D916
:101440009DF80C1001F00F01012905D9C189818196
:10145000018BC1822F7009E0818A8181C18BC18299
:101460008021039180F8208000E02F709DF80C000F
:1014700000F08F00802810D196F82000010604D5D6
:1014800020F0800086F8200007E04FF6FF71B18160
:10149000F18200F0E00086F820002878F02801D9D9
:1014A00085F8009004B05046BDE8F0872B0000207E
:1014B00034000020E6F70208C803002008B5002128
:1014C00000228DF800208DF801000F489DF80020C3
:1014D000435C1A448DF80020491CC9B2B829F5D3E1
:1014E0009DF80000C043401C8DF80000B82206495A
:1014F00048F2470000F00AF80222694648F2FF006D
:1015000000F004F8002008BD2EF702082DE9F04194
:1015100004460E4615460027FFF738FB2820FFF744
:1015200005FBFFF76FFB200AFFF700FBFFF76AFBE5
:10153000E0B2FFF7FBFAFFF765FB002409E0305D3E
:10154000FFF7F4FAFFF75EFB0746380003D1641C8F
:10155000E4B2AC42F3D3FFF737FB3846BDE8F08185
:101560002DE9F05F002590F82110022903D0042115
:101570008163012595E001680A6822F00E020A6085
:1015800001680A6822F001020A60474E464FB21510
:10159000DFF814C1DFF81081DFF80C91DFF808A143
:1015A000DFF804B10168783F13011402ACF1640C58
:1015B000A8F15008A9F13C09AAF1280AABF1140BD3
:1015C0004FF4801EB1422FD9B94201D1012227E048
:1015D000614501D1102223E0414521D0494501D187
:1015E0001A461DE0514501D1224619E0594501D165
:1015F000724615E02D4EB14201D1012210E02B4E72
:101600001436B14201D110220AE0284E2836B142E8
:1016100006D0264A3C32914201D11A4600E02246C9
:101620002249091F0A6033E0B94201D101222CE0AE
:10163000614501D1102228E0414526D0494501D11C
:101640001A4622E0514501D122461EE0594501D1FA
:1016500072461AE0B14202D14FF0807215E0134E8B
:10166000B14201D1012210E0104E1436B14201D135
:1016700010220AE00D4E2836B14206D00B4A3C3209
:10168000914201D11A4600E02246074980394A605A
:10169000012180F82110002180F82010416B01B158
:1016A00088472846BDE8F09F8000024008040240B9
:1016B0002DE9F84F00240023DFF8E0914FF00F08E8
:1016C00009F1040A0AF1040B0BF1040EDFE0012713
:1016D000A7403A40BA4275D1DFF8C4C14D68A5EBC6
:1016E0000C0665452BD00DDC032D34D005DC35B35D
:1016F000012D19D0022D2FD11BE0112D16D0122D46
:101700002AD119E0B6F5881F19D006DCB6F5803F5E
:1017100015D0B6F5801F1FD111E0B6F5001F0ED011
:10172000B6F5041F18D10AE0CB6815E0CB681B1D85
:1017300012E0CB6808330FE0CB680C330CE08B6809
:1017400023B1012B04D00823476105E0042303E003
:101750000823076100E00023FF2A01D8054601E0C5
:1017600000F1040502D84FEA840603E0A4F108065C
:101770004FEA86062F6808FA06FC27EA0C0703FAE8
:1017800006F647EA06072F604D68ED007ED5454D09
:10179000AE6946F00106AE61AD6905F00105009540
:1017A000414D24F003067719BE68A5072D0F08FAEE
:1017B00005FC26EA0C06DFF8F4C0604503D14FF0C3
:1017C000000C25E062E0DFF8E8C0604502D14FF090
:1017D000010C1DE0DFF8DCC0604502D14FF0020CC7
:1017E00016E0DFF8D4C0604502D14FF0030C0FE0E3
:1017F000DFF8C8C0604502D14FF0040C08E0DFF804
:10180000C0C0604502D14FF0050C01E04FF0060C5E
:101810000CFA05FC4CEA060CC7F808C04D68ED034D
:1018200005D5D9F800501543C9F8005004E0D9F89F
:1018300000509543C9F800504D68AD0305D5DAF85E
:1018400000501543CAF8005004E0DAF80050954300
:10185000CAF800504D68ED0205D5DBF8005015437D
:10186000CBF8005004E0DBF800509543CBF8005073
:101870004D68AD0205D5DEF800501543CEF8005096
:1018800004E0DEF800509543CEF80050641C0A686E
:1018900032FA04F57FF41BAFBDE8F88F0004014075
:1018A000000011100010024000000140000801403B
:1018B000000C0140001001400014014000180140DC
:1018C000001C0140002A01D0016170470904016138
:1018D0007047000001488068704700000400002045
:1018E000024881680278114481607047040000203A
:1018F00010B50748016841F010010160052000F0B3
:1019000059F80F2000F006F800F026F8002010BD6E
:101910000020024070B504460D4D4FF47A712878CE
:10192000B1FBF0F00B490968B1FBF0F000F0A6FB49
:1019300008B1012070BD102C07D200222146501E94
:1019400000F018F86C60002070BD012070BD000030
:1019500004000020000000207047002809DB00F090
:101960001F02012191404009800000F1E020C0F8F1
:1019700000117047F0B40D460D4B1B68C3F30223F2
:10198000C3F10704042C00D90424191D072901D22E
:10199000002300E0DB1E012606FA04F1491E29405F
:1019A00099409E40761E16403143F0BC05F011B8B8
:1019B0000CED00E000F00701054A10684FF6FF0348
:1019C000184040EA012003490843106070470000B6
:1019D0000CED00E00000FA052DE9F04704460D4645
:1019E000002C17D0DFF83081D8F8000000F0070095
:1019F000A84211D2D8F8000020F007002843C8F808
:101A00000000D8F8000000F00700A84204D0012030
:101A1000BDE8F0870120FBE72068404E810712D522
:101A2000400703D5706840F4E060706020780007DC
:101A300003D5706840F4605070607068A16820F051
:101A4000F000084370602078C0072CD0606801283F
:101A500006D0022809D0316889070BD40120D7E7C6
:101A60003168890306D40120D2E73168890101D4A5
:101A70000120CDE7716821F0030101437160FFF798
:101A800029FF074641F2883906E0FFF723FFC01B14
:101A9000484501D90320BBE77068616800F00C007D
:101AA000B0EB810FF1D1D8F8000000F00700A84298
:101AB0000ED9D8F8000020F007002843C8F800002D
:101AC000D8F8000000F00700A84201D001209FE7ED
:101AD0002078400705D57068E16820F4E06008438D
:101AE00070602078000706D57068216920F4605086
:101AF00040EAC100706000F03FF87168084AC1F325
:101B00000311515CC8400749086007480068FFF7A7
:101B100001FF00207CE7000000200240001002408E
:101B200042DF020800000020080000200148006891
:101B3000704700000000002000B5FFF7F7FF0449E0
:101B40004968044AC1F30221515CC84000BD00004D
:101B50000010024052DF020800B5FFF7E7FF04491A
:101B60004968044AC1F3C221515CC84000BD00006D
:101B70000010024052DF020885B014A090E80E0069
:101B8000C068CDE902230191049014A00068009080
:101B9000134B5968134801F00C02042A10D0082A8C
:101BA0000ED101A8C1F38342805CC9030AD55968EC
:101BB000C1F340411DF801100A4A5043B0FBF1F057
:101BC00005B0704708494843FAE7000002030405DE
:101BD000060708090A0B0C0D0E0F10100102000079
:101BE0000010024000127A0000093D002DE9F84F74
:101BF0000446002C0ED02078D94DC0075ED068680E
:101C0000C0F3810001280BD06868C0F3810002286E
:101C100003D00CE00120BDE8F88F6868C00306D54A
:101C2000286880034AD56068A8BB0120F3E7606894
:101C3000B0F5803F11D0A8B1B0F5A02F1BD0286817
:101C400020F480302860286820F4802028606068B4
:101C500030B3FFF73FFE06461EE0286840F48030B0
:101C60002860F4E7286820F480302860286820F491
:101C700080202860EBE7286840F4802028602868EE
:101C800040F480302860E2E7FFF724FE801B6428E0
:101C900002D90320BFE711E028688003F4D50DE0E6
:101CA000FFF718FE064606E0FFF714FE801B6428C7
:101CB00001D90320AFE728688003F5D42078DFF846
:101CC000A48280074FF0010A4FF0000945D56868EB
:101CD00010F00C0F07D06868C0F38100022812D101
:101CE0006868C0030FD42868800704D520690128DC
:101CF00001D001208FE72868616920F0F80040EAF0
:101D0000C100286029E02069B8B1C8F800A0FFF739
:101D1000E1FD064606E0FFF7DDFD801B022801D944
:101D2000032078E728688007F5D52868616920F0E6
:101D3000F80040EAC10028600FE0C8F80090FFF703
:101D4000C9FD064606E0FFF7C5FD801B022801D944
:101D5000032060E728688007F5D42078000726D59F
:101D60008148A16999B1C0F800A0FFF7B3FD06460C
:101D700006E0FFF7AFFD801B022801D903204AE7E8
:101D8000686A8007F5D5012003F018FE0FE0C0F85F
:101D90000090FFF79FFD064606E0FFF79BFD801BC6
:101DA000022801D9032036E7686A8007F5D4207835
:101DB000400773D50026E869C00008D4E86940F000
:101DC0008050E861E86900F0805000900126DFF85B
:101DD0009CB1DBF80000C00514D4DBF8000040F42F
:101DE0008070CBF80000FFF775FD074606E0FFF7AF
:101DF00071FDC01B642801D903200CE7DBF800004B
:101E0000C005F4D5E068012812D0B0B105281DD076
:101E1000286A20F001002862286A20F00400286265
:101E2000E06841F2883B28B3FFF754FD07461DE008
:101E3000286A40F001002862F2E7286A20F00100D9
:101E40002862286A20F004002862E9E7286A40F046
:101E500004002862286A40F001002862E0E7FFF7EA
:101E600039FDC01B584501D90320D4E6286A8007F4
:101E7000F5D50DE0FFF72EFD074606E0FFF72AFD3A
:101E8000C01B584501D90320C5E6286A8007F5D450
:101E9000012E03D1E86920F08050E861E069A0B329
:101EA0006968C1F38101022946D0022805D0C8F82B
:101EB0006090FFF70FFD04463AE0C8F86090FFF726
:101EC00009FD064606E0FFF705FD801B022801D943
:101ED0000320A0E628688001F5D4206AB0F5803F91
:101EE00005D16868A16820F4003008436860D4E92F
:101EF00008010843696821F4741108436860C8F850
:101F000060A0FFF7E7FC044607E026E0FFF7E2FCED
:101F1000001B022801D903207DE628688001F5D541
:101F20001BE0FFF7D7FC001B022801D9032072E653
:101F300028688001F5D410E001280CD06868226A76
:101F400000F48031914204D1616A00F4701088423B
:101F500003D001205FE601205DE600205BE6000083
:101F600000100240000042428004424200700040E3
:101F700070B504460E461546002C03D094F8410077
:101F800010B107E0012070BD002084F84000204619
:101F900000F01EF804F108012068FEF781FE3146CA
:101FA000A2682068FEF7B0FED4E901022946236B3F
:101FB000FEF756FEA168206850F8212042F0010289
:101FC00040F82120012084F84100002070BD00006D
:101FD00000B585B01E48416941F480714161416995
:101FE00001F480710091816941F020018161816972
:101FF00001F020010091816941F040018161816916
:1020000001F040010091816941F480718161806932
:1020100000F4807000904CF2337001900220029026
:10202000012003900320049001A90A48FFF740FB18
:102030004FF68070019001A90748FFF739FB41F284
:102040000100019001A90548FFF732FB05B000BD72
:10205000001002400014014000180140002001401F
:102060004FF0E021042804D0086920F00400086142
:102070007047086940F004000861704710B5401EC1
:10208000B0F1807F01D3012010BD4FF0E0246061EA
:102090000F21601704F09DFC0020A0610720206143
:1020A000002010BD7047704710B50446002C03D0C7
:1020B00094F83D0010B107E0012010BD002084F825
:1020C0003C00204600F00CF8022084F83D00211D61
:1020D000206803F0EBFC012084F83D00002010BDD7
:1020E00008B500680B49884212D10B48C16941F01C
:1020F0000201C161C06900F00200009003220121C9
:102100001D20FFF737FCBDE808401D20FFF725BC68
:1021100008BD000000040040001002400168CA68C9
:1021200042F00102CA600068816801F007010629D7
:1021300003D0016841F00101016000207047704741
:1021400070B50446206801694FF00005C94389074E
:1021500016D4C168C943890712D4E91E0161012060
:10216000207720688069800703D02046FFF7E7FFCB
:1021700005E0204600F09BF8204600F099F825770E
:1021800020680169C943490718D4C168C943490790
:1021900014D46FF004010161022020772068806967
:1021A00010F4407F03D02046FFF7C9FF05E020462A
:1021B00000F07DF8204600F07BF825772068016963
:1021C000C943090717D4C168C943090713D46FF07D
:1021D00008010161042020772068C069800703D0CE
:1021E0002046FFF7ACFF05E0204600F060F82046EF
:1021F00000F05EF8257720680169C943C90618D444
:10220000C168C943C90614D46FF0100101610820E8
:1022100020772068C06910F4407F03D02046FFF784
:102220008EFF05E0204600F042F8204600F040F81E
:10223000257720680169C943C90708D1C168C94326
:10224000C90704D1891E0161204600F033F82068D7
:102250000169C943090609D4C168C943090605D4FF
:102260006FF0800101612046FFF71CFF20680169C3
:10227000C943490609D4C168C943490605D46FF06A
:1022800040010161204600F01FF820680169C94340
:1022900089060BD4C168C943890607D46FF02001B1
:1022A00001612046BDE87040FFF7FDBE70BD70477C
:1022B000704700000349884202D1012024F058BD34
:1022C00070470000D803002070477047014611F89E
:1022D000390F49780843704770B504462268106882
:1022E000D168526900F00F03002B08D1850606D58E
:1022F0008D0604D52046BDE8704004F046BA002B98
:102300005ED002F0010301F490752B4358D0C3074F
:1023100005D0CB0503D5E36B43F00103E36343072B
:1023200005D5D30703D0E36B43F00203E3638307D0
:1023300005D5D30703D0E36B43F00403E36303073E
:1023400005D5D20703D0E26B42F00802E263E26BEC
:10235000002A2AD0800604D5880602D5204604F03B
:1023600014FA20684069C0F38010E16B090700D4BB
:1023700000B3204604F0EEF920684169490615D5FE
:10238000416921F040014161606B58B115494163D9
:10239000606BFFF7E5F8002807D0606B416BBDE884
:1023A000704008472046FFF790FF70BD2046FFF7BA
:1023B0008CFF70BD2046FFF788FF0020E06370BDF2
:1023C000020606D50A0604D52046BDE8704004F092
:1023D000B5BA4006F3D54806F1D52046BDE87040B1
:1023E00004F0C6B94567000870B50446002C04D057
:1023F00094F83900002510B106E0012070BD84F882
:102400003850204600F022F8242084F83900206853
:10241000C16821F40051C160204604F005FA20682B
:10242000016921F4904101612068416921F02A018C
:1024300041612068C16841F40051C160E56320201A
:1024400084F8390084F83A00002070BD10B586B0D9
:1024500000681E49884236D11D48816941F0040157
:102460008161816901F004010191816941F4804138
:102470008161816901F480410191816941F001012B
:102480008161806900F0010001904FF400700290BA
:102490000220039001200490032005900D4C02A916
:1024A0002046FFF705F9211502910021039102A9A9
:1024B0002046FFF7FDF82520FFF74FFA03221146CB
:1024C0002520FFF757FA06B010BD00000038014084
:1024D000001002400008014090F83A30202B01D053
:1024E00002207047F9B1F2B190F83830012B1CD0BE
:1024F00081628285C2850021C163222280F83A2050
:1025000080F838100168CA6842F48072CA600168B5
:102510004A6942F001024A610068C16841F0200145
:10252000C160002070470120704702207047000002
:1025300030B50068124988420CD1124A5088010413
:1025400008D41146440409784FF0000307D50A293E
:1025500001D0538030BD40F40040508030BD0D2983
:102560000AD0094DC0F30D042955401C80B250809B
:10257000C728F3D9538030BD40F48040508030BD2F
:102580000038014014000020780200207047FEE768
:1025900070B50B4C002525600A48016821F0704198
:1025A0000160016841F0405101606560022008F05F
:1025B0002FF901202060022008F02AF9256070BD63
:1025C00098812142000C014010B586B00C48816909
:1025D00041F008018161806900F008000190C0208D
:1025E00002900124039404940320059002A9054855
:1025F000FFF75EF804484460046006B010BD0000B8
:1026000000100240000C01409881214270B50B4C33
:10261000002525600A48016821F0704101600168C9
:1026200041F04051016001266660022008F0F0F898
:102630002660022008F0ECF8256070BD98812142E8
:10264000000C01402DE9F04781460024164801683E
:1026500021F070410160016841F0004101600025F6
:10266000124E00274FF00108C6F89871022008F0BA
:10267000CFF8C6F898816006040ED6F81C0108B1A0
:10268000641CE4B2012008F0C3F86D1CEDB2082D03
:10269000EAD3B9F1000F04D0FFF77AFF2046BDE876
:1026A000F087FFF7B3FFF9E7000C014000802142FB
:1026B0002DE9F04105461448016821F070410160A0
:1026C000016841F040510160104E4FF00008C6F81B
:1026D000988100240127E809C6F89C016806050EC8
:1026E000022008F095F8C6F89871022008F090F8DA
:1026F000C6F89881022008F08BF8641CE4B2082C1C
:10270000E9D3BDE8F0810000000C014000802142C7
:1027100070B50B48016821F070410160016841F01B
:1027200040510160074C012060602060042008F0E7
:102730006FF800256560042008F06AF8256070BD18
:10274000000C01409881214210B50C48016821F02D
:1027500070410160016841F040510160084C002067
:1027600020606060042008F053F801202060606061
:10277000BDE81040042008F04BB80000000C0140F8
:102780009881214270B500241248016821F07041FF
:102790000160016841F0004101600F4D0126C5F85C
:1027A0009C61012008F034F8C5F89861012008F018
:1027B0002FF807E0641CE4B2FA2C03D9FFF7C4FF3A
:1027C000012070BDD5F81C010028F3D1C5F898018F
:1027D00070BD0000000C01400080214270B586B041
:1027E0001348816941F004018161816901F00401AC
:1027F0000191816941F040018161806900F04000F0
:1028000001900124029400260396022004900325DF
:10281000059502A90748FEF74BFF18200290039682
:102820000494059502A90448FEF742FF06B070BD66
:1028300000100240000801400018014070B5054634
:102840000024084908884E8846430021084602F0C3
:1028500081FD02F0F3FE044901E00D80641CB442E6
:10286000FBD370BDC80300200008006C2DE9F047C1
:102870008246DDF820800E46A2EB0A00401C85B29D
:10288000981B401C87B20024DFF8349014E0301904
:1028900081B2504602F05EFD02F0D0FE002207E059
:1028A00004FB052038F81000A9F80000521C92B271
:1028B000AA42F5D3641CA4B2BC42E8D3BDE8F087B9
:1028C0000008006C2DE9F04F304B987119462C2709
:1028D0002B252A2689884FF430584FF428594FF475
:1028E000487441F6631A4FF0F00B45F2105E4FF456
:1028F000A07C4FF4F07200280ED0A3F800C0A3F81B
:1029000002B071452BD1A3F80880A3F80A902802E1
:1029100098811C805A802DE0A3F800B0A3F802C073
:10292000714509D1A3F80880A3F80A904FF42C5000
:1029300098811A805C800AE0514505D11F815D8134
:102940009E811A805C8002E01F815E819D81A1F5DD
:10295000A640103815D1A3F800C05A8011E05145A7
:1029600005D11F815E819D811C805A8002E01F81FC
:102970005E819D81A1F5A640103802D11A80A3F88E
:1029800002C0BDE8F04F002002F00CBCC8030020DC
:102990002DE9FE4F00250026171AA3EB01088146FA
:1029A0008A46681E002F03DD4FF00101019107E008
:1029B00003D14FF00001019102E00190C7F100073F
:1029C000B8F1000F03DD4FF00100009007E003D1E4
:1029D0004FF00000009002E00090C8F10008474569
:1029E00001DD3C4600E044464FF0000B601C0290C5
:1029F00015E01FFA8AF11FFA89F000F015F83D443E
:102A00004644A54202DD2D1B01988144A64202DD09
:102A1000361B009882440BF1010B1FFA8BFB0298C6
:102A20008345E6DDBDE8FE8F00B502F093FC02F0C1
:102A300005FE024802490088088000BD1C000020F5
:102A40000008006C2DE9FC4F074688460024154617
:102A50000320A0EB42064BE0A8EB050081B207EB98
:102A6000040A01901FFA8AF0FFF7DEFFA8EB0400CA
:102A700081B207EB050900901FFA89F0FFF7D4FF38
:102A800008EB040B1FFA8BF11FFA89F0FFF7CCFF5C
:102A900008EB05091FFA89F11FFA8AF0FFF7C4FF56
:102AA0001FFA89F1A7EB04091FFA89F0FFF7BCFFB1
:102AB000A7EB050A1FFA8BF11FFA8AF0FFF7B4FFA4
:102AC000019881B21FFA89F0FFF7AEFF009881B23A
:102AD0001FFA8AF0FFF7A8FF641C002E03DA06EB4A
:102AE0008406B61D04E0601B06EB80060A366D1EE8
:102AF000AC42B1DDBDE8FC8F2DE9F04104460D4646
:102B0000344E2F0A3046B1884089A1F5AA434FEAD6
:102B10001428103B1BD0A1F5C853633B33D002F0FF
:102B200081FD404602F072FDE0B202F06FFDB08917
:102B300002F078FD384602F069FDE8B202F066FD69
:102B4000254930890880881C0280BDE8F08102F0A8
:102B500069FD404602F05AFD7089401C80B202F0C7
:102B600061FDE0B202F052FDB08902F05BFD384633
:102B700002F04CFDB089401C80B202F053FDE8B277
:102B800002F044FDDCE7B17919B93188091B491E0F
:102B90008CB202F047FD4FEA1428404602F036FDA1
:102BA000E0B202F033FD404602F030FDE0B202F048
:102BB0002DFDB08902F036FD384602F027FDE8B25F
:102BC00002F024FD384602F021FDE8B202F01EFDBD
:102BD000B6E70000C8030020FE07006C2DE9F04FA7
:102BE00093B0FE48816941F008018161806900F07D
:102BF0000800009001200F90109011900320129077
:102C00000FA9F748FEF754FDF6484FF02041016048
:102C1000F5494160062282600021C16001611023F4
:102C200043618161C16141621B028362C1629B0099
:102C3000036341638163089209911A200A900E91FF
:102C400004910320019002910392079101AA08A91F
:102C5000E448FFF78DF9322007F0CCFDD32002F0D5
:102C6000E1FC02F06FFADF4C4834A08002F06AFA0F
:102C70002146888002F066FA4FF6FF76214606EA82
:102C80000020888002F05EFA2146898808432146A8
:102C90008880A0F5134147F2897545F2103745F257
:102CA000105841F663194FF4704A4FF2010B413945
:102CB00074D0042002F0B6FC02F044FAA08002F0C6
:102CC00041FAA08002F03EFA06EA0020A08002F05D
:102CD00039FAA1880843A080A0F50541523900D1F6
:102CE000A580A088A84259D0D42002F09BFC02F015
:102CF00029FAA08002F026FAA08002F023FA06EA60
:102D00000020A08002F01EFAA1880843A080B842EB
:102D100044D05521504602F09BFCAA21584602F0AF
:102D200097FC52214FF2020002F092FC08214FF270
:102D3000030002F08DFC01214FF2040002F088FC38
:102D40004FF4454002F06EFC02F0FCF906EA002068
:102D5000A0804CF2015002F065FC02F0F3F9A1886A
:102D60000843A080322007F045FDA088404515D0DB
:102D7000A12002F057FC02F0E5F9A08002F0E2F990
:102D800006EA0020A08002F0DDF9A1880843A080B7
:102D9000A0F5AE41613901D1A4F80490A18893A0B7
:102DA000FDF7D6FAA088A0F5134141397ED0A8429C
:102DB0007DD1112002F036FC782007F01BFD362073
:102DC00002F030FC002002F021FC3A2002F02AFC44
:102DD000052002F01BFCB22002F024FC0C2002F0C3
:102DE00015FC0C2002F012FC002002F00FFC332036
:102DF00002F00CFC332002F009FCB72002F012FCB8
:102E0000352002F003FCBB2002F00CFC322002F063
:102E1000FDFBC02002F006FC0C2002F0F7FBC220F4
:102E200002F000FC012002F0F1FBC32002F0FAFBEB
:102E3000102002F0EBFBC42002F0F4FB202002F093
:102E4000E5FBC62002F0EEFB0F2002F0DFFBD020F6
:102E500002F0E8FBA42002F0D9FBA12002F0D6FB8F
:102E6000E02002F0DFFBD02002F0D0FB002002F0D7
:102E7000CDFB022002F0CAFB072002F0C7FB0A20AC
:102E800002F0C4FB282002F0C1FB322002F0BEFB9E
:102E9000442002F0BBFB422002F0B8FB062002F007
:102EA000B5FB0E2002F0B2FB122001E058E07DE1FC
:102EB00002F0ACFB142002F0A9FB172002F0A6FBE5
:102EC000E12002F0AFFBD02002F0A0FB002002F0D6
:102ED0009DFB022002F09AFB072002F097FB0A20DC
:102EE00002F094FB282002F091FB312002F08EFBCF
:102EF000542002F08BFB472002F088FB0E2002F0EA
:102F000085FB1C2002F082FB172002F07FFB1B20B8
:102F100002F07CFB1E2002F079FB2A2002F082FBEB
:102F2000002002F073FB002002F070FB002002F092
:102F30006DFBEF2002F06AFB2B2002F073FB0020F8
:102F400002F064FB002002F061FB012002F05EFB56
:102F50003F2002F05BFB292002F064FB02F0DCB8AA
:102F6000CF2002F05FFB002002F050FBC12002F0F6
:102F70004DFB302002F04AFBED2002F053FB6420B1
:102F800002F044FB032002F041FB122002F03EFB62
:102F9000812002F03BFBE82002F044FB852002F098
:102FA00035FB102002F032FB7A2002F02FFBCB2001
:102FB00002F038FB392002F029FB2C2002F026FB1E
:102FC000002002F023FB342002F020FB022002F05C
:102FD0001DFBF72002F026FB20200FE0001002402E
:102FE000000C014080030020040100A0204C434459
:102FF0002049443A25780D0A0000000002F006FB43
:10300000EA2002F00FFB002002F000FB002002F09B
:10301000FDFAC02002F006FB1B2002F0F7FAC120E7
:1030200002F000FB012002F0F1FAC52002F0FAFAEA
:10303000302002F0EBFA302002F0E8FAC72002F06C
:10304000F1FAB72002F0E2FA362002F0EBFA48205B
:1030500002F0DCFA3A2002F0E5FA552002F0D6FA46
:10306000B12002F0DFFA002002F0D0FA1A2002F0BC
:10307000CDFAB62002F0D6FA0A2002F0C7FAA22052
:1030800002F0C4FAF22002F0CDFA002002F0BEFAFB
:10309000262002F0C7FA012002F0B8FAE02002F080
:1030A000C1FA0F2002F0B2FA2A2002F0AFFA28206B
:1030B00002F0ACFA082002F0A9FA0E2002F0A6FAFB
:1030C000082002F0A3FA542002F0A0FAA92002F08E
:1030D0009DFA432002F09AFA0A2002F097FA0F2094
:1030E00002F094FA002002F091FA002002F08EFA29
:1030F000002002F08BFA002002F088FAE12002F0B2
:1031000091FA002002F082FA152002F07FFA1720CF
:1031100002F07CFA072002F079FA112002F076FA28
:10312000062002F073FA2B2002F070FA562002F00B
:103130006DFA3C2002F06AFA052002F067FA1020CE
:1031400002F064FA0F2002F061FA3F2002F05EFA0A
:103150003F2002F05BFA0F2002F058FA2B2002F019
:1031600061FA002002F052FA002002F04FFA01202A
:1031700002F04CFA3F2002F049FA2A2002F052FAFB
:10318000002002F043FA002002F040FA002002F092
:103190003DFAEF2002F03AFA112002F043FA7820CB
:1031A00007F028FB292002F03DFAD7E6B8427CD18F
:1031B000ED2002F037FA012002F028FAFE2002F09A
:1031C00025FAEE2002F02EFADE2002F01FFA21206E
:1031D00002F01CFAF12002F025FA012002F016FAA2
:1031E000DF2002F01FFA102002F010FAC42002F0D3
:1031F00019FA8F2002F00AFAC62002F013FA002012
:1032000002F004FAE22002F001FAE22002F0FEF9F4
:10321000E22002F0FBF9BF2002F004FAAA2002F03B
:10322000F5F9B02002F0FEF90D2002F0EFF90020D0
:1032300002F0ECF90D2002F0E9F9002002F0E6F9C5
:10324000112002F0E3F9002002F0E0F9192002F069
:10325000DDF9002002F0DAF9212002F0D7F9002090
:1032600002F0D4F92D2002F0D1F9002002F0CEF9BD
:103270003D2002F0CBF9002002F0C8F95D2002F0F9
:10328000C5F9002002F0C2F95D2002F0BFF900206C
:1032900002F0BCF9B12002F0C5F9802002F0B6F9C5
:1032A000002002F0B3F98B2000E0FCE302F0AEF95D
:1032B000002002F0ABF9962002F0A8F9002002F0FD
:1032C000A5F9B22002F0AEF9002002F09FF900202B
:1032D00002F09CF9022002F099F9002002F096F920
:1032E000032002F093F9002002F090F9B32002F0DD
:1032F00099F9002002F08AF9002002F087F90020F5
:1033000002F084F9002002F081F9002002F07EF939
:10331000002002F07BF9002002F078F9002002F092
:1033200075F9002002F072F9002002F06FF9002018
:1033300002F06CF9002002F069F9002002F066F951
:10334000002002F063F9002002F060F9002002F092
:103350005DF9002002F05AF9002002F057F9002030
:1033600002F054F9002002F051F9002002F04EF969
:10337000002002F04BF9002002F048F9002002F092
:1033800045F9B42002F04EF98B2002F03FF90020FD
:1033900002F03CF9962002F039F9002002F036F9EB
:1033A000A12002F033F9002002F030F9B52002F03C
:1033B00039F9022002F02AF9002002F027F903204F
:1033C00002F024F9002002F021F9042002F01EF995
:1033D000002002F01BF9B62002F024F9002002F0D0
:1033E00015F9002002F012F9B72002F01BF90020B5
:1033F00002F00CF9002002F009F93F2002F006F972
:10340000002002F003F95E2002F000F9002002F033
:10341000FDF8642002F0FAF8002002F0F7F88C20A2
:1034200002F0F4F8002002F0F1F8AC2002F0EEF81F
:10343000002002F0EBF8DC2002F0E8F8002002F0B7
:10344000E5F8702002F0E2F8002002F0DFF89020AA
:1034500002F0DCF8002002F0D9F8EB2002F0D6F8F8
:10346000002002F0D3F8DC2002F0D0F8002002F0B7
:10347000CDF8B82002F0D6F8002002F0C7F80020FE
:1034800002F0C4F8002002F0C1F8002002F0BEF8FB
:10349000002002F0BBF8002002F0B8F8002002F093
:1034A000B5F8002002F0B2F8BA2002F0BBF82420F0
:1034B00002F0ACF8002002F0A9F8002002F0A6F813
:1034C000002002F0A3F8C12002F0ACF8202002F0A6
:1034D0009DF8002002F09AF8542002F097F800209E
:1034E00002F094F8FF2002F091F8002002F08EF82C
:1034F000C22002F097F80A2002F088F8002002F0BB
:1035000085F8042002F082F8002002F07FF8C32042
:1035100002F088F83C2002F079F8002002F076F8FA
:103520003A2002F073F8002002F070F8392002F01F
:103530006DF8002002F06AF8372002F067F80020EA
:1035400002F064F83C2002F061F8002002F05EF81E
:10355000362002F05BF8002002F058F8322002F02A
:1035600055F8002002F052F82F2002F04FF800200A
:1035700002F04CF82C2002F049F8002002F046F846
:10358000292002F043F8002002F040F8262002F043
:103590003DF8002002F03AF8242002F037F800202D
:1035A00002F034F8242002F031F8002002F02EF866
:1035B000232002F02BF8002002F028F83C2002F033
:1035C00025F8002002F022F8362002F01FF8002033
:1035D00002F01CF8322002F019F8002002F016F870
:1035E0002F2002F013F8002002F010F82C2002F037
:1035F0000DF8002002F00AF8292002F007F8002058
:1036000002F004F8262002F001F8002001F0FEFF8D
:10361000242001F0FBFF002001F0F8FF242001F03E
:10362000F5FF002001F0F2FF232001F0EFFF002062
:1036300001F0ECFFC42001F0F5FF622001F0E6FF8D
:10364000002001F0E3FF052001F0E0FF002001F081
:10365000DDFF842001F0DAFF002001F0D7FFF02029
:1036600001F0D4FF002001F0D1FF182001F0CEFFBF
:10367000002001F0CBFFA42001F0C8FF002001F0E2
:10368000C5FF182001F0C2FF002001F0BFFF50204D
:1036900001F0BCFF002001F0B9FF0C2001F0B6FFE3
:1036A000002001F0B3FF172001F0B0FF002001F06F
:1036B000ADFF952001F0AAFF002001F0A7FFF32045
:1036C00001F0A4FF002001F0A1FFE62001F09EFF21
:1036D000002001F09BFFC52001F0A4FF322001F083
:1036E00095FF002001F092FF442001F08FFF0020A1
:1036F00001F08CFF652001F089FF002001F086FFBA
:10370000762001F083FF002001F080FF882001F087
:103710007DFF002001F07AFFC62001F083FF20200A
:1037200001F074FF002001F071FF172001F06EFF1F
:10373000002001F06BFF012001F068FF002001F084
:1037400065FFC72001F06EFF002001F05FFF002041
:1037500001F05CFF002001F059FF002001F056FF4E
:10376000C82001F05FFF002001F050FF002001F0B1
:103770004DFF002001F04AFF002001F047FFC92063
:1037800001F050FF002001F041FF002001F03EFF5A
:10379000002001F03BFF002001F038FF002001F085
:1037A00035FF002001F032FF002001F02FFF002044
:1037B00001F02CFF002001F029FF002001F026FF7E
:1037C000002001F023FF002001F020FF002001F085
:1037D0001DFF002001F01AFF002001F017FF00205C
:1037E00001F014FFE02001F01DFF162001F00EFF94
:1037F000002001F00BFF1C2001F008FF002001F069
:1038000005FF212001F002FF002001F0FFFE36201D
:1038100001F0FCFE002001F0F9FE462001F0F6FE6A
:10382000002001F0F3FE522001F0F0FE002001F034
:10383000EDFE642001F0EAFE002001F0E7FE7A20B0
:1038400001F0E4FE002001F0E1FE8B2001F0DEFE3D
:10385000002001F0DBFE992001F0D8FE002001F0ED
:10386000D5FEA82001F0D2FE002001F0CFFEB92045
:1038700001F0CCFE002001F0C9FEC42001F0C6FE1C
:10388000002001F0C3FECA2001F0C0FE002001F0BC
:10389000BDFED22001F0BAFE002001F0B7FED92013
:1038A00001F0B4FE002001F0B1FEE02001F0AEFE18
:1038B000002001F0ABFEF32001F0A8FE002001F093
:1038C000A5FEE12001F0AEFE162001F09FFE0020D3
:1038D00001F09CFE1C2001F099FE002001F096FEF4
:1038E000222001F093FE002001F090FE362001F02E
:1038F0008DFE002001F08AFE452001F087FE0020A9
:1039000001F084FE522001F081FE002001F07EFED5
:10391000642001F07BFE002001F078FE7A2001F0A7
:1039200075FE002001F072FE8B2001F06FFE00207A
:1039300001F06CFE992001F069FE002001F066FEA6
:10394000A82001F063FE002001F060FEB92001F024
:103950005DFE002001F05AFEC42001F057FE002059
:1039600001F054FECA2001F051FE002001F04EFE8D
:10397000D22001F04BFE002001F048FED82001F0DB
:1039800045FE002001F042FEE02001F03FFE002055
:1039900001F03CFEF32001F039FE002001F036FE7C
:1039A000E22001F03FFE052001F030FE002001F092
:1039B0002DFE0B2001F02AFE002001F027FE1B2027
:1039C00001F024FE002001F021FE342001F01EFE53
:1039D000002001F01BFE442001F018FE002001F041
:1039E00015FE4F2001F012FE002001F00FFE6120B5
:1039F00001F00CFE002001F009FE792001F006FE26
:103A0000002001F003FE882001F000FE002001F0FC
:103A1000FDFD972001F0FAFD002001F0F7FDA62042
:103A200001F0F4FD002001F0F1FDB72001F0EEFD02
:103A3000002001F0EBFDC22001F0E8FD002001F0C4
:103A4000E5FDC72001F0E2FD002001F0DFFDD120FF
:103A500001F0DCFD002001F0D9FDD62001F0D6FDFB
:103A6000002001F0D3FDDD2001F0D0FD002001F0A9
:103A7000CDFDF32001F0CAFD002001F0C7FDE320D9
:103A800001F0D0FD052001F0C1FD002001F0BEFDD8
:103A90000A2001F0BBFD002001F0B8FD1C2001F060
:103AA000B5FD002000E0FFE201F0B0FD332001F0A1
:103AB000ADFD002001F0AAFD442001F0A7FD00208B
:103AC00001F0A4FD502001F0A1FD002001F09EFDB9
:103AD000622001F09BFD002001F098FD782001F0AC
:103AE00095FD002001F092FD882001F08FFD00205F
:103AF00001F08CFD972001F089FD002001F086FD8A
:103B0000A62001F083FD002001F080FDB72001F028
:103B10007DFD002001F07AFDC22001F077FD00203C
:103B200001F074FDC72001F071FD002001F06EFD71
:103B3000D12001F06BFD002001F068FDD52001F0DF
:103B400065FD002001F062FDDD2001F05FFD002039
:103B500001F05CFDF32001F059FD002001F056FD5D
:103B6000E42001F05FFD012001F050FD002001F094
:103B70004DFD012001F04AFD002001F047FD02202B
:103B800001F044FD002001F041FD2A2001F03EFD3E
:103B9000002001F03BFD3C2001F038FD002001F049
:103BA00035FD4B2001F032FD002001F02FFD5D209E
:103BB00001F02CFD002001F029FD742001F026FD0C
:103BC000002001F023FD842001F020FD002001F001
:103BD0001DFD932001F01AFD002001F017FDA22029
:103BE00001F014FD002001F011FDB32001F00EFDE5
:103BF000002001F00BFDBE2001F008FD002001F0C7
:103C000005FDC42001F002FD002001F0FFFCCD20E5
:103C100001F0FCFC002001F0F9FCD32001F0F6FCDF
:103C2000002001F0F3FCDD2001F0F0FC002001F0A9
:103C3000EDFCF32001F0EAFC002001F0E7FCE520B8
:103C400001F0F0FC002001F0E1FC002001F0DEFCBE
:103C5000002001F0DBFC002001F0D8FC022001F084
:103C6000D5FC002001F0D2FC292001F0CFFC00207F
:103C700001F0CCFC3C2001F0C9FC002001F0C6FCA6
:103C80004B2001F0C3FC002001F0C0FC5D2001F0DE
:103C9000BDFC002001F0BAFC742001F0B7FC00204C
:103CA00001F0B4FC842001F0B1FC002001F0AEFC76
:103CB000932001F0ABFC002001F0A8FCA22001F051
:103CC000A5FC002001F0A2FCB32001F09FFC002025
:103CD00001F09CFCBE2001F099FC002001F096FC54
:103CE000C42001F093FC002001F090FCCD2001F0F5
:103CF0008DFC002001F08AFCD32001F087FC00201D
:103D000001F084FCDC2001F081FC002001F07EFC4D
:103D1000F32001F07BFC002001F078FCE62001F0AC
:103D200081FC112001F072FC002001F06FFC3420B6
:103D300001F06CFC002001F069FC562001F066FCEB
:103D4000002001F063FC762001F060FC002001F00F
:103D50005DFC772001F05AFC002001F057FC662042
:103D600001F054FC002001F051FC882001F04EFCD1
:103D7000002001F04BFC992001F048FC002001F0EC
:103D800045FCBB2001F042FC002001F03FFC9920E3
:103D900001F03CFC002001F039FC662001F036FC0B
:103DA000002001F033FC552001F030FC002001F030
:103DB0002DFC552001F02AFC002001F027FC4520B5
:103DC00001F024FC002001F021FC432001F01EFC46
:103DD000002001F01BFC442001F018FC002001F041
:103DE00015FCE72001F01EFC322001F00FFC002042
:103DF00001F00CFC552001F009FC002001F006FC4C
:103E0000762001F003FC002001F000FC662001F0A8
:103E1000FDFB002001F0FAFB672001F0F7FB00201A
:103E200001F0F4FB672001F0F1FB002001F0EEFB54
:103E3000872001F0EBFB002001F0E8FB992001F066
:103E4000E5FB002001F0E2FBBB2001F0DFFB0020DE
:103E500001F0DCFB992001F0D9FB002001F0D6FB3A
:103E6000772001F0D3FB002001F0D0FB442001F0CB
:103E7000CDFB002001F0CAFB562001F0C7FB00205B
:103E800001F0C4FB232001F0C1FB002001F0BEFBC8
:103E9000332001F0BBFB002001F0B8FB452001F00E
:103EA000B5FB002001F0B2FBE82001F0BBFB0020D5
:103EB00001F0ACFB002001F0A9FB992001F0A6FB6A
:103EC000002001F0A3FB872001F0A0FB002001F0FF
:103ED0009DFB882001F09AFB002001F097FB7720E2
:103EE00001F094FB002001F091FB662001F08EFBB5
:103EF000002001F08BFB882001F088FB002001F0FE
:103F000085FBAA2001F082FB002001F07FFBBB2093
:103F100001F07CFB002001F079FB992001F076FB99
:103F2000002001F073FB662001F070FB002001F01F
:103F30006DFB552001F06AFB002001F067FB552066
:103F400001F064FB002001F061FB442001F05EFB06
:103F5000002001F05BFB442001F058FB002001F041
:103F600055FB552001F052FB002001F04FFBE920EA
:103F700001F058FBAA2001F049FB002001F046FBAC
:103F8000002001F043FB002001F040FB002001F085
:103F900049FBAA2001F03AFBCF2001F043FB0020AF
:103FA00001F034FB002001F031FB002001F02EFB7A
:103FB000002001F02BFB002001F028FB002001F085
:103FC00025FB002001F022FB002001F01FFB002058
:103FD00001F01CFB002001F019FB002001F016FB92
:103FE000002001F013FB002001F010FB002001F085
:103FF0000DFB002001F00AFB002001F007FB002070
:1040000001F004FBF02001F00DFB002001F0FEFAAE
:10401000502001F0FBFA002001F0F8FA002001F036
:10402000F5FA002001F0F2FAF32001F0FBFA00208B
:1040300001F0ECFAF92001F0F5FA062001F0E6FAB9
:10404000102001F0E3FA292001F0E0FA002001F04D
:10405000DDFA3A2001F0E6FA552001F0D7FA1120F6
:1040600001F0E0FA642006F0C5FB292001F0DAFA3D
:10407000352001F0D7FA002001F0C8FA512001F0F4
:10408000D1FAFF2001F0C2FA532001F0CBFA2C2024
:1040900001F0BCFA552001F0C5FA822001F0B6FA11
:1040A0002C2001F0BFFAFDE340457CD1552150465C
:1040B00001F0CEFAAA21584601F0CAFA4FF20203E3
:1040C0005221184601F0C4FA4FF203040821204699
:1040D00001F0BEFA651C0121284601F0B9FA0D2154
:1040E0004FF4304001F0B4FA0D214BF2010001F021
:1040F000AFFA0D214BF2020001F0AAFA4FF4364755
:104100003421384601F0A4FA3421781C01F0A0FAD9
:104110003421B81C01F09CFA4FF431480D2140467F
:1041200001F096FA4BF201190D21484601F090FA80
:104130000D214BF2021001F08BFA34214FF437407D
:1041400001F086FA34214BF2017001F081FA34213A
:104150004BF2027001F07CFA00214FF4324001F082
:1041600077FA00214BF2012001F072FA00214BF2A4
:10417000022001F06DFA24214FF4384001F068FA72
:1041800024214BF6010001F063FA24214BF60200D2
:1041900001F05EFA01214FF43F4001F059FA0F217E
:1041A0004FF4334000E0FCE301F052FA0F214BF2F0
:1041B000013001F04DFA0F214BF2023001F048FAC4
:1041C00034214FF4394001F043FA34214BF6011009
:1041D00001F03EFA34214BF6021001F039FA0821C1
:1041E0004FF4354001F034FA08214BF2015001F050
:1041F0002FFA08214BF2025001F02AFA03214FF462
:10420000424001F025FA24214FF43A4001F020FA0F
:1042100024214BF6012001F01BFA24214BF6022049
:1042200001F016FA00214FF43C4001F011FA782118
:104230004BF6014001F00CFA00214BF6024001F070
:1042400007FA00214FF43D4001F002FA78214BF6C5
:10425000015001F0FDF900214BF6025001F0F8F990
:1042600000214FF43E4001F0F3F964214BF6016068
:1042700001F0EEF900214FF4514001F0E9F933214A
:104280004DF2011001F0E4F900214DF2021001F0AD
:10429000DFF934214DF2031001F0DAF900214DF27B
:1042A000041001F0D5F93A214DF2051001F0D0F9D2
:1042B00000214DF2061001F0CBF94A214DF2071012
:1042C00001F0C6F900214DF2081001F0C1F95C219E
:1042D0004DF2091001F0BCF900214DF20A1001F075
:1042E000B7F981214DF20B1001F0B2F900214DF226
:1042F0000C1001F0ADF9A6214DF20D1001F0A8F956
:1043000000214DF20E1001F0A3F9E5214DF20F103E
:1043100001F09EF901214DF2101001F099F91321DD
:104320004DF2111001F094F901214DF2121001F03B
:104330008FF954214DF2131001F08AF901214DF249
:10434000141001F085F982214DF2151001F080F969
:1043500001214DF2161001F07BF9CA214DF2171020
:1043600001F076F902214DF2181001F071F90021E7
:104370004DF2191001F06CF902214DF21A1001F002
:1043800067F901214DF21B1001F062F902214DF293
:104390001C1001F05DF934214DF21D1001F058F9A7
:1043A00002214DF21E1001F053F967214DF21F104A
:1043B00001F04EF902214DF2201001F049F984215B
:1043C0004DF2211001F044F902214DF2221001F0CA
:1043D0003FF9A4214DF2231001F03AF902214DF2E8
:1043E000241001F035F9B7214DF2251001F030F914
:1043F00002214DF2261001F02BF9CF214DF22710AA
:1044000001F026F902214DF2281001F021F9DE21F8
:104410004DF2291001F01CF902214DF22A1001F091
:1044200017F9F2214DF22B1001F012F902214DF291
:104430002C1001F00DF9FE214DF22D1001F008F9BC
:1044400003214DF22E1001F003F910214DF22F102F
:1044500001F0FEF803214DF2301001F0F9F833219C
:104460004DF2311001F0F4F803214DF2321001F059
:10447000EFF86D214DF2331001F0EAF800214FF40E
:10448000524001F0E5F833214DF2012001F0E0F84F
:1044900000214DF2022001F0DBF834214DF203201F
:1044A00001F0D6F800214DF2042001F0D1F83A21B4
:1044B0004DF2052001F0CCF800214DF2062001F06C
:1044C000C7F84A214DF2072001F0C2F800214DF251
:1044D000082001F0BDF85C214DF2092001F0B8F888
:1044E00000214DF20A2001F0B3F881214DF20B209A
:1044F00001F0AEF800214DF20C2001F0A9F8A62140
:104500004DF20D2001F0A4F800214DF20E2001F033
:104510009FF8E5214DF20F2001F09AF801214DF2AC
:10452000102001F095F813214DF2112001F090F8C0
:1045300001214DF2122001F08BF854214DF213208D
:1045400001F086F801214DF2142001F081F882215A
:104550004DF2152001F07CF801214DF2162001F0FA
:1045600077F8CA214DF2172001F072F802214DF2BE
:10457000182001F06DF800214DF2192001F068F8C3
:1045800002214DF21A2001F063F801214DF21B20A7
:1045900001F05EF802214DF21C2001F059F834219F
:1045A0004DF21D2001F054F802214DF21E2001F0C1
:1045B0004FF867214DF21F2001F04AF802214DF219
:1045C000202001F045F884214DF2212001F040F82F
:1045D00002214DF2222001F03BF8A4214DF22320CC
:1045E00001F036F802214DF2242001F031F8B72114
:1045F0004DF2252001F02CF802214DF2262001F089
:1046000027F8CF214DF2272001F022F802214DF2A8
:10461000282001F01DF8DE214DF2292001F018F8C4
:1046200002214DF22A2001F013F8F2214DF22B2045
:1046300001F00EF802214DF22C2001F009F8FE21C4
:104640004DF22D2001F004F803214DF22E2000F050
:10465000FFFF10214DF22F2000F0FAFF03214DF251
:10466000302000F0F5FF33214DF2312000F0F0FF53
:1046700003214DF2322000F0EBFF6D214DF233208B
:1046800000F0E6FF00214FF4534000F0E1FF33213A
:104690004DF2013000F0DCFF00214DF2023000F05D
:1046A000D7FF34214DF2033000F0D2FF00214DF24C
:1046B000043000F0CDFF3A214DF2053000F0C8FF84
:1046C00000214DF2063000F0C3FF4A214DF20730C1
:1046D00000F0BEFF00214DF2083000F0B9FF5C2170
:1046E0004DF2093000F0B4FF00214DF20A3000F025
:1046F000AFFF81214DF20B3000F0AAFF00214DF2F7
:104700000C3000F0A5FFA6214DF20D3000F0A0FF07
:1047100000214DF20E3000F09BFFE5214DF20F30ED
:1047200000F096FF01214DF2103000F091FF1321AF
:104730004DF2113000F08CFF01214DF2123000F0EB
:1047400087FF54214DF2133000F082FF01214DF21A
:10475000143000F07DFF82214DF2153000F078FF1B
:1047600001214DF2163000F073FFCA214DF21730CF
:1047700000F06EFF02214DF2183000F069FF0021B9
:104780004DF2193000F064FF02214DF21A3000F0B2
:104790005FFF01214DF21B3000F05AFF02214DF264
:1047A0001C3000F055FF34214DF21D3000F050FF59
:1047B00002214DF21E3000F04BFF67214DF21F30F9
:1047C00000F046FF02214DF2203000F041FF84212D
:1047D0004DF2213000F03CFF02214DF2223000F07A
:1047E00037FFA4214DF2233000F032FF02214DF2B9
:1047F000243000F02DFFB7214DF2253000F028FFC6
:1048000002214DF2263000F023FFCF214DF2273058
:1048100000F01EFF02214DF2283000F019FFDE21CA
:104820004DF2293000F014FF02214DF22A3000F041
:104830000FFFF2214DF22B3000F00AFF02214DF262
:104840002C3000F005FFFE214DF22D3000F000FF6E
:1048500003214DF22E3000F0FBFE10214DF22F30DF
:1048600000F0F6FE03214DF2303000F0F1FE33216E
:104870004DF2313000F0ECFE03214DF2323000F009
:10488000E7FE6D214DF2333000F0E2FE00214FF4DF
:10489000544000F0DDFE33214DF2014000F0D8FE1F
:1048A000002100E07DE34DF2024000F0D1FE342112
:1048B0004DF2034000F0CCFE00214DF2044000F028
:1048C000C7FE3A214DF2054000F0C2FE00214DF234
:1048D000064000F0BDFE4A214DF2074000F0B8FE50
:1048E00000214DF2084000F0B3FE5C214DF209407A
:1048F00000F0AEFE00214DF20A4000F0A9FE812139
:104900004DF20B4000F0A4FE00214DF20C4000F0EF
:104910009FFEA6214DF20D4000F09AFE00214DF2BF
:104920000E4000F095FEE5214DF20F4000F090FEA4
:1049300001214DF2104000F08BFE13214DF2114089
:1049400000F086FE01214DF2124000F081FE54215C
:104950004DF2134000F07CFE01214DF2144000F0B6
:1049600077FE82214DF2154000F072FE01214DF2DA
:10497000164000F06DFECA214DF2174000F068FEAF
:1049800002214DF2184000F063FE00214DF2194063
:1049900000F05EFE02214DF21A4000F059FE0121A6
:1049A00000E0FFE24DF21B4000F052FE02214DF20A
:1049B0001C4000F04DFE34214DF21D4000F048FE39
:1049C00002214DF21E4000F043FE67214DF21F40D0
:1049D00000F03EFE02214DF2204000F039FE84211D
:1049E0004DF2214000F034FE02214DF2224000F051
:1049F0002FFEA4214DF2234000F02AFE02214DF2A9
:104A0000244000F025FEB7214DF2254000F020FEA5
:104A100002214DF2264000F01BFECF214DF227402F
:104A200000F016FE02214DF2284000F011FEDE21BA
:104A30004DF2294000F00CFE02214DF22A4000F018
:104A400007FEF2214DF22B4000F002FE02214DF252
:104A50002C4000F0FDFDFE214DF22D4000F0F8FD50
:104A600003214DF22E4000F0F3FD10214DF22F40B6
:104A700000F0EEFD03214DF2304000F0E9FD33215E
:104A80004DF2314000F0E4FD03214DF2324000F0E0
:104A9000DFFD6D214DF2334000F0DAFD00214FF4CF
:104AA000554000F0D5FD33214DF2015000F0D0FD0E
:104AB00000214DF2025000F0CBFD34214DF20350A5
:104AC00000F0C6FD00214DF2045000F0C1FD3A2176
:104AD0004DF2055000F0BCFD00214DF2065000F0F3
:104AE000B7FD4A214DF2075000F0B2FD00214DF212
:104AF000085000F0ADFD5C214DF2095000F0A8FD1A
:104B000000214DF20A5000F0A3FD81214DF20B501F
:104B100000F09EFD00214DF20C5000F099FDA62101
:104B20004DF20D5000F094FD00214DF20E5000F0BA
:104B30008FFDE5214DF20F5000F08AFD01214DF26D
:104B4000105000F085FD13214DF2115000F080FD52
:104B500001214DF2125000F07BFD54214DF2135013
:104B600000F076FD01214DF2145000F071FD82211C
:104B70004DF2155000F06CFD01214DF2165000F081
:104B800067FDCA214DF2175000F062FD02214DF27F
:104B9000185000F05DFD00214DF2195000F058FD55
:104BA00002214DF21A5000F053FD01214DF21B502D
:104BB00000F04EFD02214DF21C5000F049FD342161
:104BC0004DF21D5000F044FD02214DF21E5000F048
:104BD0003FFD67214DF21F5000F03AFD02214DF2DA
:104BE000205000F035FD84214DF2215000F030FDC1
:104BF00002214DF2225000F02BFDA4214DF2235052
:104C000000F026FD02214DF2245000F021FDB721D5
:104C10004DF2255000F01CFD02214DF2265000F00F
:104C200017FDCF214DF2275000F012FD02214DF269
:104C3000285000F00DFDDE214DF2295000F008FD56
:104C400002214DF22A5000F003FDF2214DF22B50CB
:104C500000F0FEFC02214DF22C5000F0F9FCFE2188
:104C60004DF22D5000F0F4FC03214DF22E5000F0D7
:104C7000EFFC10214DF22F5000F0EAFC03214DF221
:104C8000305000F0E5FC33214DF2315000F0E0FCF3
:104C900003214DF2325000F0DBFC6D214DF2335018
:104CA00000F0D6FC00214FF4564000F0D1FC332137
:104CB0004DF2016000F0CCFC00214DF2026000F0EA
:104CC000C7FC34214DF2036000F0C2FC00214DF21C
:104CD000046000F0BDFC3A214DF2056000F0B8FC24
:104CE00000214DF2066000F0B3FC4A214DF207604E
:104CF00000F0AEFC00214DF2086000F0A9FC5C2140
:104D00004DF2096000F0A4FC00214DF20A6000F0B1
:104D10009FFC81214DF20B6000F09AFC00214DF2C6
:104D20000C6000F095FCA6214DF20D6000F090FCA7
:104D300000214DF20E6000F08BFCE5214DF20F607A
:104D400000F086FC01214DF2106000F081FC13217F
:104D50004DF2116000F07CFC01214DF2126000F078
:104D600077FC54214DF2136000F072FC01214DF2EA
:104D7000146000F06DFC82214DF2156000F068FCBB
:104D800001214DF2166000F063FCCA214DF217605C
:104D900000F05EFC02214DF2186000F059FC002189
:104DA0004DF2196000F054FC02214DF21A6000F03F
:104DB0004FFC01214DF21B6000F04AFC02214DF234
:104DC0001C6000F045FC34214DF21D6000F040FCF9
:104DD00002214DF21E6000F03BFC67214DF21F6086
:104DE00000F036FC02214DF2206000F031FC8421FD
:104DF0004DF2216000F02CFC02214DF2226000F007
:104E000027FCA4214DF2236000F022FC02214DF288
:104E1000246000F01DFCB7214DF2256000F018FC65
:104E200002214DF2266000F013FCCF214DF22760E5
:104E300000F00EFC02214DF2286000F009FCDE219A
:104E40004DF2296000F004FC02214DF22A6000F0CE
:104E5000FFFBF2214DF22B6000F0FAFB02214DF234
:104E60002C6000F0F5FBFE214DF22D6000F0F0FB10
:104E700003214DF22E6000F0EBFB10214DF22F606C
:104E800000F0E6FB03214DF2306000F0E1FB33213E
:104E90004DF2316000F0DCFB03214DF2326000F096
:104EA000D7FB6D214DF2336000F0D2FB5521504607
:104EB00000F0CEFBAA21584600F0CAFB522118464A
:104EC00000F0C6FB0821204600F0C2FB0021284666
:104ED00000F0BEFBCC21404600F0BAFB0021484662
:104EE00000F0B6FB0521384600F0B2FB70214FF40C
:104EF000374000F0ADFB70214BF2017000F0A8FBD1
:104F000001214FF4384000F0A3FB03214BF60100D0
:104F100000F09EFB03214BF6020000F099FB0321F9
:104F20004BF6030000F094FB02214FF43C4000F0EC
:104F30008FFB00214BF6014000F08AFB00214BF66D
:104F4000024000F085FBD0214FF4494000F080FB87
:104F500002214CF6011000F07BFB50214CF60210B0
:104F600000F076FB50214CF6031000F071FB50214D
:104F70004CF6041000F06CFB00214FF4545000F08C
:104F800067FB55214FF4685000F062FB4FF48850E6
:104F900000F048FB782005F03BFC4FF4245000F073
:104FA00041FBB9E04845FCD1E22000F03BFB1D206D
:104FB00000F02CFB022000F029FB042000F026FB6F
:104FC000642005F025FCE02000F02CFB012000F01F
:104FD0001DFB0A2005F00EFCE02000F023FB03205F
:104FE00000F014FB0C2005F005FC012000F01AFB7A
:104FF0000A2005F0FFFBE62000F014FB2F2000F054
:1050000005FBFF2000F002FBFF2000F0FFFAB020BC
:1050100000F008FB202000F0F9FA002000F0F6FA7A
:10502000032000F0F3FA40F21F3000F0EFFA012005
:1050300000F0ECFA40F2DF1000F0E8FA002000F097
:10504000E5FAB42000F0EEFA042000F0DFFA40F2B6
:105050001F4000F0DBFA002000F0D8FA2E2000F00C
:10506000D5FA002000F0D2FA002000F0CFFA00209C
:1050700000F0CCFA002000F0C9FAB62000F0D2FA15
:10508000022000F0C3FA4FF4037000F0BFFA0020D2
:1050900000F0BCFA172000F0B9FA152000F0B6FABB
:1050A000002000F0B3FA002000F0B0FAF02000F089
:1050B000B9FA032000F0AAFA292000F0B3FAD020B0
:1050C00000F0B0FA002000F0A1FABE2000F0AAFA29
:1050D000052000F09BFAFE2000F098FA012000F075
:1050E00095FA002000F092FA002000F08FFA0020DC
:1050F00000F08CFAB82000F095FA032000F086FA50
:10510000012000F083FABA2000F08CFA012000F0B0
:105110007DFA642000F020F80120FDF7D3FB04495C
:10512000012008603046FDF789FB13B0BDE8F08F21
:10513000808121420346012000E05843491EC9B244
:10514000FBD2704708B5034800880090BDF8000006
:1051500008BD00000008006C10B50246BE2000F03B
:1051600061FA052000F052FA104628F01CF84FF0C2
:1051700066320B4B28F066F827F0E8FF80B200F0AB
:1051800045FA012000F042FAFF2000F03FFA00202B
:1051900000F03CFABDE81040002000F037BA0000F3
:1051A0006666044070B50023694C41F663162146DB
:1051B000A2798988012A01D1B14202D1C2B9B14292
:1051C00016D1082814D2DFE800F00406080A0C0EF5
:1051D000101206200CE007200AE0042008E0052059
:1051E00006E0012004E0002002E0032000E00220AD
:1051F000082812D2DFE800F0110406080A0C0E108D
:1052000080230AE0402308E0C02306E0202304E0D6
:10521000602302E0A02300E0E02345F21055A942FC
:1052200002D14FF4585000E03620A1F51342413A24
:1052300003D0A1F5EE42893A01D143F008031946A3
:1052400000F006FAA288B2420ED0980606D5208851
:105250006188884208D22180608005E020886188CA
:10526000884201D921806080AA4247D1608900F03C
:10527000D9F9002000F0CAF96089401C80B200F022
:10528000D1F9002000F0C2F96089801C80B200F0E2
:10529000C9F92088401EC0F30F2000F0B7F96089DB
:1052A000C01C80B200F0BEF92078401EC0B200F0F1
:1052B000ADF9A08900F0B6F9002000F0A7F9A089A7
:1052C000401C80B200F0AEF9002000F09FF9A089E8
:1052D000801C80B200F0A6F96088401EC0F30F2049
:1052E00000F094F9A089C01C80B200F09BF9A0786E
:1052F000BDE87040401EC0B200F088B9608900F07F
:1053000091F9002000F082F9002000F07FF9208858
:10531000401EC0F30F2000F079F92078401EC0B283
:1053200000F074F9A08900F07DF9002000F06EF91A
:10533000002000F06BF96088401EC0F30F2000F0E1
:1053400065F9A078BDE87040401EC0B200F05EB9BB
:10535000C8030020F0B502460C463E4D260A2846FA
:10536000A988170A4089A1F5C853633B16D0A1F557
:10537000AA43103B50D000F055F9384600F046F9EA
:10538000D0B200F043F9A88900F04CF9304600F0A3
:105390003DF9E0B2BDE8F04000F038B9A97941B379
:1053A00000F040F9384600F031F9D0B200F02EF9A3
:1053B0002888401EC0F30F2000F028F92878401EEE
:1053C000C0B200F023F9A88900F02CF9304600F0B3
:1053D0001DF9E0B200F01AF96888401EC0F30F20F2
:1053E00000F014F9A878BDE8F040401EC0B200F00B
:1053F0000DB92988891A491E8AB200F013F90020D4
:1054000000F004F9002000F001F9100A00F0FEF8A5
:10541000D0B200F0FBF8D6E700F004F9384600F00F
:10542000F5F86889401C80B200F0FCF8D0B200F0BA
:10543000EDF8A88900F0F6F8304600F0E7F8A88902
:10544000401C80B200F0EEF8E0B2BDE8F04000F0A1
:10545000DDB80000C80300202DE9F84F82460C4655
:105460001F46A346780701D0012000E0002000EB92
:10547000D70079084843C0B20090203A02F0FF09F3
:1054800000264BE00C2F15D0102F1AD0182F48D122
:10549000254909EBC90001EB8000855D4FF000084C
:1054A000280613D521482146008882B25046FDF7D0
:1054B00023FB14E01E4909EB490001EB8000855DE8
:1054C000ECE71C4800EB0910855DE7E70A9830B966
:1054D00016482146808882B25046FDF70DFB6806CB
:1054E000050E641CA4B214484088A04219D9A4EB4C
:1054F0000B00B84209D15C460AF1010A1FFA8AFA88
:105500000D48008850450CD906E008F1010808F064
:10551000FF08B8F1080FC3D3761CF6B20098864294
:10552000B0D3BDE8F88F0000BEE902081C000020DF
:105530005ADF0208CEE30208C80300202DE9FF4F1E
:1055400081B08046DDF838B092461D460026002422
:10555000A1464FEA5B071FE0281B401EC1B20A208C
:10556000FFF7E8FDBAFBF0F00A21B0FBF1F201FB16
:10557000120026B9691E8C4201DA90B10126303042
:10558000C2B207FB048080B25B46CDF8009002995E
:10559000FFF762FF641CE4B2AC42DDD305B0BDE8A6
:1055A000F08F07FB048080B25B462022CDF800908C
:1055B0000299FFF751FFEDE72DE9F84F0446DDE9C9
:1055C0000A760D4604F0FF0810191FFA80F95819E1
:1055D0001FFA80FA4FF0000B11E04C4502D344460D
:1055E000E81985B255450FD23B4629462046CDF8ED
:1055F00000B0FFF731FF04EB570084B2761C32781D
:10560000A2F120005E28E8D9BDE8F88F01B5BDF809
:1056100000000090BDF800000149088008BD0000AE
:105620000008006C01B5BDF800000090BDF8000056
:105630000149088008BD0000FE07006C02480349CC
:105640000089088070470000C8030020FE07006C36
:10565000024A1080901C018070470000FE07006C19
:1056600030B585B01748816941F0080181618169D1
:1056700001F008010091816941F040018161806978
:1056800000F040000090202401940120029003903B
:10569000032004900C4D01A92846FCF709F8019459
:1056A0000A4C01A92046FCF703F8012220212846D4
:1056B000FCF708F9012220212046FCF703F905B088
:1056C00030BD000000100240000C014000180140F5
:1056D000FEE7704770B586B0002405941F488169C5
:1056E00041F080018161806900F0800000904FF4FA
:1056F0000060019001250295039503200490184E47
:1057000001A93046FBF7D4FFA9020191029401A937
:105710003046FBF7CDFFFBF779F9124E3460642079
:1057200005F068F83560642005F064F8012000F0A9
:105730000BF9012205A94FF4506000F01BF89DF809
:10574000141009A0FAF704FE9DF81400802802D076
:10575000012006B070BD0020FBE7000000100240F1
:10576000001C0140AC8123424354502049443A2557
:10577000780D0A002DE9F04104460D461646FBF768
:1057800005FAB220FBF7D2F9FBF73CFA200AFBF747
:10579000CDF9FBF737FAE0B2FBF7C8F9FBF732FABD
:1057A000FBF7F4F9B320FBF7C1F9FBF72BFA002460
:1057B000771E09E0BC4201D0012000E00020FBF789
:1057C0007BF92855641CE4B2B442F3D3BDE8F04140
:1057D000FBF7FAB92DE9F14F82B000240025524FB2
:1057E0003878401CC1B239704FF00A08B1FBF8F0AC
:1057F00008FB10104D4E002801D00A2977D2012253
:1058000002A90020FFF7B6FF9DF80800C1066ED080
:1058100000F01F0040F0C00086F82000DFF810A163
:10582000DFF810B14FF0010996F8200009FA04F1F1
:1058300008424FD04048042201A930F81400FFF775
:1058400099FF96F83000C00724D09DF807009DF816
:10585000061000EB012027F0A6FC52465B4627F01D
:10586000F1FC27F073FC06EB4405E8829DF8050087
:105870009DF8041000EB012027F095FC2F4A304BD7
:1058800027F0E0FC00222F4B27F010FE27F05EFCF3
:10589000A8811FE09DF807009DF8061000EB01208D
:1058A00027F081FC52465B4627F0CCFC27F04EFCEB
:1058B00006EB4405A8819DF805009DF8041000EB57
:1058C000012027F070FC1D4A1D4B27F0BBFC27F080
:1058D0003DFCE882641CE4B2052CA5D30125B28905
:1058E0003046002112B9C08A00B9029139709DF882
:1058F0000800C00610D196F82010080604D521F043
:10590000800086F8200007E04FF6FF70B081F0823B
:1059100001F0E00086F820003878F02801D987F8F7
:1059200000802846BDE8FE8F2C00002034000020B7
:105930007B14AE47E17AD43FF0F70208D881734672
:1059400094F6D23F0000894008B50021009100285C
:1059500001D080200090012269464FF4506000F091
:1059600001F808BD2DE9F04104460E461546002712
:10597000FBF70CF9B220FBF7D9F8FBF743F9200A43
:10598000FBF7D4F8FBF73EF9E0B2FBF7CFF8FBF7F3
:1059900039F9002409E0305DFBF7C8F8FBF732F96C
:1059A0000746380003D1641CE4B2AC42F3D3FBF7E2
:1059B0000BF93846BDE8F0817047000008B507498B
:1059C0004FF4FA520968B1FBF2F14143009100BF74
:1059D0000098411E0091FAD208BD0000000000208E
:1059E000704730B58FB0012105910904069100245C
:1059F000079402250C950D910E9005A8FCF7F6F87A
:105A000000B1FEE70F200090019502944FF48060F2
:105A10000390049402216846FBF7DEFF002800D0C3
:105A2000FEE70FB030BDFBF75BBF00000D4801681B
:105A300041F00101016041680B4A11404160016879
:105A40000A4A11400160016821F480210160416827
:105A500021F4FE0141604FF41F0181600449C0033D
:105A600008607047001002400000FFF8FFFFF6FEDC
:105A700008ED00E00148FCF763BB0000D8030020FC
:105A800010B5094A074B1360516000219160D06046
:105A900011611046FCF708FBBDE810400248FCF716
:105AA0003DBB000000040040D80300202DE9F04178
:105AB00002681D4D1D4E1E4FDFF878C01E4B4FF083
:105AC0008048A84209D0984207D0404505D0B0424E
:105AD00003D0B84201D0604503D122F070044A6877
