:020000040800F2
:1000000068080020E1010008F95D0008B328000835
:10001000F55D0008FD06000881750008000000007D
:1000200000000000000000000000000099610008CE
:10003000050A0008000000006D610008F161000879
:10004000FB010008FB010008FB010008FB010008A0
:10005000FB010008FB010008FB010008FB01000890
:10006000FB010008FB010008FB010008FB01000880
:10007000FB010008FB010008FB010008FB01000870
:10008000FB010008FB010008FB010008FB01000860
:10009000FB010008FB010008FB010008FB01000850
:1000A000FB010008FB010008FB010008FB01000840
:1000B000FB01000851620008FB010008FB01000879
:1000C000FB010008FB010008FB010008FB01000820
:1000D000FB01000841750008FB010008FB01000856
:1000E000FB010008FB010008FB010008FB01000800
:1000F000FB010008FB010008FB010008FB010008F0
:10010000FB010008FB010008FB010008FB010008DF
:10011000FB010008FB010008FB010008FB010008CF
:10012000FB010008FB010008FB010008FB010008BF
:1001300000F002F800F045F80AA090E8000C8244B4
:100140008344AAF10107DA4501D100F03AF8AFF291
:10015000090EBAE80F0013F0010F18BFFB1A43F0A5
:100160000103184790D10000B0D10000103A24BF1D
:1001700078C878C1FAD8520724BF30C830C144BF0C
:1001800004680C607047000000230024002500264E
:10019000103A28BF78C1FBD8520728BF30C148BFEA
:1001A0000B607047642900F0A780782900F0E08098
:1001B000732900F0C381002070471FB51FBD10B523
:1001C00010BD00F0F5F91146FFF7F7FF07F0A6FBA9
:1001D00000F013FA03B4FFF7F2FF03BC07F0EEF9E7
:1001E0000948804709480047FEE7FEE7FEE7FEE7CB
:1001F000FEE7FEE7FEE7FEE7FEE7FEE70448054907
:10020000054A064B70470000F961000831010008FB
:1002100068020020680800206804002068040020AC
:10022000704700000FB4044910B503AA029800F00B
:1002300089F910BC5DF814FB140000202DE9F04191
:100240000E460446002020622046E168884730B30D
:10025000252805D0D4E901219047206A401CF2E707
:10026000E168204600278847050018D0A5F1410025
:10027000192802D820354FF4006732462946204617
:100280002760FFF78FFF40B1012804D0F61D26F04C
:1002900007060836D8E7361DD6E72846DAE7206A8B
:1002A000BDE8F08170B50C460546012A05D02878D6
:1002B000800600D5EA69002302E0012305E05B1C0B
:1002C000934202D2E05C0028F9D1A869E618C01A6E
:1002D000A861286A184428622846AFF3008004E029
:1002E000D5E9012114F8010B9047B442F8D3284610
:1002F000AFF3008070BD00002DE9F04106460024F8
:1003000010687529314616A510D0AFF3008000287B
:1003100002DA404213A507E031688A0701D512A529
:1003200002E0490704D511A5012401E0AFF30080E4
:1003300000210A2206F1240709E0B0FBF2FCB0FB21
:10034000F2F302FB1C00303078541846491C002898
:10035000F3D123462A463046BDE8F04100F083B889
:10036000000000002D0000002B0000002000000015
:1003700070B504460D4621461068AFF30080218811
:10038000090502D50F4A7A4402E00E4A7A440E3239
:10039000002104F1240305E000F00F060009965D3A
:1003A0005E54491C0028F7D120780023000704D5AB
:1003B000702D02D009B1022311322046BDE87040F1
:1003C00000F051B8C6CE00004FF0013C50F8042BAD
:1003D00051F8043B9A4221D1A2EB0C03934313EA58
:1003E000CC1317D150F8042B51F8043B9A4215D185
:1003F000A2EB0C03934313EACC130BD150F8042B5C
:1004000051F8043B9A4209D1A2EB0C03934313EA3F
:10041000CC13DBD04FF00000704700BFD01A01BAF8
:10042000B1FA81F101F0180122FA01F0CB40C1F1DB
:100430002001DBB2C0B2C01A2CFA01F3D11A9143E9
:1004400011EAC311E6D17047704770477047704793
:1004500010B500F089F8006810BD10B5044600F032
:1004600083F8046010BD2DE9F0470D469946924689
:10047000044600F124080168880604D5E06921F0EB
:100480001001216000E00120A84201DD471B00E0CF
:100490000027A1697A1902EB0900081AA0612078E7
:1004A000C00602D42046AFF30080002608E0D4E95D
:1004B00001211AF806009047206A401C761C206231
:1004C0004E45F4DB2078C0060AD52046AFF3008005
:1004D00006E0D4E9012130209047206A401C2062C8
:1004E000381EA7F10107F4DC07E0D4E9012118F870
:1004F00005009047206A401C2062281EA5F10105D6
:10050000F3DC2046AFF300802078000602D50220FD
:10051000BDE8F0870120FBE710B5436913B1AFF3E5
:10052000008001E0FFF7BEFE012010BD127800F14F
:1005300024010A7000224A700122EDE711684FF091
:10054000FF32E9E7074B70B50D467B4400F015F824
:100550000446284600F024F810B14FF0FF3070BD7B
:10056000204670BD0B720000004870470802002052
:1005700001694A1C02610878704700B58FB0CDE967
:1005800001310021059105497944CDE90310114657
:100590006846FFF753FE0FB000BD0000E5FFFFFF08
:1005A000007B00F080007047004870470802002080
:1005B0007546FFF7F9FFAE4605006946534620F041
:1005C0000700854618B020B5FFF718FEBDE82040AB
:1005D0004FF000064FF000074FF000084FF0000BFF
:1005E00021F00701AC46ACE8C009ACE8C009ACE8B2
:1005F000C009ACE8C0098D4670470446AFF30080DF
:100600002046FFF7E7FD10B502F07EF910BD70B58A
:1006100006460C46154608E03046721C96B200F0BD
:1006200007F804F8010B681E85B2002DF4D170BDE7
:1006300070B50446002602F027FA2546E11704EBC0
:1006400011610912A02202EB4101C8B202F0E8F9DF
:1006500002F066FAE11704EB11610912A4EB012123
:10066000C8B202F0DDF902F05BFA02F00DFAA12047
:1006700002F0D6F902F054FA002002F099F9064689
:1006800002F028FA304670BD70B505460C46164695
:1006900006E02178284600F009F8681C85B2641C41
:1006A0003000A6F101018EB2F3D170BD70B50446E1
:1006B0000E4602F0E9F92546E11704EB1161091233
:1006C000A02202EB4101C8B202F0AAF902F028FA16
:1006D000E11704EB11610912A4EB0121C8B202F089
:1006E0009FF902F01DFA304602F09AF902F018FA6A
:1006F00002F0F0F90A2006F0FFFF70BD00BFFEE730
:1007000010B5052007F004F810BD000010B500205A
:100710000F4908600F48006820F0F0000D4908609C
:100720000846006840F030000860FFF7E9FF00204D
:100730000949C1F8A401FFF7E3FF0120044908605B
:10074000FFF7DEFF00200549C1F8840110BD00005D
:1007500084812142041C0140008023420080214208
:1007600000B585B000BF1A48806940F008001849FC
:1007700088610846806900F00800009000BF00BF53
:1007800000BF0846806940F08000886108468069A3
:1007900000F08000009000BF00BF02200190012007
:1007A000029003900320049001A90A4800F062FF20
:1007B0004FF40070019001A9074800F05BFF012091
:1007C000064908600649C1F8A40105B000BD000053
:1007D00000100240000C0140001C014084812142B5
:1007E0000080234210B500200F4908600F480068C0
:1007F00020F0F0000D4908600846006840F0300025
:100800000860FFF77DFF01200949C1F8A401FFF747
:1008100077FF012004490860FFF772FF00200549B7
:10082000C1F8840110BD000084812142041C0140F4
:10083000008023420080214270B5054600241648FE
:10084000006820F0F000144908600846006840F095
:10085000800008601E2006F05BFF002611E00020EB
:100860000E490860FFF74CFF01200D49C1F88401D3
:100870006006040E0B48006808B1601CC4B2701C0E
:10088000C6B2082EEBDB15B9FFF7ACFF01E0FFF7AE
:100890003DFF204670BD0000041C014084812142C0
:1008A000008021422481234270B504461348006829
:1008B00020F0F000114908600846006840F0300060
:1008C000086000200E490860FFF71AFF002511E0BC
:1008D000E0090C4908606006040E01200A49C1F8CD
:1008E0008401FFF70DFF002005490860FFF708FFAE
:1008F000681CC5B2082DEBDB70BD0000041C014074
:1009000084812142A48123420080214210B50F48F6
:10091000006820F0F0000D4908600846006840F0CB
:100920003000086001200A4908600A49C1F88401C2
:100930001E2006F0EDFE002005490860FFF7E0FEEE
:1009400000200449C1F8840110BD0000041C0140CE
:10095000A48123420080214210B50D48006820F098
:10096000F0000B4908600846006840F0300008605D
:100970000120084908601E2006F0CAFE0020064932
:10098000C1F8A401FFF7BCFE01200449086010BDB6
:10099000041C01408481214200802342A48123421F
:1009A00010B500241348006820F0F00011490860D9
:1009B0000846006840F08000086001200E49086089
:1009C0000E49C1F88401FFF79BFE09E0601CC4B228
:1009D000FA2C03DDFFF7C0FF012010BDFFF790FEEA
:1009E0000548803800680028F0D10549086000BF3C
:1009F000F3E70000041C0140A4812342008021424F
:100A0000848121427047000070B50446B3F5804FE1
:100A100013D1D1E9000540EA05108D6840EA0520B0
:100A20008D6928438D8940EA054054F82250064ECE
:100A30003540284344F8220003E06FF0704044F84A
:100A40002200002070BD00000000F0CF30B502464B
:100A5000086852F8200020F001000C6842F82400D9
:100A60008868082801D1402300E000234868184323
:100A70008C682043CC6820430C6920434C69204398
:100A80008C692043CC6920430C6A20434C6A204384
:100A90008C6A2043CC6A20430C6B20434C6B204370
:100AA0000C6852F82440044D2C4020430C6842F856
:100AB0002400002030BD00008000F0FF10B5034688
:100AC000D1E9000440EA04108C6840EA04208C89D3
:100AD00040EA0444088A401E44EA0054087D801E0F
:100AE00044EA00608C692043541C53F8244004F00D
:100AF00040442043541C43F82400002010BD000053
:100B000000B587B000BF4848806940F08000464982
:100B100088610846806900F08000009000BF00BF37
:100B2000C81401900120029003900320049001A9B1
:100B30003E4800F09FFD4FF480600190002002903D
:100B400001A93A4800F096FDFFF70AFE0020384957
:100B50000860142006F0D0FD01203649C1F8AC0130
:100B6000322006F0C9FD00208DF81400012205A9ED
:100B700000F058FA012205A9A42000F053FA16202B
:100B80008DF81400012205A9802000F04BFA0C20FA
:100B90008DF81400012205A9882000F043FA0222F2
:100BA00005A9A12000F056F89DF8140030280DD1B9
:100BB0009DF81500032809D19DF815009DF8142013
:100BC00000EB02211CA0FFF72DFB2AE0042205A95F
:100BD00048F2401000F0ECFA00208DF8180005A94A
:100BE00018A0FFF71FFB1A480599016002208DF835
:100BF0001400012205A948F2400000F039FC01224E
:100C000005A948F2470000F0D3FA0A2006F074FD67
:100C100000208DF81400012205A948F2400000F0E0
:100C200027FC002007B000BD00100240001C01405E
:100C3000AC812342008023424354502049443A254A
:100C4000780D0A004354502049443A25730D0A0098
:100C5000250000202DE9F04106460F461546FFF716
:100C600055FE7020FFF720FEFFF79AFEF0B2FFF767
:100C70001BFEFFF795FEFFF749FE7120FFF714FEFC
:100C8000FFF78EFE00240BE0691EA14201D0012176
:100C900000E000210846FFF7CFFD3855601CC4B2C4
:100CA000AC42F1DBFFF758FEBDE8F08171B583B0CF
:100CB000002001900026D3480078401CD1490870DC
:100CC000084600780A2190FBF1F201FB120018B1EE
:100CD000CC4800780A287DDACBA1CC48FFF774FB1A
:100CE000D8B9012203A948F24E1000F061FA9DF82C
:100CF0000C0000F08000A8B19DF80C0000F00F007F
:100D0000C349097888420DDC00200190012201A925
:100D100048F24E1000F0ACFB04E0012203A90220CF
:100D2000FFF798FF9DF80C0000F00F00002851D04D
:100D30009DF80C0000F00F00B5490978884249DCA5
:100D40009DF80C0000F00F01FF208840C4B2B148AC
:100D500090F82050E043C0B240F0C000AD4981F8A7
:100D6000200008468289AA480078401E0C3121F8EC
:100D70001020A848C28AA6480078401E0A3121F8EF
:100D80001020042006F0B8FC00200190ABE0A14840
:100D900090F820009DF8042001219140084000288F
:100DA0002FD099A19948FFF70FFBE8BB9A499DF80E
:100DB000042031F81200042202A900F0F9F9954844
:100DC00090F8300000F00100E0B19DF808009DF8B7
:100DD000091000E0C5E000EB012081B28D480C3025
:100DE0009DF8042020F812109DF80A009DF80B10C1
:100DF00000EB012081B2874816309DF8042020F8CE
:100E000012106BE09DF808009DF8091000EB01201E
:100E100081B2804816309DF8042020F812109DF809
:100E20000A009DF80B1000E00CE000EB01207B496C
:100E30000988081A81B277480C309DF8042020F800
:100E400012104BE076499DF8042031F8120004227C
:100E500002A9FFF7FFFE6F4890F8300000F0010094
:100E6000E0B19DF809009DF8081001F00F0100EBBA
:100E70000120684916319DF8042021F812009DF8E0
:100E80000B009DF80A1001F00F0100EB01206149F1
:100E90000C319DF8042021F812001FE09DF8090094
:100EA0009DF8081001F00F0100EB01205B49098853
:100EB000081A81B257480C309DF8042020F812100F
:100EC0009DF80B009DF80A1001F00F0100EB0120C6
:100ED000504916319DF8042021F812009DF80400B5
:100EE000401CC0B201909DF804004949097888422D
:100EF000FFF64DAF01264748808948490988884256
:100F000005DC4448C08A45494988884226DD9DF869
:100F10000C0000F00F0001280ADD3E48C0893D4961
:100F200088810846008BC88200203649087018E086
:100F300037480078401E37490C3131F810000C3921
:100F4000888133480078401E163131F81000163978
:100F5000C8828020039081F8205002E000202949B7
:100F6000087029A12948FFF72FFA08BB9DF80C004B
:100F700000F08F0080283BD1264890F8200000F038
:100F8000800040B1234890F8200020F080002149E3
:100F900081F820002CE04FF6FF701E498881C8823E
:100FA000084690F8200000F0E00081F820001FE0E3
:100FB0009DF80C0000F01F00D0B9164890F82000F2
:100FC00000F0800040B1134890F8200020F080002D
:100FD000104981F820000BE04FF6FF700D49888121
:100FE000C882084690F8200000F0E00081F8200058
:100FF00004480078F02802DD0A20024908703046D3
:1010000004B070BD2B0000203931310025000020D4
:101010002A0000203000002076D10008B80100200E
:101020006CD100082DE9F04105460E4617464FF0F9
:101030000008FFF76BFC7020FFF736FCFFF7B0FCF1
:10104000E8B2FFF731FCFFF7ABFC00240BE0305DAA
:10105000FFF72AFCFFF7A4FC8046B8F1000F00D090
:1010600003E0601CC4B2BC42F1DB00BFFFF774FCBC
:101070004046BDE8F081000000B587B000BF3E48A3
:10108000806940F080003C4988610846806900F032
:101090008000009000BF00BFC814019001200290A2
:1010A00003900320049001A9344800F0E3FA4FF4C0
:1010B000806001900020029001A9304800F0DAFA27
:1010C000FFF74EFB00202E4908600A2006F014FBB3
:1010D00001202C49C1F8AC010A2006F00DFB4FF4A9
:1010E00080600190022003900020029001A9234813
:1010F00000F0C0FA642006F0FFFA042205A948F2C5
:10110000401000F055F800208DF8180005A91EA029
:10111000FFF788F81FA105A8FFF756F948BB022082
:101120008DF81400012205A948F2400000F0A0F952
:10113000012205A948F2470000F03AF89DF8140092
:10114000602807DA9DF8141014A0FFF76BF801204F
:1011500000F060F90A2006F0CFFA00208DF81400A4
:10116000012205A948F2400000F082F9002007B0F2
:1011700000BD0020FBE7000000100240001C014001
:10118000AC812342008023424354502049443A25F5
:10119000730D0A0039313437000000004465666180
:1011A000756C74205665723A25640D0A00000000C3
:1011B0002DE9F04105460F461646FFF7A7FB28200C
:1011C000FFF772FBFFF7ECFB2812FFF76DFBFFF751
:1011D000E7FBE8B2FFF768FBFFF7E2FBFFF796FBE0
:1011E0002920FFF761FBFFF7DBFB00240BE0711EFA
:1011F000A14201D0012100E000210846FFF71CFBBD
:101200003855601CC4B2B442F1DBFFF7A5FBBDE862
:10121000F081000071B583B0002400267948007881
:10122000401C78490870084600780A2190FBF1F2CA
:1012300001FB120018B1734800780A287EDA0122F7
:1012400003A948F24E10FFF7B3FF9DF80C0000F021
:10125000800068B19DF80C0000F00F00062807DA46
:1012600000200190012201A948F24E1000F000F97F
:101270009DF80C0000F00F0000285FD09DF80C00D6
:1012800000F00F000628D9DA9DF80C0000F00F01DD
:10129000FF208840C0B201905B4890F820509DF834
:1012A0000400C043C0B240F0C000574981F820009C
:1012B000084681898182C18AC183002446E0524860
:1012C00090F820000121A140084020B34F4931F897
:1012D0001400042202A9FFF76BFF4B4890F830007E
:1012E00000F00100C0B19DF808009DF8091000EB66
:1012F000012081B24448163020F814109DF80A00ED
:101300009DF80B1000EB0120C0F5487081B23E48FB
:101310000C3020F8141017E09DF808009DF8091013
:1013200000EB012081B238480C3020F814109DF8F1
:101330000A009DF80B1000EB012000E036E081B2BE
:101340003148163020F81410601CC4B2052CB6DBEE
:1013500001262D4880892E490988884205DC2A48C3
:10136000C08A2B49498888421DDD9DF80C0000F099
:101370000F0001280ADD2448C089234988810846D6
:10138000008BC88200201F4908700FE01E48808A29
:101390001D4988810846C08BC8828020039008467A
:1013A00080F8205002E00020164908709DF80C00DB
:1013B00000F08F0080281AD1134890F8200000F028
:1013C000800040B1104890F8200020F080000E49C5
:1013D00081F820000BE04FF6FF700B498881C8822E
:1013E000084690F8200000F0E00081F82000054851
:1013F0000078F02802DD0A2002490870304604B067
:1014000070BD00002C0000203000002038D2000801
:10141000B801002038B50546002400208DF80000F2
:101420008DF8015000BF09E09DF800000F49095DEB
:101430000844C0B28DF80000601CC4B2B82CF3D3CD
:101440009DF80000C043401CC0B28DF80000B822D7
:10145000064948F2470000F00BF80222694648F2BC
:10146000FF0000F005F8002038BD000080D1000822
:101470002DE9F04104460E4617464FF00008FFF7ED
:1014800045FA2820FFF710FAFFF78AFA2012FFF733
:101490000BFAFFF785FAE0B2FFF706FAFFF780FADA
:1014A00000250BE0705DFFF7FFF9FFF779FA804642
:1014B000B8F1000F00D003E0681CC5B2BD42F1DBFB
:1014C00000BFFFF749FA4046BDE8F08170B5044619
:1014D000002594F82100022803D00420A0630125F0
:1014E000C1E02068006820F00E00216808602068D4
:1014F000006820F00100216808605C49206888428B
:1015000052D95A4978392068884201D1012047E0F0
:10151000564964392068884201D1102040E053497F
:1015200050392068884201D1801539E04F493C3953
:101530002068884201D1801432E04C492839206863
:10154000884202D14FF480302AE04849143920689B
:10155000884202D14FF4801022E04449206888423A
:1015600001D140041CE042492068884201D1012099
:1015700016E03F4914312068884201D110200FE065
:101580003B4928312068884201D1801508E038495C
:101590003C312068884201D1801401E04FF4803052
:1015A0003349091F086051E0304978392068884282
:1015B00001D1012047E02D4964392068884201D1DA
:1015C000102040E0294950392068884201D1801517
:1015D00039E026493C392068884201D1801432E044
:1015E000224928392068884202D14FF480302AE00D
:1015F0001E4914392068884202D14FF4801022E03D
:101600001A492068884201D140041CE0184920682A
:10161000884201D1012016E0154914312068884222
:1016200001D110200FE0124928312068884201D1F1
:10163000801508E00E493C312068884201D18014B1
:1016400001E04FF48030094980394860012084F876
:10165000210000BF002084F8200000BF606B10B1A3
:101660002046616B8847284670BD0000800002401C
:10167000080402402DE9F847024600239C467BE11E
:101680004FF0010808FA03F4D1F8008008EA0400DA
:10169000A0427DD1DFF8F4A2D1F80480A8EB0A09BA
:1016A000D0453AD014DCB8F1030F50D009DCB8F1C2
:1016B000000F31D0B8F1010F1CD0B8F1020F49D1A1
:1016C00020E0B8F1110F18D0B8F1120F42D11EE08E
:1016D000B9F5881F25D006DCB9F5803F20D0B9F5D3
:1016E000801F37D11AE0B9F5001F18D0B9F5041FD3
:1016F00030D117E0D1F80CC02DE0D1F80C8008F102
:10170000040C28E0D1F80C8008F1080C23E0D1F893
:101710000C8008F10C0C1EE000BF00BF00BF00BF32
:1017200000BF00BFD1F80880B8F1000F02D14FF020
:10173000040C0BE0D1F80880B8F1010F03D14FF091
:10174000080C146102E04FF0080C546103E04FF004
:10175000000C00E000BF00BFFF2801D8904601E068
:1017600002F104084646FF2802D84FEA830803E046
:10177000A3F108084FEA88084746D6F800804FF0E2
:101780000F0909FA07F928EA09080CFA07F900E035
:101790007AE048EA0908C6F80080D1F8048008F029
:1017A0008058B8F1805F6FD100BFDFF8E481D8F8CE
:1017B000188048F00108DFF8D891C9F81880C846A9
:1017C000D8F8188008F00108CDF8008000BF00BFED
:1017D0004FEAB9384FEA930958F829504FEA83780D
:1017E0004FEA18794FF00F0808FA09F825EA0805BA
:1017F000DFF8A081424502D14FF0000824E0DFF875
:101800009881424502D14FF001081DE0DFF88C813C
:10181000424502D14FF0020816E0DFF884814245CC
:1018200002D14FF003080FE0DFF87881424502D182
:101830004FF0040808E0DFF87081424502D14FF014
:10184000050801E04FF006084FEA83794FEA19795D
:1018500008FA09F848EA0505DFF850814FEA9309CC
:1018600048F82950D1F8048008F48038B8F5803F52
:101870000BD1DFF83C81D8F8008048EA0008DFF897
:101880003091C9F800800AE075E0DFF82481D8F8CB
:10189000008028EA0008DFF81891C9F80080D1F824
:1018A000048008F40038B8F5003F0ED1DFF800815D
:1018B00008F10408D8F8008048EA0008DFF8F09042
:1018C00009F10409C9F800800DE0DFF8E48008F1AF
:1018D0000408D8F8008028EA0008DFF8D49009F15D
:1018E0000409C9F80080D1F8048008F48018B8F51C
:1018F000801F0ED1DFF8B88008F10808D8F8008002
:1019000048EA0008DFF8A89009F10809C9F8008042
:101910000DE0DFF89C8008F10808D8F8008028EA7C
:101920000008DFF88C9009F10809C9F80080D1F8A7
:10193000048008F40018B8F5001F0ED1DFF870809D
:1019400008F10C08D8F8008048EA0008DFF8609039
:1019500009F10C09C9F800800DE0DFF8548008F1A6
:101960000C08D8F8008028EA0008DFF8449009F154
:101970000C09C9F800805B1CD1F8008028FA03F834
:10198000B8F1000F7FF47CAEBDE8F88700001110BD
:101990000010024000080140000C0140001001400E
:1019A0000014014000180140001C014008000140E3
:1019B00000040140024693680B400BB1012000E097
:1019C000002070470AB1016101E00B040361704718
:1019D00001480068704700000400002003480068C8
:1019E0000349097808440149086070470400002051
:1019F0000C00002010B50848006840F010000649AF
:101A00000860052000F080F80F2000F007F800F0D3
:101A10002BF8002010BD00000020024070B50446E5
:101A20000E4800784FF47A71B1FBF0F00C49096868
:101A3000B1FBF0F5284600F085FC08B1012070BD2F
:101A4000102C07D200222146501E00F01EF8054837
:101A5000046001E00120F2E70020F0E70C00002024
:101A600000000020080000207047014608460028BA
:101A700009DB00F01F0301229A4043099B0003F198
:101A8000E023C3F8002100BF70472DE9F05F8046D6
:101A90000D461646002705F075FD074639462A46CD
:101AA000334601F00700C0F1070ABAF1040F02D96A
:101AB0004FF0040A01E0C0F1070AD14600F1040A20
:101AC000BAF1070F02D24FF0000A01E0A0F1030AB9
:101AD000D4464FF0010A0AFA09FAAAF1010A0AEA01
:101AE000020A0AFA0CFA4FF0010B0BFA0CFBABF1ED
:101AF000010B0BEA030B4AEA0B042146404605F0B2
:101B000049FDBDE8F09F000000BF00F00702064B52
:101B100019684FF6FF031940044B0B4343EA0221B7
:101B2000014B196000BF70470CED00E00000FA05A2
:101B300070B504460D460CB9012070BD5A480068C6
:101B400000F00700A8420ED25748006820F00700B6
:101B50002843554908600846006800F00700A8427D
:101B600001D00120E9E7207800F0020002281DD111
:101B7000207800F00400042805D14C48406840F467
:101B8000E0604A494860207800F00800082805D144
:101B90004648406840F460504449486043484068C3
:101BA00020F0F000A168084340494860207800F028
:101BB000010078B36068012806D13C48006800F451
:101BC000003090B90120B8E76068022806D1374894
:101BD000006800F0007040B90120AEE733480068AB
:101BE00000F0020008B90120A7E73048406820F063
:101BF0000300616808432D494860FFF7E9FE064687
:101C000009E0FFF7E5FE801B41F28831884202D9E6
:101C1000032092E707E02548406800F00C00616867
:101C2000B0EB810FEDD12048006800F00700A8421A
:101C30000ED91D48006820F0070028431A490860A3
:101C40000846006800F00700A84201D0012074E7B0
:101C5000207800F00400042807D11448406820F4DC
:101C6000E060E168084311494860207800F008000E
:101C7000082808D10D48406820F46050216940EAE6
:101C8000C1000A49486000F03FF808494968C1F3BB
:101C90000311074A515CC8400649086006480068BD
:101CA000FFF7BCFE002048E7002002400010024081
:101CB000148A000800000020080000200148006885
:101CC000704700000000002000B5FFF7F7FF04494F
:101CD0004968C1F30221034A515CC84000BD0000BD
:101CE00000100240248A000800B5FFF7E7FF04490E
:101CF0004968C1F3C221034A515CC84000BD0000DD
:101D000000100240248A0008F0B585B00FF26C0C78
:101D10009CE8E01001A8A0E8E0101CA52D68009543
:101D200000210022002300240020194D696801F0E1
:101D30000C05F5B1042D02D0082D19D101E015488C
:101D400019E001ADC1F38346AC5D01F4803555B1B6
:101D50000F4D6D68C5F340451DF805200D4D6543D9
:101D6000B5FBF2F302E00C4D04FB05F3184602E06C
:101D700000BF084800BF00BF05B0F0BD0203040566
:101D8000060708090A0B0C0D0E0F101001020000C7
:101D90000010024000127A0000093D00F8B5044628
:101DA0000CB90120F8BD207800F00100002878D09F
:101DB000F848406800F00C0004280CD0F548406852
:101DC00000F00C00082811D1F248406800F480307F
:101DD000B0F5803F0AD1EF48006800F400300028D9
:101DE0005FD0606800285CD10120DBE700BF60683D
:101DF000B0F5803F06D1E748006840F48030E549FF
:101E0000086028E0606858B9E248006820F4803033
:101E1000E04908600846006820F4802008601AE065
:101E20006068B0F5A02F0BD1DA48006840F480203C
:101E3000D84908600846006840F4803008600AE02D
:101E4000D448006820F48030D24908600846006811
:101E500020F48020086000BF606888B1FFF7B8FDFB
:101E6000054606E0FFF7B4FD401B642801D90320B6
:101E700098E7C848006800F400300028F2D010E06D
:101E8000FFF7A6FD054606E0FFF7A2FD401B64280C
:101E900001D9032086E7BF48006800F4003000281D
:101EA000F2D1207800F00200022857D1B9484068EA
:101EB00000F00C0050B1B748406800F00C00082852
:101EC00018D1B448406800F4803098B9B14800682F
:101ED00000F0020020B12069012801D0012061E753
:101EE000AC48006820F0F800616940EAC100A949E7
:101EF000086033E02069E8B10120A7490860FFF7D6
:101F000067FD054606E0FFF763FD401B022801D987
:101F1000032047E79F48006800F002000028F2D045
:101F20009C48006820F0F800616940EAC1009949C6
:101F3000086013E0002098490860FFF749FD054656
:101F400006E0FFF745FD401B022801D9032029E7E1
:101F50009048006800F002000028F2D1207800F0DC
:101F6000080008282DD1A069B8B101208B4908606C
:101F7000FFF72EFD054606E0FFF72AFD401B02286D
:101F800001D903200EE78348406A00F002000028D0
:101F9000F2D0012004F0ECF813E000207F49086043
:101FA000FFF716FD054606E0FFF712FD401B02286D
:101FB00001D90320F6E67748406A00F002000028C5
:101FC000F2D1207800F00400042873D10027714872
:101FD000C06900F0805070B900BF6E48C06940F021
:101FE00080506C49C8610846C06900F0805000907C
:101FF00000BF00BF01276A48006800F48070B0B9D4
:102000006748006840F4807065490860FFF7E0FCAD
:10201000054606E0FFF7DCFC401B642801D90320DD
:10202000C0E65F48006800F480700028F2D000BF6E
:10203000E068012806D15748006A40F00100554980
:10204000086227E0E06858B95248006A20F00100B1
:10205000504908620846006A20F00400086219E04E
:10206000E06805280BD14B48006A40F0040049495C
:1020700008620846006A40F0010008620AE045482C
:10208000006A20F00100434908620846006A20F017
:102090000400086200BFE068A0B1FFF799FC0546A4
:1020A00009E0FFF795FC401B41F28831884202D9D4
:1020B000032077E622E03748006A00F0020000289B
:1020C000EFD012E0FFF784FC054608E0FFF780FC44
:1020D000401B41F28831884201D9032062E62D4835
:1020E000006A00F002000028F0D1012F05D1294834
:1020F000C06920F080502749C86100BFE069C8B3BB
:102100002448406800F00C00082860D0E0690228EC
:1021100048D1002020490866FFF75AFC054606E032
:10212000FFF756FC401B022801D903203AE6194864
:10213000006800F000700028F2D1206AB0F5803FFE
:1021400007D11448406820F40030A16808431149C1
:102150004860D4E9080108430E49496821F4741124
:1021600008430C49486001200B490866FFF730FC22
:10217000054607E03DE0FFF72BFC401B022801D994
:1021800003200FE60348006800F000700028F2D03A
:102190002FE0000000100240000042428004424252
:1021A00000700040002014490866FFF711FC054646
:1021B00006E0FFF70DFC401B022801D90320F1E5E2
:1021C0000E48006800F000700028F2D111E0E069CC
:1021D000012800D1E6E50948466806F48031206A06
:1021E000814204D106F47011606A814201D001205D
:1021F000D8E50020D6E50000000042420010024071
:1022000070B504460E4615460CB9012070BD94F811
:10221000410028B9002084F84000204600F020F852
:1022200004F108012068FEF711FC3146A26820681D
:10223000FEF744FC2946236BD4E90102FEF7E4FBD8
:10224000A168206850F8210040F00100A2682168D0
:1022500041F82200012084F841000020D6E7000068
:1022600010B586B0044600BF2848406940F480702D
:10227000264948610846406900F48070019000BF1B
:1022800000BF00BF0846806940F020008861084612
:10229000806900F02000019000BF00BF00BF084629
:1022A000806940F0400088610846806900F0400085
:1022B000019000BF00BF00BF0846806940F48070F5
:1022C00088610846806900F48070019000BF00BFFB
:1022D0004CF23370029002200390012004900320FE
:1022E000059002A90A48FFF7C5F94FF680700290E1
:1022F00002A90848FFF7BEF941F20100029002A9C5
:102300000548FFF7B7F906B010BD00000010024005
:10231000001401400018014000200140042808D1A9
:102320004FF0E021096941F004014FF0E022116112
:1023300007E04FF0E021096921F004014FF0E022AD
:102340001161704770B504462546681EB0F1807F64
:1023500001D301200FE0681E4FF0E02148610F21FA
:102360004FF0FF3005F016F900204FF0E0218861B2
:1023700007200861002070BD70477047704710B596
:10238000044620680069C0F34000D8B12068C068E6
:10239000C0F34000B0B16FF0020021680861012075
:1023A00020772068806900F0030018B12046FFF70D
:1023B000E5FF05E0204600F0ADF8204600F0ABF860
:1023C0000020207720680069C0F38000D8B1206821
:1023D000C068C0F38000B0B16FF0040021680861EC
:1023E000022020772068806900F4407018B12046F0
:1023F000FFF7C4FF05E0204600F08CF8204600F00F
:102400008AF80020207720680069C0F3C000D8B1A6
:102410002068C068C0F3C000B0B16FF00800216848
:102420000861042020772068C06900F0030018B11B
:102430002046FFF7A3FF05E0204600F06BF820469A
:1024400000F069F80020207720680069C0F30010D0
:10245000D8B12068C068C0F30010B0B16FF01000B0
:1024600021680861082020772068C06900F4407066
:1024700018B12046FFF782FF05E0204600F04AF839
:10248000204600F048F8002020772068006900F01E
:10249000010058B12068C06800F0010030B16FF051
:1024A000010021680861204600F036F820680069C4
:1024B000C0F3C01058B12068C068C0F3C01030B17C
:1024C0006FF08000216808612046FFF755FF206803
:1024D0000069C0F3801058B12068C068C0F3801054
:1024E00030B16FF0400021680861204600F024F808
:1024F00020680069C0F3401058B12068C068C0F37C
:10250000401030B16FF02000216808612046FFF7CD
:1025100034FF10BD704770470549884207D105490F
:10252000096809B9012100E00021024A11607047E1
:10253000C8010020940123427047704701460022E1
:10254000002391F8392091F83A3042EA03007047AD
:102550002DE9F0470446206805682068C6682068B1
:1025600047694FF00008C14605F00F08B8F1000FA9
:102570000AD105F0200038B106F0200020B1204635
:1025800004F086FEBDE8F087B8F1000F6DD007F0CB
:10259000010018B906F49070002866D005F001001B
:1025A00030B106F4807018B1E06B40F00100E063D8
:1025B00005F0040030B107F0010018B1E06B40F005
:1025C0000200E06305F0020030B107F0010018B12D
:1025D000E06B40F00400E06305F0080030B107F064
:1025E000010018B1E06B40F00800E063E06B68B3F5
:1025F00005F0200028B106F0200010B1204604F0BC
:1026000047FE20684069C0F38019E06B00F00800C5
:1026100010B9B9F1000F22D0204604F019FE20684D
:10262000406900F04000B0B12068406920F04000EF
:1026300021684861606B50B11748616B4863606BFB
:10264000FEF744FF10B1606B416B88470CE02046F9
:10265000FFF773FF08E02046FFF76FFF04E0204616
:10266000FFF76BFF0020E0638CE705F0800030B1DE
:1026700006F0800018B1204604F02EFF82E705F036
:10268000400030B106F0400018B1204604F0F0FDE3
:1026900078E700BF76E700003D72000810B50446F9
:1026A0000CB9012010BDA06900B100E000BF94F892
:1026B000390028B9002084F83800204600F028F8B6
:1026C000242084F839002068C06820F40050216874
:1026D000C860204604F030FE2068006920F4904075
:1026E000216808612068406920F02A00216848615B
:1026F0002068C06840F400502168C8600020E06392
:10270000202084F8390084F83A000020CAE700004D
:1027100010B586B0044625492068884244D100BFE0
:102720002348806940F00400214988610846806997
:1027300000F00400019000BF00BF00BF08468069A0
:1027400040F4804088610846806900F48040019030
:1027500000BF00BF00BF0846806940F001008861EB
:102760000846806900F00100019000BF00BF4815D5
:10277000029002200390012004900320059002A9FA
:102780000C48FEF777FF4FF4806002900020039022
:1027900002A90848FEF76EFF2520FFF766F903221D
:1027A00011462520FFF771F906B010BD0038014031
:1027B000001002400008014010B5034693F83A00AB
:1027C00020282FD101B10AB9012010BD00BF93F814
:1027D0003800012801D10220F7E7012083F83800F2
:1027E00000BF99629A85DA850020D863222083F899
:1027F0003A0000BF002083F8380000BF1868C068A6
:1028000040F480701C68E0601868406940F0010086
:102810001C6860611868C06840F020001C68E060B7
:102820000020D2E70220D0E71D4A0168914236D14C
:102830001C49098801F4004189BB1A49098801F43F
:10284000804171B1184909780A2903D00021154A3D
:10285000118024E01349098841F40041114A118094
:102860001DE0114909780D2906D10E49098841F466
:1028700080410C4A118012E00B490978094A1288FC
:10288000C2F30D02094B995406490988491C054AAF
:10289000118011460988C72901DD00211180704788
:1028A00000380140180000201A00002068000020B5
:1028B000704700BFFEE7000010B500200F49086018
:1028C0000F48006820F070400D4908600846006815
:1028D00040F04050086000200A49C1F89C010220E5
:1028E00004F016FF012005490860022004F010FFE3
:1028F00000200449C1F8980110BD000098812142D0
:10290000000C01400080214200B585B000BF104896
:10291000806940F008000E4988610846806900F02F
:102920000800009000BF00BFC0200190012002906D
:1029300003900320049001A90648FEF79BFE0120A6
:10294000054908600549C1F8980105B000BD0000BF
:1029500000100240000C01409C8121420080214275
:1029600010B500200F4908600F48006820F0704043
:102970000D4908600846006840F04050086001209A
:102980000A49C1F89C01022004F0C2FE0120054959
:102990000860022004F0BCFE00200449C1F8980140
:1029A00010BD000098812142000C014000802142AE
:1029B00070B5054600241748006820F0704015499E
:1029C00008600846006840F000400860002616E0F5
:1029D000002011490860022004F09AFE01200F49EE
:1029E000C1F898016006040E0B487C38006808B1F5
:1029F000601CC4B2012004F08BFE701CC6B2082E0D
:102A0000E6DB15B9FFF7ACFF01E0FFF755FF204605
:102A100070BD0000000C01409881214200802142DD
:102A200070B504461548006820F0704013490860EE
:102A30000846006840F040500860002010490860D7
:102A4000002517E0E0090E49091D08606006040E24
:102A5000022004F05DFE01200A49C1F8980102201D
:102A600004F056FE002006490860022004F050FEE3
:102A7000681CC5B2082DE5DB70BD0000000C0140EC
:102A8000988121420080214210B50F48006820F053
:102A900070400D4908600846006840F040500860EA
:102AA00001200A4908600A49C1F89801042004F08D
:102AB0002FFE002005490860042004F029FE0020B4
:102AC0000349C1F8980110BD000C01409C812142CE
:102AD0000080214210B50F48006820F070400D4979
:102AE00008600846006840F04050086000200A492D
:102AF00008600A49C1F89C01042004F009FE012085
:102B0000054908600549C1F89C01042004F000FE55
:102B100010BD0000000C014098812142008021423C
:102B200010B500241448006820F070401249086075
:102B30000846006840F00040086001200F49086026
:102B400004F0E6FD01200E49C1F8980104F0E0FD13
:102B500007E0601CC4B2FA2C03DDFFF7BBFF0120C5
:102B600010BD0648803800680028F2D10349091FCB
:102B7000086000BFF4E70000000C01409C81214286
:102B80000080214200B585B000BF1A48806940F03E
:102B90000400184988610846806900F0040000902C
:102BA00000BF00BF00BF0846806940F04000886158
:102BB0000846806900F04000009000BF00BF01207F
:102BC000019000200290022003900320049001A9AC
:102BD0000948FEF74FFD18200190002002900120C7
:102BE00003900320049001A90448FEF743FD05B0BB
:102BF00000BD000000100240000801400018014024
:102C000010B50446012C01D12349087022480078F0
:102C100058B310212148FEF7CDFE50B108211F48BE
:102C2000FEF7C8FE28B101211D48FEF7C3FE0128AA
:102C30001BD10A2004F060FD002017490870102104
:102C40001648FEF7B7FE08B9012010BD0821134849
:102C5000FEF7B0FE08B90220F7E701211048FEF7A1
:102C6000A9FE012815D10320EFE710210B48FEF73C
:102C7000A1FE01280DD108210848FEF79BFE01287E
:102C800007D101210648FEF795FE10B9012002493F
:102C900008700020D9E7000024000020001801403F
:102CA0000008014070B504460026094805884088A0
:102CB00045430021084602F06FFE03F029F800BFEB
:102CC00002E004480480761CAE42FAD370BD0000D6
:102CD000B80100200008006C10B504464948847112
:102CE000002C45D1F020474908804FF4A07048805F
:102CF0000846808845F21051884210D14FF4305078
:102D0000404908814FF4285048814FF42C50888165
:102D10004FF4F07008804FF4487048801AE039484A
:102D2000808841F6631188420DD12C2035490881F5
:102D30002B2048812A2088814FF4F07008804FF4BE
:102D40004870488006E02C202E4908812A204881BE
:102D50002B2088812B48808845F2103188424CD145
:102D60004FF4A070274908804FF4F070488044E089
:102D70004FF4A07023490880F020488008468088DE
:102D800045F21051884210D14FF430501D4908814E
:102D90004FF4285048814FF42C5088814FF44870EC
:102DA00008804FF4F07048801AE01648808841F699
:102DB000631188420DD12C20124908812A204881B4
:102DC0002B2088814FF4487008804FF4F0704880C1
:102DD00006E02C200B4908812A2048812B2088817D
:102DE0000848808845F21031884206D14FF4F070CF
:102DF000044908804FF4A0704880002002F0B2FC23
:102E000010BD0000B80100202DE9FF4F84B08146BD
:102E10008A460020039002900698A0EB09050798C7
:102E2000A0EB0A06CDF80490CDF800A0002D01DD3E
:102E3000012705E00DB9002702E04FF0FF376D4292
:102E4000002E02DD4FF0010806E016B94FF0000831
:102E500002E04FF0FF387642B54201DD2C4600E03B
:102E600034464FF0000B21E0009A91B2019A90B2E3
:102E700000F022F80398284403900298304402900E
:102E80000398A04205DD0398001B03900198384485
:102E900001900298A04205DD0298001B0290009864
:102EA000404400900BF101001FFA80FB601C834539
:102EB000DADD08B0BDE8F08F30B504460D4629468E
:102EC000204602F069FD02F023FF02480088024913
:102ED000088030BD1C0000200008006C2DE9F04384
:102EE00006460F469046002445460320A0EB4809BD
:102EF0003CE07A1B91B2321990B2FFF7DDFF3A1B2A
:102F000091B2721990B2FFF7D7FF3A1991B27219C4
:102F100090B2FFF7D1FF7A1991B2321990B2FFF750
:102F2000CBFF7A1991B2321B90B2FFF7C5FF3A1965
:102F300091B2721B90B2FFF7BFFF7A1B91B2321BA6
:102F400090B2FFF7B9FF3A1B91B2721B90B2FFF734
:102F5000B3FF641CB9F1000F03DAA000801D8144A7
:102F600004E0601B80000A3081446D1EAC42C0DD6D
:102F7000BDE8F08330B504460D463848808845F2F8
:102F80001051884220D13549488902F0B5FE2012FF
:102F900002F0A6FE31494989491C88B202F0ACFE14
:102FA000E0B202F09DFE2D49888902F0A5FE2812AC
:102FB00002F096FE29498989491C88B202F09CFEDC
:102FC000E8B202F08DFE42E02448808841F66311A9
:102FD000884228D12148807920B920480088401EA5
:102FE000001B84B21D49488902F086FE201202F0BF
:102FF00077FEE0B202F074FE201202F071FEE0B241
:1030000002F06EFE1549888902F076FE281202F061
:1030100067FEE8B202F064FE281202F061FEE8B238
:1030200002F05EFE13E00D49488902F065FE2012B1
:1030300002F056FEE0B202F053FE0849888902F021
:103040005BFE281202F04CFEE8B202F049FE034893
:10305000008903490880881C028030BDB801002027
:10306000FE07006C2DE9F04F05460E4617469846C0
:10307000DDF824A04FF0000B781B401C1FFA80FBEA
:10308000344613E02146284602F086FC02F040FE5A
:103090004FF0000906E00748A0F800A009F1010080
:1030A0001FFA80F9D945F6DB601C84B24445E9DD9E
:1030B000BDE8F08F0008006C00B593B000BFFE487B
:1030C000806940F00800FC4988610846806900F08A
:1030D0000800009000BF00BF01200F9010901190D9
:1030E000032012900FA9F548FEF7C4FA4FF02040D4
:1030F000F3490860F3484860062088600021F048E2
:10310000C16001611021416100218161C1614162A1
:103110004FF4805181620021C1624FF4804101630C
:1031200000214163816306200890002009901A2045
:103130000A9000200E90049003200190002002903D
:10314000062003900020079001AA08A9DC48FFF799
:1031500057F8322004F0D0FAD32002F0CDFD02F06F
:10316000CDFAD949888002F0C9FAD749888002F09F
:10317000C5FAD5498880084680884FF6FF7101EA74
:103180000020D149888002F0B9FACF4989880843E4
:10319000CD4988800846808849F2413188427DD0F7
:1031A000042002F0A9FD02F0A9FAC749888002F0C4
:1031B000A5FAC549888002F0A1FAC349888008466B
:1031C00080884FF6FF7101EA0020BF49888002F035
:1031D00095FABD4989880843BB498880084680889C
:1031E00048F25251884203D147F28970B64988802B
:1031F000B548808847F289718842D0D0D42002F047
:103200007BFD02F07BFAB049888002F077FAAE4984
:10321000888002F073FAAC498880084680884FF6AF
:10322000FF7101EA0020A849888002F067FAA649E8
:1032300089880843A44988800846808845F210316F
:10324000884262D055214FF4704002F06BFDAA21F4
:103250004FF2010002F066FD52214FF2020002F02F
:1032600061FD08214FF2030002F05CFD01214FF2E5
:10327000040002F057FD4FF4454002F03DFD02F01E
:103280003DFA91498880084680884FF6FF7101EA2F
:1032900000208D4988804CF2015000E035E002F0BA
:1032A0002BFD02F02BFA88498988084386498880DB
:1032B000322004F021FA8448808845F21051884277
:1032C00023D0A12002F018FD02F018FA7E49888070
:1032D00002F014FA7C498880084680884FF6FF7116
:1032E00001EA00207849888002F008FA7649898846
:1032F0000843754988800846808845F26171884294
:1033000003D141F66310704988806F4881886FA0AF
:10331000FCF788FF6C48808849F2413188427CD1B3
:10332000CF2002F0E9FC002002F0DAFCC12002F01C
:10333000D7FC302002F0D4FCED2002F0DDFC64204C
:1033400002F0CEFC032002F0CBFC122002F0C8FCFD
:10335000812002F0C5FCE82002F0CEFC852002F0BE
:10336000BFFC102002F0BCFC7A2002F0B9FCCB209C
:1033700002F0C2FC392002F0B3FC2C2002F0B0FCB9
:10338000002002F0ADFC342002F0AAFC022002F082
:10339000A7FCF72002F0B0FC202002F0A1FCEA20FC
:1033A00002F0AAFC002002F09BFC002002F098FC36
:1033B000C02002F0A1FC1B2002F092FCC12002F010
:1033C0009BFC012002F08CFCC52002F095FC302013
:1033D00002F086FC302002F083FCC72002F08CFC57
:1033E000B72002F07DFC362002F086FC482002F077
:1033F00077FC3A2002F080FC552002F071FCB120ED
:1034000002F07AFC002002F06BFC1A2002F068FC4B
:10341000B62002F071FC0A2000E0ACE002F060FC93
:10342000A22002F05DFCF22002F066FC002002F017
:1034300057FC262002F060FC012002F051FCE02045
:1034400002F05AFC0F2002F04BFC2A2002F048FC4C
:10345000282002F045FC082002F042FC0E2002F079
:103460003FFC082002F03CFC542002F039FCA9206B
:1034700002F036FC432002F033FC0A2002F030FC5C
:103480000F2002F02DFC002002F02AFC002002F0A8
:1034900027FC002002F024FC002002F021FCE120A7
:1034A00002F02AFC002002F01BFC152002F018FCA0
:1034B000172002F015FC11E000100240000C014042
:1034C00070010020040100A0B8010020204C4344FA
:1034D0002049443A25780D0A00000000072002F038
:1034E000FFFB112002F0FCFB062002F0F9FB2B2071
:1034F00002F0F6FB562002F0F3FB3C2002F0F0FB5A
:10350000052002F0EDFB102002F0EAFB0F2002F094
:10351000E7FB3F2002F0E4FB3F2002F0E1FB0F203D
:1035200002F0DEFB2B2002F0E7FB002002F0D8FBCC
:10353000002002F0D5FB012002F0D2FB3F2002F078
:10354000CFFB2A2002F0D8FB002002F0C9FB0020AC
:1035500002F0C6FB002002F0C3FBEF2002F0C0FB2C
:10356000112002F0C9FB782004F0C6F8292002F0EF
:10357000C3FB02F0A6B8FE48808847F289718842F2
:103580007ED1112002F0B8FB782004F0B5F8362087
:1035900002F0B2FB002002F0A3FB3A2002F0ACFBE9
:1035A000052002F09DFBB22002F0A6FB0C2002F0E9
:1035B00097FB0C2002F094FB002002F091FB3320DB
:1035C00002F08EFB332002F08BFBB72002F094FB5D
:1035D000352002F085FBBB2002F08EFB322002F08A
:1035E0007FFBC02002F088FB0C2002F079FBC22098
:1035F00002F082FB012002F073FBC32002F07CFB8F
:10360000102002F06DFBC42002F076FB202002F0B7
:1036100067FBC62002F070FB0F2002F061FBD02098
:1036200002F06AFBA42002F05BFBA12002F058FB31
:10363000E02002F061FBD02002F052FB002002F0FB
:103640004FFB022002F04CFB072002F049FB0A204E
:1036500002F046FB282002F043FB322002F040FB40
:10366000442002F03DFB422002F03AFB062002F02B
:1036700037FB0E2002F034FB122002F031FB00E099
:1036800054E0142002F02CFB172002F029FBE1206B
:1036900002F032FBD02002F023FB002002F020FBDE
:1036A000022002F01DFB072002F01AFB0A2002F0A4
:1036B00017FB282002F014FB312002F011FB5420EC
:1036C00002F00EFB472002F00BFB0E2002F008FB7D
:1036D0001C2002F005FB172002F002FB1B2002F069
:1036E000FFFA1E2002F0FCFA2A2002F005FB00205F
:1036F00002F0F6FA002002F0F3FA002002F0F0FAED
:10370000EF2002F0EDFA2B2002F0F6FA002002F092
:10371000E7FA002002F0E4FA012002F0E1FA3F208B
:1037200002F0DEFA292002F0E7FA22E790488088CA
:1037300045F21031884240F07C87ED2002F0DCFA3F
:10374000012002F0CDFAFE2002F0CAFAEE2002F0CB
:10375000D3FADE2002F0C4FA212002F0C1FAF120EF
:1037600002F0CAFA012002F0BBFADF2002F0C4FA2C
:10377000102002F0B5FAC42002F0BEFA8F2002F049
:10378000AFFAC62002F0B8FA002002F0A9FAE2204F
:1037900002F0A6FAE22002F0A3FAE22002F0A0FA78
:1037A000BF2002F0A9FAAA2002F09AFAB02002F093
:1037B000A3FA0D2002F094FA002002F091FA0D20F5
:1037C00002F08EFA002002F08BFA112002F088FA43
:1037D000002002F085FA192002F082FA002002F09F
:1037E0007FFA212002F07CFA002002F079FA2D20E5
:1037F00002F076FA002002F073FA3D2002F070FA2F
:10380000002002F06DFA5D2002F06AFA002002F05A
:1038100067FA5D2002F064FA002002F061FAB1203C
:1038200002F06AFA802002F05BFA002002F058FAF7
:103830008B2002F055FA002002F052FA962002F096
:103840004FFA002002F04CFAB22002F055FA0020A4
:1038500002F046FA002002F043FA022002F040FA99
:10386000002002F03DFA032002F03AFA002002F0B4
:1038700037FAB32002F040FA002002F031FA0020BB
:1038800002F02EFA002002F02BFA002002F028FAB3
:10389000002002F025FA002002F022FA002002F0B7
:1038A0001FFA002002F01CFA002002F019FA002092
:1038B00002F016FA002002F013FA002002F010FACB
:1038C000002002F00DFA002002F00AFA002002F0B7
:1038D00007FA002002F004FA002002F001FA0020AA
:1038E00002F0FEF9002002F0FBF9002002F0F8F9E6
:1038F000002002F0F5F9002002F0F2F9002002F0B9
:10390000EFF9002002F0ECF9B42002F0F5F98B2079
:1039100002F0E6F9002002F0E3F9962002F0E0F967
:10392000002002F0DDF9A12002F0DAF9002002F017
:10393000D7F9B52002F0E0F9022002F0D1F9002019
:1039400002F0CEF9032002F0CBF9002002F0C8F912
:10395000042002F0C5F9002002F0C2F9B62002F0FE
:10396000CBF9002002F0BCF9002002F0B9F901E027
:10397000B8010020B72002F0BFF9002002F0B0F932
:10398000002002F0ADF93F2002F0AAF9002002F079
:10399000A7F95E2002F0A4F9002002F0A1F964204A
:1039A00002F09EF9002002F09BF98C2002F098F9B9
:1039B000002002F095F9AC2002F092F9002002F00C
:1039C0008FF9DC2002F08CF9002002F089F97020D8
:1039D00002F086F9002002F083F9902002F080F9CD
:1039E000002002F07DF9EB2002F07AF9002002F0CD
:1039F00077F9DC2002F074F9002002F071F9B820A8
:103A000002F07AF9002002F06BF9002002F068F968
:103A1000002002F065F9002002F062F9002002F0B7
:103A20005FF9002002F05CF9002002F059F9002053
:103A300002F056F9BA2002F05FF9242002F050F9A2
:103A4000002002F04DF9002002F04AF9002002F0B7
:103A500047F9C12002F050F9202002F041F900207E
:103A600002F03EF9542002F03BF9002002F038F950
:103A7000FF2002F035F9002002F032F9C22002F0F6
:103A80003BF90A2002F02CF9002002F029F9042069
:103A900002F026F9002002F023F9C32002F02CF9ED
:103AA0003C2002F01DF9002002F01AF93A2002F041
:103AB00017F9002002F014F9392002F011F9002062
:103AC00002F00EF9372002F00BF9002002F008F99D
:103AD0003C2002F005F9002002F002F9362002F045
:103AE000FFF8002002F0FCF8322002F0F9F8002084
:103AF00002F0F6F82F2002F0F3F8002002F0F0F8C0
:103B00002C2002F0EDF8002002F0EAF8292002F063
:103B1000E7F8002002F0E4F8262002F0E1F80020A7
:103B200002F0DEF8242002F0DBF8002002F0D8F8E2
:103B3000242002F0D5F8002002F0D2F8232002F071
:103B4000CFF8002002F0CCF83C2002F0C9F80020A9
:103B500002F0C6F8362002F0C3F8002002F0C0F8E8
:103B6000322002F0BDF8002002F0BAF82F2002F057
:103B7000B7F8002002F0B4F82C2002F0B1F80020D1
:103B800002F0AEF8292002F0ABF8002002F0A8F80D
:103B9000262002F0A5F8002002F0A2F8242002F06E
:103BA0009FF8002002F09CF8242002F099F80020F1
:103BB00002F096F8232002F093F8002002F090F82B
:103BC000C42002F099F8622002F08AF8002002F086
:103BD00087F8052002F084F8002002F081F88420A4
:103BE00002F07EF8002002F07BF8F02002F078F876
:103BF000002002F075F8182002F072F8002002F0A0
:103C00006FF8A42002F06CF8002002F069F8182088
:103C100002F066F8002002F063F8502002F060F82D
:103C2000002002F05DF80C2002F05AF8002002F0AB
:103C300057F8172002F054F8002002F051F89520B0
:103C400002F04EF8002002F04BF8F32002F048F8A2
:103C5000002002F045F8E62002F042F8002002F0D1
:103C60003FF8C52002F048F8322002F039F8002071
:103C700002F036F8442002F033F8002002F030F869
:103C8000652002F02DF8002002F02AF8762002F0DC
:103C900027F8002002F024F8882002F021F8002004
:103CA00002F01EF8C62002F027F8202002F018F8D3
:103CB000002002F015F8172002F012F8002002F0A0
:103CC0000FF8012002F00CF8002002F009F8C720DC
:103CD00002F012F8002002F003F8002002F000F8D1
:103CE000002001F0FDFF002001F0FAFFC82002F0E3
:103CF00003F8002001F0F4FF002001F0F1FF0020A4
:103D000001F0EEFF002001F0EBFFC92001F0F4FF0D
:103D1000002001F0E5FF002001F0E2FF002001F0AB
:103D2000DFFF002001F0DCFF002001F0D9FF0020C0
:103D300001F0D6FF002001F0D3FF002001F0D0FFFA
:103D4000002001F0CDFF002001F0CAFF002001F0AB
:103D5000C7FF002001F0C4FF002001F0C1FF0020D8
:103D600001F0BEFF002001F0BBFF002001F0B8FF12
:103D7000E02001F0C1FF162001F0B2FF002001F0A9
:103D8000AFFF1C2001F0ACFF002001F0A9FF2120B3
:103D900001F0A6FF002001F0A3FF362001F0A0FFF4
:103DA000002001F09DFF462001F09AFF002001F065
:103DB00097FF522001F094FF002001F091FF642052
:103DC00001F08EFF002001F08BFF7A2001F088FFC8
:103DD000002001F085FF8B2001F082FF002001F020
:103DE0007FFF992001F07CFF002001F079FFA820DF
:103DF00001F076FF002001F073FFB92001F070FFA1
:103E0000002001F06DFFC42001F06AFF002001F0E6
:103E100067FFCA2001F064FF002001F061FFD2209B
:103E200001F05EFF002001F05BFFD92001F058FF98
:103E3000002001F055FFE02001F052FF002001F0CA
:103E40004FFFF32001F04CFF002001F049FFE1207B
:103E500001F052FF162001F043FF002001F040FF67
:103E60001C2001F03DFF002001F03AFF222001F06C
:103E700037FF002001F034FF362001F031FF002031
:103E800001F02EFF452001F02BFF002001F028FF5C
:103E9000522001F025FF002001F022FF642001F0F4
:103EA0001FFF002001F01CFF7A2001F019FF002005
:103EB00001F016FF8B2001F013FF002001F010FF2E
:103EC000992001F00DFF002001F00AFFA82001F069
:103ED00007FF002001F004FFB92001F001FF0020DE
:103EE00001F0FEFEC42001F0FBFE002001F0F8FE10
:103EF000CA2001F0F5FE002001F0F2FED22001F010
:103F0000EFFE002001F0ECFED82001F0E9FE0020D9
:103F100001F0E6FEE02001F0E3FE002001F0E0FE0B
:103F2000F32001F0DDFE002001F0DAFEE22001F0D6
:103F3000E3FE052001F0D4FE002001F0D1FE0B20AD
:103F400001F0CEFE002001F0CBFE1B2001F0C8FEE8
:103F5000002001F0C5FE342001F0C2FE002001F077
:103F6000BFFE442001F0BCFE002001F0B9FE4F204E
:103F700001F0B6FE002001F0B3FE612001F0B0FEBA
:103F8000002001F0ADFE792001F0AAFE002001F032
:103F9000A7FE882001F0A4FE002001F0A1FE9720DA
:103FA00001F09EFE002001F09BFEA62001F098FE8D
:103FB000002001F095FEB72001F092FE002001F0F4
:103FC0008FFEC22001F08CFE002001F089FEC72088
:103FD00001F086FE002001F083FED12001F080FE7A
:103FE000002001F07DFED62001F07AFE002001F0D5
:103FF00077FEDD2001F074FE002001F071FEF32059
:1040000001F06EFE002001F06BFEE32001F074FE73
:10401000052001F065FE002001F062FE0A2001F09B
:104020005FFE002001F05CFE1C2001F059FE002024
:1040300001F056FE332001F053FE002001F050FE47
:10404000442001F04DFE002001F04AFE502001F016
:1040500047FE002001F044FE622001F041FE0020F6
:1040600001F03EFE782001F03BFE002001F038FE1A
:10407000882001F035FE002001F032FE972001F08B
:104080002FFE002001F02CFEA62001F029FE0020CA
:1040900001F026FEB72001F023FE002001F020FEF3
:1040A000C22001F01DFE002001F01AFEC72001F021
:1040B00017FE002001F014FED12001F011FE0020B7
:1040C00001F00EFED52001F00BFE002001F008FEED
:1040D000DD2001F005FE002001F002FEF32001F0DA
:1040E000FFFD002001F0FCFDE42001F005FE0120B1
:1040F00001F0F6FD002001F0F3FD012001F0F0FDDC
:10410000002001F0EDFD022001F0EAFD002001F0A9
:10411000E7FD2A2001F0E4FD002001F0E1FD3C2054
:1041200001F0DEFD002001F0DBFD4B2001F0D8FDA9
:10413000002001F0D5FD5D2001F0D2FD002001F04E
:10414000CFFD742001F0CCFD002001F0C9FD8420DA
:1041500001F0C6FD002001F0C3FD932001F0C0FD79
:10416000002001F0BDFDA22001F0BAFD002001F009
:10417000B7FDB32001F0B4FD002001F0B1FDBE2079
:1041800001F0AEFD002001F0ABFDC42001F0A8FD60
:10419000002001F0A5FDCD2001F0A2FD002001F0DE
:1041A0009FFDD32001F09CFD002001F099FDDD2052
:1041B00001F096FD002001F093FDF32001F090FD49
:1041C000002001F08DFDE52001F096FD002001F0BA
:1041D00087FD002001F084FD002001F081FD00201A
:1041E00001F07EFD022001F07BFD002001F078FD52
:1041F000292001F075FD002001F072FD3C2001F046
:104200006FFD002001F06CFD4B2001F069FD0020E6
:1042100001F066FD5D2001F063FD002001F060FD0E
:10422000742001F05DFD002001F05AFD842001F0B2
:1042300057FD002001F054FD932001F051FD0020B6
:1042400001F04EFDA22001F04BFD002001F048FDE1
:10425000B32001F045FD002001F042FDBE2001F039
:104260003FFD002001F03CFDC42001F039FD00209D
:1042700001F036FDCD2001F033FD002001F030FDCE
:10428000D32001F02DFD002001F02AFDDC2001F0FB
:1042900027FD002001F024FDF32001F021FD002086
:1042A00001F01EFDE62001F027FD112001F018FDB0
:1042B000002001F015FD342001F012FD002001F076
:1042C0000FFD562001F00CFD002001F009FD7620C5
:1042D00001F006FD002001F003FD772001F000FD54
:1042E000002001F0FDFC662001F0FAFC002001F046
:1042F000F7FC882001F0F4FC002001F0F1FC99208B
:1043000001F0EEFC002001F0EBFCBB2001F0E8FC2A
:10431000002001F0E5FC992001F0E2FC002001F012
:10432000DFFC662001F0DCFC002001F0D9FC552008
:1043300001F0D6FC002001F0D3FC552001F0D0FCA8
:10434000002001F0CDFC452001F0CAFC002001F066
:10435000C7FC432001F0C4FC002001F0C1FC442054
:1043600001F0BEFC002001F0BBFCE72001F0C4FC22
:10437000322001F0B5FC002001F0B2FC552001F024
:10438000AFFC002001F0ACFC762001F0A9FC00207D
:1043900001F0A6FC662001F0A3FC002001F0A0FCC7
:1043A000672001F09DFC002001F09AFC672001F0DD
:1043B00097FC002001F094FC872001F091FC002084
:1043C00001F08EFC992001F08BFC002001F088FCAC
:1043D000BB2001F085FC002001F082FC992001F057
:1043E0007FFC002001F07CFC772001F079FC0020AC
:1043F00001F076FC442001F073FC002001F070FC19
:10440000562001F06DFC002001F06AFC232001F031
:1044100067FC002001F064FC332001F061FC002007
:1044200001F05EFC452001F05BFC002001F058FC2F
:10443000E82001F061FC002001F052FC002001F0B6
:104440004FFC992001F04CFC002001F049FC872032
:1044500001F046FC002001F043FC882001F040FC04
:10446000002001F03DFC772001F03AFC002001F033
:1044700037FC662001F034FC002001F031FC88207C
:1044800001F02EFC002001F02BFCAA2001F028FCFA
:10449000002001F025FCBB2001F022FC002001F0EF
:1044A0001FFC992001F01CFC002001F019FC662083
:1044B00001F016FC002001F013FC552001F010FC67
:1044C000002001F00DFC552001F00AFC002001F055
:1044D00007FC442001F004FC002001F001FC442012
:1044E00001F0FEFB002001F0FBFB552001F0F8FB82
:1044F000002001F0F5FBE92001F0FEFBAA2001F00D
:10450000EFFB002001F0ECFB002001F0E9FB0020B4
:1045100001F0E6FB002001F0EFFBAA2001F0E0FB38
:10452000CF2001F0E9FB002001F0DAFB002001F0D0
:10453000D7FB002001F0D4FB002001F0D1FB0020CC
:1045400001F0CEFB002001F0CBFB002001F0C8FB06
:10455000002001F0C5FB002001F0C2FB002001F0AB
:10456000BFFB002001F0BCFB002001F0B9FB0020E4
:1045700001F0B6FB002001F0B3FB002001F0B0FB1E
:10458000002001F0ADFB002001F0AAFBF02001F0BB
:10459000B3FB002001F0A4FB502001F0A1FB0020A0
:1045A00001F09EFB002001F09BFB002001F098FB36
:1045B000F32001F0A1FB002001F092FBF92001F0B3
:1045C0009BFB062001F08CFB102001F089FB2920C9
:1045D00001F086FB002001F083FB3A2001F08CFB08
:1045E000552001F07DFB112001F086FB642003F0D3
:1045F00083F8292001F080FB352001F07DFB0020AD
:1046000001F06EFB512001F077FBFF2001F068FB09
:10461000532001F071FB2C2001F062FB552001F0CA
:104620006BFB822001F05CFB2C2001F065FB01F0AC
:1046300048B8FE48808845F2105188427ED1552105
:104640004FF4704001F06EFBAA214FF2010001F01F
:1046500069FB52214FF2020001F064FB08214FF286
:10466000030001F05FFB01214FF2040001F05AFB4F
:104670000D214FF4304001F055FB0D214BF20100AC
:1046800001F050FB0D214BF2020001F04BFB3421F5
:104690004FF4364001F046FB34214BF2016001F04B
:1046A00041FB34214BF2026001F03CFB0D214FF441
:1046B000314001F037FB0D214BF2011001F032FBCC
:1046C0000D214BF2021001F02DFB34214FF4374045
:1046D00001F028FB34214BF2017001F023FB34215F
:1046E0004BF2027001F01EFB00214FF4324001F04A
:1046F00019FB00214BF2012001F014FB00214BF2C9
:10470000022001F00FFB24214FF4384001F00AFB96
:1047100024214BF6010001F005FB24214BF6020099
:1047200001F000FB01214FF43F4001F0FBFA0F21A3
:104730004FF4334001F0F6FA0F2100E0FEE34BF2B4
:10474000013001F0EFFA0F214BF2023001F0EAFAEA
:1047500034214FF4394001F0E5FA34214BF60110D1
:1047600001F0E0FA34214BF6021001F0DBFA0821E7
:104770004FF4354001F0D6FA08214BF2015001F018
:10478000D1FA08214BF2025001F0CCFA03214FF488
:10479000424001F0C7FA24214FF43A4001F0C2FA36
:1047A00024214BF6012001F0BDFA24214BF6022012
:1047B00001F0B8FA00214FF43C4001F0B3FA78213F
:1047C0004BF6014001F0AEFA00214BF6024001F039
:1047D000A9FA00214FF43D4001F0A4FA78214BF6EC
:1047E000015001F09FFA00214BF6025001F09AFAB5
:1047F00000214FF43E4001F095FA64214BF6016030
:1048000001F090FA00214FF4514001F08BFA33216E
:104810004DF2011001F086FA00214DF2021001F074
:1048200081FA34214DF2031001F07CFA00214DF29F
:10483000041001F077FA3A214DF2051001F072FAF6
:1048400000214DF2061001F06DFA4A214DF20710D9
:1048500001F068FA00214DF2081001F063FA5C21C2
:104860004DF2091001F05EFA00214DF20A1001F03C
:1048700059FA81214DF20B1001F054FA00214DF24A
:104880000C1001F04FFAA6214DF20D1001F04AFA7A
:1048900000214DF20E1001F045FAE5214DF20F1006
:1048A00001F040FA01214DF2101001F03BFA132102
:1048B0004DF2111001F036FA01214DF2121001F003
:1048C00031FA54214DF2131001F02CFA01214DF26E
:1048D000141001F027FA82214DF2151001F022FA8E
:1048E00001214DF2161001F01DFACA214DF21710E8
:1048F00001F018FA02214DF2181001F013FA00210C
:104900004DF2191001F00EFA02214DF21A1001F0C9
:1049100009FA01214DF21B1001F004FA02214DF2B7
:104920001C1001F0FFF934214DF21D1001F0FAF9CD
:1049300002214DF21E1001F0F5F967214DF21F1012
:1049400001F0F0F902214DF2201001F0EBF9842181
:104950004DF2211001F0E6F902214DF2221001F092
:10496000E1F9A4214DF2231001F0DCF902214DF20E
:10497000241001F0D7F9B7214DF2251001F0D2F93A
:1049800002214DF2261001F0CDF9CF214DF2271072
:1049900001F0C8F902214DF2281001F0C3F9DE211F
:1049A0004DF2291001F0BEF902214DF22A1001F05A
:1049B000B9F9F2214DF22B1001F0B4F902214DF2B8
:1049C0002C1001F0AFF9FE214DF22D1001F0AAF9E3
:1049D00003214DF22E1001F0A5F910214DF22F10F8
:1049E00001F0A0F903214DF2301001F09BF93321C1
:1049F0004DF2311001F096F903214DF2321001F021
:104A000091F96D214DF2331001F08CF900214FF432
:104A1000524001F087F933214DF2012001F082F973
:104A200000214DF2022001F07DF901E0B8010020E3
:104A300034214DF2032001F075F900214DF20420DC
:104A400001F070F93A214DF2052001F06BF90021D7
:104A50004DF2062001F066F94A214DF2072001F0DF
:104A600061F900214DF2082001F05CF95C214DF262
:104A7000092001F057F900214DF20A2001F052F906
:104A800081214DF20B2001F04DF900214DF20C2057
:104A900001F048F9A6214DF20D2001F043F9002163
:104AA0004DF20E2001F03EF9E5214DF20F2001F00C
:104AB00039F901214DF2102001F034F913214DF2A2
:104AC000112001F02FF901214DF2122001F02AF9F5
:104AD00054214DF2132001F025F901214DF214204B
:104AE00001F020F982214DF2152001F01BF901217E
:104AF0004DF2162001F016F9CA214DF2172001F0EF
:104B000011F902214DF2182001F00CF900214DF2AB
:104B1000192001F007F902214DF21A2001F002F9E3
:104B200001214DF21B2001F0FDF802214DF21C2065
:104B300001F0F8F834214DF21D2001F0F3F80221C4
:104B40004DF21E2001F0EEF867214DF21F2001F01A
:104B5000E9F802214DF2202001F0E4F884214DF221
:104B6000212001F0DFF802214DF2222001F0DAF8D5
:104B7000A4214DF2232001F0D5F802214DF224208A
:104B800001F0D0F8B7214DF2252001F0CBF8022139
:104B90004DF2262001F0C6F8CF214DF2272001F07A
:104BA000C1F802214DF2282001F0BCF8DE214DF2BF
:104BB000292001F0B7F802214DF22A2001F0B2F8C5
:104BC000F2214DF22B2001F0ADF802214DF22C2004
:104BD00001F0A8F8FE214DF22D2001F0A3F80321E9
:104BE0004DF22E2001F09EF810214DF22F2001F001
:104BF00099F803214DF2302001F094F833214DF261
:104C0000312001F08FF803214DF2322001F08AF8B3
:104C10006D214DF2332001F085F800214FF453400F
:104C200001F080F833214DF2013001F07BF80021D2
:104C30004DF2023001F076F834214DF2033001F0EC
:104C400071F800214DF2043001F06CF83A214DF278
:104C5000053001F067F800214DF2063001F062F8EE
:104C60004A214DF2073001F05DF800214DF2083085
:104C700001F058F85C214DF2093001F053F80021A1
:104C80004DF20A3001F04EF881214DF20B3001F067
:104C900049F800214DF20C3001F044F8A6214DF204
:104CA0000D3001F03FF800214DF20E3001F03AF8DE
:104CB000E5214DF20F3001F035F801214DF21030B1
:104CC00001F030F813214DF2113001F02BF80121E1
:104CD0004DF2123001F026F854214DF2133001F05C
:104CE00021F801214DF2143001F01CF882214DF21F
:104CF000153001F017F801214DF2163001F012F8CD
:104D0000CA214DF2173001F00DF802214DF2183092
:104D100001F008F800214DF2193001F003F80221EA
:104D20004DF21A3000F0FEFF01214DF21B3000F071
:104D3000F9FF02214DF21C3000F0F4FF34214DF256
:104D40001D3000F0EFFF02214DF21E3000F0EAFFAF
:104D500067214DF21F3000F0E5FF02214DF22030B7
:104D600000F0E0FF84214DF2213000F0DBFF022152
:104D70004DF2223000F0D6FFA4214DF2233000F096
:104D8000D1FF02214DF2243000F0CCFFB7214DF2CB
:104D9000253000F0C7FF02214DF2263000F0C2FF9F
:104DA000CF214DF2273000F0BDFF02214DF2283017
:104DB00000F0B8FFDE214DF2293000F0B3FF0221F0
:104DC0004DF22A3000F0AEFFF2214DF22B3000F010
:104DD000A9FF02214DF22C3000F0A4FFFE214DF27C
:104DE0002D3000F09FFF03214DF22E3000F09AFF8E
:104DF00010214DF22F3000F095FF03214DF230309D
:104E000000F090FF33214DF2313000F08BFF032191
:104E10004DF2323000F086FF6D214DF2333000F05C
:104E200081FF00214FF4544000F07CFF33214DF20C
:104E3000014000F077FF00214DF2024000F072FFC8
:104E400034214DF2034000F06DFF00214DF204408B
:104E500000F068FF3A214DF2054000F063FF0021A9
:104E60004DF2064000F05EFF4A214DF2074000F08F
:104E700059FF00214DF2084000F054FF5C214DF233
:104E8000094000F04FFF00214DF20A4000F04AFFB8
:104E900081214DF20B4000F045FF00214DF20C4006
:104EA00000F040FFA6214DF20D4000F03BFF002135
:104EB0004DF20E4000F036FFE5214DF20F4000F0BC
:104EC00031FF01214DF2104000F02CFF13214DF273
:104ED000114000F027FF01214DF2124000F022FFA7
:104EE00054214DF2134000F01DFF01214DF21440FA
:104EF00000F018FF82214DF2154000F013FF012150
:104F00004DF2164000F00EFFCA214DF2174000F09E
:104F100009FF02214DF2184000F004FF00214DF27C
:104F2000194000F0FFFE02214DF21A4000F0FAFE97
:104F300001214DF21B4000F0F5FE00E003E30221E9
:104F40004DF21C4000F0EEFE34214DF21D4000F009
:104F5000E9FE02214DF21E4000F0E4FE67214DF211
:104F60001F4000F0DFFE02214DF2204000F0DAFE8B
:104F700084214DF2214000F0D5FE02214DF2224065
:104F800000F0D0FEA4214DF2234000F0CBFE022120
:104F90004DF2244000F0C6FEB7214DF2254000F04E
:104FA000C1FE02214DF2264000F0BCFECF214DF2A1
:104FB000274000F0B7FE02214DF2284000F0B2FE7B
:104FC000DE214DF2294000F0ADFE02214DF22A40D3
:104FD00000F0A8FEF2214DF22B4000F0A3FE0221CA
:104FE0004DF22C4000F09EFEFE214DF22D4000F0CF
:104FF00099FE03214DF22E4000F094FE10214DF257
:105000002F4000F08FFE03214DF2304000F08AFE69
:1050100033214DF2314000F085FE03214DF2324044
:1050200000F080FE6D214DF2334000F07BFE002148
:105030004FF4554000F076FE33214DF2015000F060
:1050400071FE00214DF2025000F06CFE34214DF251
:10505000035000F067FE00214DF2045000F062FEA4
:105060003A214DF2055000F05DFE00214DF2065050
:1050700000F058FE4A214DF2075000F053FE002187
:105080004DF2085000F04EFE5C214DF2095000F048
:1050900049FE00214DF20A5000F044FE81214DF2FC
:1050A0000B5000F03FFE00214DF20C5000F03AFE94
:1050B000A6214DF20D5000F035FE00214DF20E50AC
:1050C00000F030FEE5214DF20F5000F02BFE0121E3
:1050D0004DF2105000F026FE13214DF2115000F059
:1050E00021FE01214DF2125000F01CFE54214DF220
:1050F000135000F017FE01214DF2145000F012FE83
:1051000082214DF2155000F00DFE01214DF2165096
:1051100000F008FECA214DF2175000F003FE0221F4
:105120004DF2185000F0FEFD00214DF2195000F034
:10513000F9FD02214DF21A5000F0F4FD01214DF26B
:105140001B5000F0EFFD02214DF21C5000F0EAFD73
:1051500034214DF21D5000F0E5FD02214DF21E50AC
:1051600000F0E0FD67214DF21F5000F0DBFD022151
:105170004DF2205000F0D6FD84214DF2215000F078
:10518000D1FD02214DF2225000F0CCFDA4214DF2C0
:10519000235000F0C7FD02214DF2245000F0C2FD63
:1051A000B7214DF2255000F0BDFD02214DF22650F1
:1051B00000F0B8FDCF214DF2275000F0B3FD0221E1
:1051C0004DF2285000F0AEFDDE214DF2295000F0E6
:1051D000A9FD02214DF22A5000F0A4FDF2214DF26A
:1051E0002B5000F09FFD02214DF22C5000F09AFD53
:1051F000FE214DF22D5000F095FD03214DF22E5071
:1052000000F090FD10214DF22F5000F08BFD032196
:105210004DF2305000F086FD33214DF2315000F058
:1052200081FD03214DF2325000F07CFD6D214DF2E5
:10523000335000F077FD00214FF4564000F072FD2E
:1052400033214DF2016000F06DFD00214DF202604E
:1052500000F068FD34214DF2036000F063FD002191
:105260004DF2046000F05EFD3A214DF2056000F061
:1052700059FD00214DF2066000F054FD4A214DF227
:10528000076000F04FFD00214DF2086000F04AFD7C
:105290005C214DF2096000F045FD00214DF20A60ED
:1052A00000F040FD81214DF20B6000F03BFD00213C
:1052B0004DF20C6000F036FDA6214DF20D6000F0BD
:1052C00031FD00214DF20E6000F02CFDE5214DF284
:1052D0000F6000F027FD01214DF2106000F022FD6B
:1052E00013214DF2116000F01DFD01214DF21260FD
:1052F00000F018FD54214DF2136000F013FD012160
:105300004DF2146000F00EFD82214DF2156000F0A8
:1053100009FD01214DF2166000F004FDCA214DF295
:10532000176000F0FFFC02214DF2186000F0FAFC5B
:1053300000214DF2196000F0F5FC02214DF21A60D7
:1053400000F0F0FC01214DF21B6000F0EBFC0221AB
:105350004DF21C6000F0E6FC34214DF21D6000F0BF
:10536000E1FC02214DF21E6000F0DCFC67214DF2F1
:105370001F6000F0D7FC02214DF2206000F0D2FC4B
:1053800084214DF2216000F0CDFC02214DF222601B
:1053900000F0C8FCA4214DF2236000F0C3FC022100
:1053A0004DF2246000F0BEFCB7214DF2256000F004
:1053B000B9FC02214DF2266000F0B4FCCF214DF281
:1053C000276000F0AFFC02214DF2286000F0AAFC3B
:1053D000DE214DF2296000F0A5FC02214DF22A6089
:1053E00000F0A0FCF2214DF22B6000F09BFC0221AA
:1053F0004DF22C6000F096FCFE214DF22D6000F085
:1054000091FC03214DF22E6000F08CFC10214DF236
:105410002F6000F087FC03214DF2306000F082FC29
:1054200033214DF2316000F07DFC03214DF23260FA
:1054300000F078FC6D214DF2336000F073FC5521D3
:105440004FF4704000F06EFCAA214FF2010000F012
:1054500069FC52214FF2020000F064FC08214FF277
:10546000030000F05FFC00214FF2040000F05AFC42
:10547000CC214FF4314000F055FC00214BF20110DB
:1054800000F050FC05214FF4364000F04BFC702139
:105490004FF4374000F046FC70214BF2017000F0F1
:1054A00041FC01214FF4384000F03CFC03214BF655
:1054B000010000F037FC03214BF6020000F032FC43
:1054C00003214BF6030000F02DFC02214FF43C4079
:1054D00000F028FC00214BF6014000F023FC0021E5
:1054E0004BF6024000F01EFCD0214FF4494000F082
:1054F00019FC02214CF6011000F014FC50214CF66E
:10550000021000F00FFC50214CF6031000F00AFCD2
:1055100050214CF6041000F005FC00214FF45450CB
:1055200000F000FC55214FF4685000F0FBFB4FF4F5
:10553000885000F0E1FB782002F0EAF84FF42450A4
:1055400000F0DAFBBDE06548808841F663118842CF
:10555000F8D1E22000F0D0FB1D2000F0C1FB0220BA
:1055600000F0BEFB042000F0BBFB642002F0D0F88A
:10557000E02000F0C1FB012000F0B2FB0A2002F0A5
:10558000BBF8E02000F0B8FB032000F0A9FB0C20E2
:1055900002F0B2F8012000F0AFFB0A2002F0ACF8F4
:1055A000E62000F0A9FB2F2000F09AFBFF2000F07E
:1055B00097FBFF2000F094FBB02000F09DFB202023
:1055C00000F08EFB002000F08BFB032000F088FB36
:1055D00040F21F3000F084FB012000F081FB40F21C
:1055E000DF1000F07DFB002000F07AFBB42000F01B
:1055F00083FB042000F074FB40F21F4000F070FBBE
:10560000002000F06DFB2E2000F06AFB002000F06F
:1056100067FB002000F064FB002000F061FB00202D
:1056200000F05EFBB62000F067FB022000F058FBA4
:105630004FF4037000F054FB002000F051FB1720E2
:1056400000F04EFB152000F04BFB002000F048FB63
:10565000002000F045FBF02000F04EFB032000F09E
:105660003FFB292000F048FBD02000F045FB002044
:1056700000F036FBBE2000F03FFB052000F030FBC1
:10568000FE2000F02DFB012000F02AFB002000F09E
:1056900027FB002000F024FB002000F021FBB820B5
:1056A00000F02AFB032000F01BFB012000F018FB98
:1056B000BA2000F021FB012000F012FB642000F072
:1056C00027F80020FDF708FB0120054908604FF688
:1056D000FF70FDF7E7FA13B000BD0000B80100202D
:1056E0008081214210B50246012000E050430B00AA
:1056F000A1F10104E1B2F9D110BD000008B50348E1
:1057000000880090BDF8000008BD00000008006C93
:105710002DE9F0470446BE2000F0EEFA052000F027
:10572000DFFA204602F018FB07464FF066320C4BBA
:1057300002F062FB054602F0CBFA1FFA80F94846F8
:1057400000F0CEFA012000F0CBFAFF2000F0C8FAFA
:10575000002000F0C5FA002000F0C2FABDE8F08792
:1057600066660440F0B50546002400278948807924
:10577000012805D18748808841F66311884208D105
:1057800084488079F0B98348808841F66311884263
:1057900018D1082D15D2DFE805F00406080A0C0E12
:1057A000101206250DE007250BE0042509E005256C
:1057B00007E0012505E0002503E0032501E00225BF
:1057C00000BF00BF082D1CD2DFE805F00406090C5D
:1057D0000F12151800BF14E044F0800411E044F0EB
:1057E00040040EE044F0C0040BE044F0200408E064
:1057F00044F0600405E044F0A00402E044F0E0045A
:1058000000BF00BF6348808845F21051884202D132
:105810004FF4585700E036275E48808849F24131FE
:10582000884205D05B48808847F28971884201D15F
:1058300044F008042146384600F074FA5548808840
:1058400041F6631188421DD004F0200068B1514830
:10585000008850494988884214DA4E4806884088B2
:105860004C490880084646800CE04A48008849496F
:105870004988884206DD47480688408845490880AF
:10588000084646804348808845F21051884252D1EC
:105890004049488900F030FA002000F021FA3D49E3
:1058A0004989491C88B200F027FA002000F018FA54
:1058B00038494989891C88B200F01EFA354909889F
:1058C000491EC1F30F2000F00BFA32494989C91C67
:1058D00088B200F011FA2F490978491EC8B200F0C9
:1058E000FFF92C49888900F007FA002000F0F8F948
:1058F00028498989491C88B200F0FEF9002000F08F
:10590000EFF924498989891C88B200F0F5F9214909
:105910004988491EC1F30F2000F0E2F91D49898929
:10592000C91C88B200F0E8F91A498978491EC8B242
:1059300000F0D6F92DE01749488900F0DDF9002084
:1059400000F0CEF9002000F0CBF912490988491E79
:10595000C1F30F2000F0C4F90E490978491EC8B2FE
:1059600000F0BEF90B49888900F0C6F9002000F06C
:10597000B7F9002000F0B4F906494988491EC1F37F
:105980000F2000F0ADF903498978491EC8B200F034
:10599000A7F9F0BDB801002010B502460C464548F5
:1059A000808841F66311884247D142488079A8B97E
:1059B00040480088401E801A82B23E49488900F063
:1059C0009BF9002000F08CF9002000F089F91012FA
:1059D00000F086F9D0B200F083F916E03549488925
:1059E00000F08AF9101200F07BF9D0B200F078F9DB
:1059F00030490988491EC1F30F2000F071F92D4983
:105A00000978491EC8B200F06BF92A49888900F06C
:105A100073F9201200F064F9E0B200F061F9254951
:105A20004988491EC1F30F2000F05AF921498978AD
:105A3000491EC8B200F054F93AE01E48808845F289
:105A40001051884220D11B49488900F055F91012A5
:105A500000F046F917494989491C88B200F04CF911
:105A6000D0B200F03DF91349888900F045F92012C1
:105A700000F036F90F498989491C88B200F03CF9D9
:105A8000E0B200F02DF913E00A49488900F034F93A
:105A9000101200F025F9D0B200F022F905498889EA
:105AA00000F02AF9201200F01BF9E0B200F018F91A
:105AB00010BD0000B80100202DE9F84F80460E46C9
:105AC00017461C46B3462046E31704EB5373DB101E
:105AD00021464FEAE47C04EB5C7C4FEAEC0CA4EB3F
