:020000040800F2
:10000000B0AE002021020008575500086F240008F8
:1000100055550008C3090008DD660008000000000F
:100020000000000000000000000000003F58000831
:10003000910C0008000000003D5800088558000899
:100040003B0200083B0200083B0200083B0200089C
:100050003B0200083B0200083B0200083B0200088C
:100060003B0200083B0200083B0200083B0200087C
:100070003B0200083B0200083B0200083B0200086C
:100080003B0200083B0200083B0200083B0200085C
:100090003B0200083B0200083B0200083B0200084C
:1000A0003B0200083B0200083B0200083B0200083C
:1000B0003B020008D15800083B0200083B02000840
:1000C0003B0200083B0200083B0200083B0200081C
:1000D0003B020008B16600083B0200083B02000832
:1000E0003B0200083B0200083B0200083B020008FC
:1000F0003B0200083B0200083B0200083B020008EC
:100100003B0200083B0200083B0200083B020008DB
:100110003B0200083B0200083B0200083B020008CB
:100120003B0200083B0200083B0200083B020008BB
:1001300000F002F800F065F80AA090E8000C824494
:100140008344AAF10107DA4501D100F05AF8AFF271
:10015000090EBAE80F0013F0010F18BFFB1A43F0A5
:1001600001031847C0FA0200E0FA02000A444FF007
:10017000000C10F8013B13F0070408BF10F8014B06
:100180001D1108BF10F8015B641E05D010F8016B4B
:10019000641E01F8016BF9D113F0080F1EBF10F8AF
:1001A000014BAD1C0C1B09D16D1E58BF01F801CBD2
:1001B000FAD505E014F8016B01F8016B6D1EF9D555
:1001C0009142D6D37047000000230024002500266A
:1001D000103A28BF78C1FBD8520728BF30C148BFAA
:1001E0000B607047642900F01D81782900F056816A
:1001F000732900F01B83002070471FB51FBD10B589
:1002000010BD00F04DFB1146FFF7F7FF24F072FB25
:1002100000F06BFB03B4FFF7F2FF03BC07F0D5FF60
:100220000948804709480047FEE7FEE7FEE7FEE78A
:10023000FEE7FEE7FEE7FEE7FEE7FEE704480549C6
:10024000054A064B70470000895800083101000834
:10025000B0960020B0AE0020B09E0020B09E0020DE
:10026000704753EA020C00F069802DE9F04B4FF023
:100270000006002B1FBFB3FA83F503FA05F424FA36
:1002800005F65E4012BF1643B2FA82F502FA05F493
:10029000C5F120051EBF22FA05FC44EA0C042035F6
:1002A00056EA044C4FEA144418BF641C4FF000088F
:1002B0004FF00009904271EB030C39D3002919BFAC
:1002C000B1FA81F701FA07F6B0FA80F700FA07F6FB
:1002D000C7F120071EBF20FA07FC46EA0C062037AC
:1002E000B6FBF4FCA7EB0507103F07F01F0BCBF1A3
:1002F00020060CFA0BFB2CFA06F644BFB346002688
:10030000202FA4BF5E464FF0000B5BEA060C08BF2F
:100310004FF0010B19EB0B09ABFB027C48EB060815
:10032000C01B06FB02CC0BFB03CC71EB0C01C1E73D
:100330000B46024641464846BDE8F08B13B54FF0E8
:1003400000004FF00001AFF30080BDE81C40704793
:100350000FB4044910B503AA029800F06BFA10BC60
:100360005DF814FB180000202DE9F0410E4604460C
:10037000002020622046E168884730B3252805D058
:10038000D4E901219047206A401CF2E7E168204649
:1003900000278847050018D0A5F14100192802D888
:1003A00020354FF400673246294620462760FFF784
:1003B00019FF40B1012804D0F61D26F007060836C3
:1003C000D8E7361DD6E72846DAE7206ABDE8F0818F
:1003D00070B50C460546012A05D02878800600D560
:1003E000EA69002302E0012305E05B1C934202D28C
:1003F000E05C0028F9D1A869E618C01AA861286A4B
:10040000184428622846AFF3008004E0D5E90121B2
:1004100014F8010B9047B442F8D32846AFF300809C
:1004200070BD00002DE9F0410646002410687529D2
:10043000314616A510D0AFF30080002802DA404202
:1004400013A507E031688A0701D512A502E0490724
:1004500004D511A5012401E0AFF3008000210A2298
:1004600006F1240709E0B0FBF2FCB0FBF2F302FB5B
:100470001C00303078541846491C0028F3D123461C
:100480002A463046BDE8F04100F065B900000000A2
:100490002D0000002B0000002000000070B5044675
:1004A0000D4621461068AFF300802188090502D56A
:1004B0000F4A7A4402E00E4A7A440E32002104F1D7
:1004C000240305E000F00F060009965D5E54491C08
:1004D0000028F7D120780023000704D5702D02D022
:1004E00009B1022311322046BDE8704000F033B953
:1004F000FEF1020040EA0103024630B59B0710D12D
:100500004FF0013400E008C208C91D1B9D4315EAE5
:10051000C41FF8D013F0FF0102F8011B0DD01B0A15
:10052000F8E711F8013B002B02F8013B05D011F868
:10053000013B002B02F8013BF3D130BD10B5431C49
:1005400002E010F8011B71B18107FAD14FF00132BE
:1005500002C88C1A8C4314EAC211F9D0C01A0A06D8
:1005600003D0C01E10BDC01A10BD0A0401D0801EE9
:1005700010BD0902FCD0401E10BD032A40F230809D
:1005800010F0030C00F0158011F8013BBCF1020FD4
:10059000624498BF11F801CB00F8013B38BF11F855
:1005A000013BA2F1040298BF00F801CB38BF00F86C
:1005B000013B11F0030300F02580083AC0F00880E9
:1005C00051F8043B083A51F804CBA0E80810F5E7CD
:1005D000121D5CBF51F8043B40F8043BAFF30080B0
:1005E000D20724BF11F8013B11F801CB48BF11F825
:1005F000012B24BF00F8013B00F801CB48BF00F8F5
:10060000012B704710B5203AC0F00B80B1E81850AC
:10061000203AA0E81850B1E81850A0E81850BFF4EC
:10062000F5AF5FEA027C24BFB1E81850A0E818508B
:1006300044BF18C918C0BDE810405FEA827C24BFDF
:1006400051F8043B40F8043B08BF7047D20728BF6D
:1006500031F8023B48BF11F8012B28BF20F8023BBC
:1006600048BF00F8012B70474FF0000200B5134659
:1006700094469646203922BFA0E80C50A0E80C50C2
:10068000B1F12001BFF4F7AF090728BFA0E80C5073
:1006900048BF0CC05DF804EB890028BF40F8042B6C
:1006A00008BF704748BF20F8022B11F0804F18BFD9
:1006B00000F8012B704700004FF0013C50F8042B6C
:1006C00051F8043B9A4221D1A2EB0C03934313EA65
:1006D000CC1317D150F8042B51F8043B9A4215D192
:1006E000A2EB0C03934313EACC130BD150F8042B69
:1006F00051F8043B9A4209D1A2EB0C03934313EA4D
:10070000CC13DBD04FF00000704700BFD01A01BA05
:10071000B1FA81F101F0180122FA01F0CB40C1F1E8
:100720002001DBB2C0B2C01A2CFA01F3D11A9143F6
:1007300011EAC311E6D170477047704770477047A0
:1007400010B500F089F8006810BD10B5044600F03F
:1007500083F8046010BD2DE9F0470D469946924696
:10076000044600F124080168880604D5E06921F0F8
:100770001001216000E00120A84201DD471B00E0DC
:100780000027A1697A1902EB0900081AA0612078F4
:10079000C00602D42046AFF30080002608E0D4E96A
:1007A00001211AF806009047206A401C761C20623E
:1007B0004E45F4DB2078C0060AD52046AFF3008012
:1007C00006E0D4E9012130209047206A401C2062D5
:1007D000381EA7F10107F4DC07E0D4E9012118F87D
:1007E00005009047206A401C2062281EA5F10105E3
:1007F000F3DC2046AFF300802078000602D502200B
:10080000BDE8F0870120FBE710B5436913B1AFF3F2
:10081000008001E0FFF7DCFD012010BD127800F13F
:1008200024010A7000224A700122EDE711684FF09E
:10083000FF32E9E7074B70B50D467B4400F015F831
:100840000446284600F024F810B14FF0FF3070BD88
:10085000204670BDFF130100004870474C960020F1
:1008600001694A1C02610878704700B58FB0CDE974
:1008700001310021059105497944CDE90310114664
:100880006846FFF771FD0FB000BD0000E5FFFFFFF8
:10089000007B00F080007047004870474C960020B5
:1008A0007546FFF7F9FFAE4605006946534620F04E
:1008B0000700854618B020B5FFF7C0FCBDE8204012
:1008C0004FF000064FF000074FF000084FF0000B0C
:1008D00021F00701AC46ACE8C009ACE8C009ACE8BF
:1008E000C009ACE8C0098D46704710B50446AFF3A7
:1008F00000802046BDE81040FFF78CBC01F0D8BD59
:1009000070B514460D46064608E03046711C8EB29E
:1009100000F007F8641E05F8010BA4B2002CF4D116
:1009200070BD10B5044601F06DFE200AA02101EB58
:100930004000C0B201F036FE01F0A6FEE0B201F0C8
:1009400031FE01F0A1FE01F05DFEA12001F02AFEC2
:1009500001F09AFE002001F0EFFD044601F072FE66
:10096000204610BD70B516460C46054606E02178B7
:10097000284600F007F86D1CADB2641C761EB6B2B6
:10098000F5D270BD70B50D46044601F03BFE200A5D
:10099000A02101EB4000C0B201F004FE01F074FEA2
:1009A000E0B201F0FFFD01F06FFE284601F0FAFD14
:1009B00001F06AFE01F046FEBDE870400A2009F031
:1009C000D5BAFEE770B50F4C0025C4F884510E4827
:1009D000016821F0F0010160016841F0300101601F
:1009E000052004F5C27409F0CFFA0848C0F8A451F4
:1009F000052009F0C9FA01202060052009F0C4FA99
:100A0000256070BD00802142041C0140008023420B
:100A1000154810B5816986B041F00801816181698E
:100A200001F008010491816941F0800181618069D0
:100A3000012400F0800004900220CDE9000403208E
:100A4000CDE902406946094800F010FE60020090BE
:100A50006946074800F00AFE0648C0F88441064887
:100A6000C0F8A44106B010BD00100240000C0140C7
:100A7000001C0140008021420080234270B50F4CD1
:100A80000025C4F884510E48016821F0F00101608E
:100A9000016841F030010160052004F5C27409F0DD
:100AA00073FA08480126C0F8A461052009F06CFA21
:100AB0002660052009F068FA256070BD008021429B
:100AC000041C0140008023422DE9F047824619486A
:100AD0000024016821F0F0010160016841F080010B
:100AE00001601E2009F050FA0025134EDFF84C90EB
:100AF0002F464FF0010800BFC6F88471052009F0A9
:100B000043FAC6F884816006040ED9F8240108B1BE
:100B1000641CE4B26D1CEDB2082DEDD3BAF1000FE8
:100B200004D0FFF74FFF2046BDE8F087FFF7A6FF90
:100B3000F9E70000041C01400080214200802342AC
:100B40002DE9F04706461548016821F0F0010160E3
:100B5000016841F030010160114D0027C5F8847132
:100B6000052009F011FADFF83C8000244FF001095C
:100B7000F109C8F8A4117006060EC5F88491052085
:100B800009F002FAC5F88471052009F0FDF9641C2A
:100B9000E4B2082CECD3BDE8F0870000041C01404F
:100BA000008021420080234270B50F48016821F087
:100BB000F0010160016841F0300101600B4C01203F
:100BC000C4F8A4010A4DC5F884011E2004F5D274AE
:100BD00005F5C27509F0D8F900262660052009F050
:100BE000D3F92E6070BD0000041C01400080234238
:100BF0000080214270B50D48016821F0F0010160CC
:100C0000016841F03001016009480125C0F88451B4
:100C10001E2009F0B9F9074C0020C4F8A4010520F2
:100C200004F5D27409F0B0F9256070BD041C0140D0
:100C3000008021420080234270B5124800240168E0
:100C400021F0F0010160016841F0800101600E4E69
:100C50000120C6F8A4010D4DC5F8840107E0641C0D
:100C6000E4B2FA2C03D9FFF7C5FF012070BD0520BF
:100C700009F08AF9D6F824010028F0D1C5F88401DA
:100C800070BD0000041C014000802342008021420E
:100C90007047000030B5B3F5804F05D06FF070415C
:100CA00040F82210002030BD8C690B688D6823430A
:100CB0004C688989240144EA0524234343EA01411D
:100CC00050F82230014C23401943E9E70000F0CFEF
:100CD00010B50A6850F8223023F0010340F82230A2
:100CE0008C68082C23D000234A682243CC681C431C
:100CF0000B6922431A434B691A438B691A43CB6928
:100D00001A430B6A1A434B6A1A438B6A1A43CB6A1B
:100D10001A430B6B1A434B6B09681A4350F8213086
:100D2000044C23401A4340F82120002010BD4023EA
:100D3000DAE700008000F0FF30B5D1E9003443EA83
:100D400004138C688D89240244EA054423430C8AE9
:100D5000094D00EB820005EB045423430C7D6D012B
:100D600005EB0464896923430B43416801F040416A
:100D70000B434360002030BD0000F0FF70B54448D5
:100D800088B0816941F0800181618069012500F0AE
:100D9000800006904FF40060CDE902050320CDE904
:100DA00004503C4E02A9304600F060FCA80200242A
:100DB000CDE9020402A9304600F058FCFFF728FEF6
:100DC000354EC6F8AC41142006F5D67609F0CEF8BB
:100DD0003560322009F0CAF88DF8004001226946DA
:100DE000002000F0BBF901226946A42000F0B6F90A
:100DF00016208DF8000001226946802000F0AEF92F
:100E00000C208DF8000001226946882000F0A6F928
:100E100002226946A12000F04FF89DF8000030281A
:100E200003D19DF8010003282BD00422694648F223
:100E3000401000F043FA8DF80440694617A0FFF710
:100E400087FA1948009948F24005C0F802100220BC
:100E50008DF8000001226946284600F045FB01227A
:100E60006946E81D00F02AFA0A2009F07FF88DF89B
:100E7000004001226946284600F036FB08B00020F9
:100E800070BD43F2030109A0FFF762FAF6E7000024
:100E900000100240001C01400080234243545020B7
:100EA00049443A25730D0A00240000204354502081
:100EB00049443A25780D0A002DE9F04115460E46C1
:100EC0000446FFF771FE7020FFF73AFEFFF7B4FE0D
:100ED000E0B2FFF735FEFFF7AFFEFFF765FE7120CA
:100EE000FFF72EFEFFF7A8FE00246F1E09E0BC42AC
:100EF00001D0012000E00020FFF7E6FD3055641C22
:100F0000E4B2AC42F3D3BDE8F041FFF773BE00009A
:100F10002DE9F14783B000268B4D8DF804604FF02A
:100F20000A096878894C401CC0B2B0FBF9F209FB91
:100F300012013746687009B10A2871D2824884A12B
:100F4000801CFFF7B9FB4FF0010203A910B3022088
:100F5000FFF7B2FF9DF80C00010761D0297800F07F
:100F60000F028A425CD8FF209040C04394F8208052
:100F700040F0C00084F8200004EB4100A2894281C7
:100F8000E18A8182042008F0F1FF8DF80460DFF827
:100F9000C4A185E048F24E18404600F08FF99DF854
:100FA0000C000106D6D5297800F00F008842D1D870
:100FB0008DF80460012201A9404600F095FAC9E7C6
:100FC00094F8201001228240114264D05E4860A152
:100FD000801CFFF771FB20B35F489DF804100422CA
:100FE00030F811006946FFF767FF94F830009DF86C
:100FF0000010C0079DF8010001F00F0100EB012176
:1010000038D09DF8040004EB4000C1829DF8022016
:101010009DF8031002F00F0201EB022181813AE0FA
:1010200059E04D489DF804100A30042230F81100B0
:10103000694600F043F994F830009DF80110C007AC
:101040009DF8000000EB01219DF8040004EB400036
:1010500005D081819DF802109DF8032018E0C1821F
:101060009DF802109DF8032001EB0222BAF800104F
:10107000891AD3E7BAF80000411A9DF8040004EB7E
:10108000400081819DF802209DF8031002F00F02BC
:1010900001EB0221C1829DF80400401C8DF8040080
:1010A0009DF80400297888428AD3A189BAF80020E3
:1010B0000127914204D8E18ABAF80200814209D995
:1010C0009DF80C0000F00F00012812D9E089A081E2
:1010D000208BE0826E701C481DA1801CFFF7ECFA8B
:1010E00001009DF80C104FF6FF700FD0C90625D0F7
:1010F0001BE0287804EB40004189A181808AE082CE
:1011000080208DF80C0084F82080E4E701F08F0146
:10111000802913D009E000BF21F0800003E0A08106
:10112000E08201F0E00084F820006878F02801D91E
:1011300085F8019004B03846BDE8F08794F8201097
:101140000A06ECD5E8E70000240000203400002067
:1011500039313100AC03002076B402082DE9F041AA
:1011600016460F4604460025FFF71EFD7020FFF7C8
:10117000E7FCFFF761FDE0B2FFF7E2FCFFF75CFD83
:10118000002408E0385DFFF7DBFCFFF755FD0500A4
:1011900003D1641CE4B2B442F4D3FFF72BFD28461C
:1011A000BDE8F0812DE9F041374888B0816941F010
:1011B000800181618069012500F0800006904FF474
:1011C0000060CDE900050320CDE90250DFF8BC80C6
:1011D0006946404600F04AFAAE020024CDE90064B8
:1011E0006946404600F042FAFFF712FC284FC7F864
:1011F000AC410A2007F5D67708F0B8FE3D600A201A
:1012000008F0B4FE0225009669464046CDE9014546
:1012100000F02CFA642008F0A9FE042204A948F288
:10122000401000F04BF88DF8144004A919A0FFF706
:101230008FF81BA104A8FFF73FFA08BB8DF81050E8
:1012400048F24005012204A9284600F04DF9012288
:1012500004A9E81D00F032F89DF81010602905D2AD
:1012600011A0FFF775F8012000F016F90A2008F028
:101270007DFE8DF81040012204A9284600F034F9C3
:1012800008B00020BDE8F08100100240001C0140C1
:10129000008023424354502049443A25730D0A00EC
:1012A000393134370000000044656661756C742084
:1012B0005665723A25640D0A000000002DE9F041E0
:1012C00015460E460446FFF76FFC2820FFF738FC52
:1012D000FFF7B2FC200AFFF733FCFFF7ADFCE0B2EA
:1012E000FFF72EFCFFF7A8FCFFF75EFC2920FFF7B5
:1012F00027FCFFF7A1FC00246F1E09E0BC4201D0CF
:10130000012000E00020FFF7DFFB3055641CE4B251
:10131000AC42F3D3BDE8F041FFF76CBC2DE9F147D7
:10132000594E00244FF00A0A307885B0401CC0B2F4
:10133000B0FBFAF20AFB1201544DA046307009B11D
:101340000A2878D248F24E19012205A94846FFF72B
:10135000B5FF9DF814004FF0000701060AD500F014
:101360000F00062806D28DF8007001226946484613
:1013700000F0BAF89DF8140001075CD000F00F01EE
:10138000062958D2FF2088408DF80000C04395F808
:10139000209040F0C00085F82000A889A882E88A43
:1013A000E8834FF0010800BF95F8201008FA04F018
:1013B000014225D03648042202A930F81400FFF774
:1013C0007DFF95F830009DF80910C0079DF80800D2
:1013D00000EB012105EB44000AD0C1829DF80A1000
:1013E0009DF80B2001EB0221C1F54871818107E0D6
:1013F00081819DF80A109DF80B2001EB0221C1822A
:10140000641CE4B2052CCFD32249AA894FF001080D
:101410000B8828469A4203D8C28A49888A4209D949
:101420009DF8141001F00F0101290BD9C1898181A8
:10143000018BE98237709DF8140000F08F0080283E
:101440000AD018E0818A8181C18BC18280218DF808
:10145000141085F82090EEE795F82000010602D5DB
:1014600020F0800005E04FF6FF71A981E98200F0CD
:10147000E00085F820003078F02801D986F800A037
:1014800006B04046BDE8F0872B0000203400002065
:1014900042B50208AC03002008B500218DF8001009
:1014A0008DF801000F4800BF435C9DF80020491CE7
:1014B0001A44C9B28DF80020B829F5D3D0B2C04380
:1014C000401C8DF80000B822064948F2470000F0A1
:1014D0000BF80222694648F2FF0000F005F80020F0
:1014E00008BD00008AB402082DE9F04116460F46F7
:1014F00004460025FFF758FB2820FFF721FBFFF7E4
:101500009BFB200AFFF71CFBFFF796FBE0B2FFF7FF
:1015100017FBFFF791FB002408E0385DFFF710FB95
:10152000FFF78AFB050003D1641CE4B2B442F4D394
:10153000FFF760FB2846BDE8F08100002DE9F05F71
:1015400090F821100024022903D004218163012492
:1015500085E001680A6822F00E020A6001680A68E4
:1015600022F001020A603F4E3E4FB215DFF8F4C090
:10157000DFF8F090DFF8ECA0DFF8E8B0DFF8E4E0A7
:101580000168783F13011502ACF1640CA9F1500910
:10159000AAF13C0AABF1280BAEF1140E4FF48018FF
:1015A000B14227D9B9420ED0614512D049451DD06C
:1015B000514518D0594518D0714501D1424615E022
:1015C000294EB14201D1012210E0274E1436B1421A
:1015D00001D110220AE0244E2836B14206D0224A18
:1015E0003C32914201D11A4600E02A461E49091FA9
:1015F0000A602BE0B94213D0614517D0494522D08B
:1016000051451DD059451DD0714501D142461AE0C2
:10161000B14202D14FF0807215E0134EB14201D1B8
:10162000012210E0104E1436B14201D110220AE01E
:101630000D4E2836B14206D00B4A3C32914201D1C0
:101640001A4600E02A46074980394A60012180F89D
:101650002110002180F82010416B01B188472046FD
:10166000BDE8F09F80000240080402402DE9F84FD9
:10167000DFF8C891002409F1040A0AF1040B23469B
:101680000F270BF1040ED1E00125A54006EA050263
:10169000AA4276D1DFF8A8C14E68A6EB0C086645D1
:1016A0002BD00DDC032E34D005DC36B3012E19D03F
:1016B000022E2FD11BE0112E16D0122E2AD119E0A6
:1016C000B8F5881F19D006DCB8F5803F15D0B8F5FD
:1016D000801F1FD111E0B8F5001F0ED0B8F5041F10
:1016E00018D10AE0CB6815E0CB681B1D12E0CB686F
:1016F00008330FE0CB680C330CE08B682BB1012B67
:101700004FF0080303D0456104E0042302E00561C3
:1017100000E00023FF2A01D8064601E000F104069C
:101720004FEA840501D9A5F12005D6F8008007FA13
:1017300005FC28EA0C0803FA05F548EA0508C6F88E
:1017400000804D68ED0070D53E4DAE6946F0010653
:10175000AE61AD6924F0030605F0010500953A4D30
:1017600006EB050CDCF80850A607360F07FA06F85A
:1017700025EA0805DFF8D480404503D14FF0000882
:1017800025E052E0DFF8C880404502D14FF0010863
:101790001DE0DFF8C080404502D14FF0020816E09E
:1017A000DFF8B480404502D14FF003080FE0DFF8C6
:1017B000AC80404502D14FF0040808E0DFF8A0807B
:1017C000404502D14FF0050801E04FF0060808FA45
:1017D00006F848EA0508CCF808804D68D9F800609A
:1017E000ED034D4601D5164300E096432E604D684B
:1017F000DAF80060AD03554601D5164300E0964384
:101800002E604D68DBF80060ED025D4601D51643A1
:1018100000E096432E604D68DEF80060AD0275462C
:1018200001D5164300E096432E60641C0A681646F4
:10183000E2407FF429AFBDE8F88F000000040140CA
:10184000000011100010024000000140000801409B
:10185000000C01400010014000140140001801403C
:10186000001C01400AB1016170470904FBE7000058
:101870000148806870470000040000200248816829
:10188000027811448160704704000020074810B5B9
:10189000016841F010010160052000F057F80F20A9
:1018A00000F006F800F024F8002010BD00200240EF
:1018B00070B50D4D04464FF47A712878B1FBF0F005
:1018C0000A490968B1FBF0F000F050FB48B9102C50
:1018D00007D200222146501E00F018F800206C604C
:1018E00070BD012070BD0000040000200000002039
:1018F0007047002809DB00F01F02012191404009D8
:10190000800000F1E020C0F800117047F0B40E4BE9
:101910001B680C46C3F30223C3F10705042D00D94D
:101920000425191D072901D2002300E0DB1E012632
:1019300006FA05F1491E214099409E40761E164048
:101940003143F0BC04F0CBBE0CED00E0064900F0E2
:10195000070208684FF6FF03184040EA0220034AD6
:1019600010430860704700000CED00E00000FA052D
:101970002DE9F0470F46050061D0434E306800F076
:101980000700B84209D2306820F0070038433060C1
:10199000306800F00700B84251D128683B4C8107FD
:1019A00012D5400703D5606840F4E0606060287895
:1019B000000703D5606840F4605060606068A96803
:1019C00020F0F000084360602878C00728D06868DD
:1019D000012810D02168022810D0890700292EDAAA
:1019E000616821F0030101436160FFF741FF804618
:1019F00041F288390DE021688903EFE78901EDE7BD
:101A0000FFF736FFA0EB0801494502D90320BDE8E6
:101A1000F0876068696800F00C00B0EB810FEFD1CF
:101A2000306800F00700B8420BD9306820F007009A
:101A300038433060306800F00700B84201D0012020
:101A4000E5E72878400705D56068E96820F4E0609C
:101A5000084360602878000706D56068296920F48B
:101A6000605040EAC100606000F038F86168084AE0
:101A7000C1F30311515CC84006490860064800687C
:101A8000FFF716FF0020C2E70020024000100240CE
:101A90009E9C020800000020080000200448054920
:101AA00000684968044AC1F30221515CC84070478C
:101AB0000000002000100240AE9C020804480549C6
:101AC00000684968044AC1F3C221515CC8407047AC
:101AD0000000002000100240AE9C020812A185B058
:101AE0000FC98DE80F0014A0144A006804905168D3
:101AF000134801F00C03042B10D0082B0ED1C1F3B6
:101B00008343C9031DF803000AD5516804AAC1F331
:101B10004041515C0A4A5043B0FBF1F005B07047B8
:101B200008494843FAE700000203040506070809CC
:101B30000A0B0C0D0E0F10100102000000100240E5
:101B400000127A0000093D002DE9F84F040070D022
:101B50002078C04DC00749D06868C0F381000128D3
:101B600007D06868C0F38100022809D16868C00303
:101B700006D52868800339D560680028E7D035E0AD
:101B80006068B0F5803F0BD010B1B0F5A02F11D038
:101B9000286820F480302860286820F4802002E043
:101BA000286840F480302860606890B1FFF760FEDC
:101BB00006460AE0286840F480202860F0E700BF6D
:101BC000FFF756FE801B642873D828688003F7D57A
:101BD0000CE0FFF74DFE064605E000BFFFF748FEAC
:101BE000801B6428F0D828688003F7D420789A4EA8
:101BF00080074FF001094FF0000839D5686810F0F0
:101C00000C0F07D06868C0F38100022809D168680A
:101C1000C00306D42868800714D52069012808D19C
:101C200010E02069B0B1C6F80090FFF721FE07462A
:101C300005E00AE1FFF71CFEC01B0228C4D8286893
:101C40008007F7D52868616920F0F80040EAC100F4
:101C500028600DE0C6F80080FFF70AFE074604E0A2
:101C6000FFF706FEC01B022823D828688007F7D498
:101C7000207800072CD57948A169D9B1C0F8009027
:101C8000FFF7F6FD074604E0FFF7F2FDC01B022850
:101C90000FD8686A8007F7D571484FF4FA51006889
:101CA000B0FBF1F0009000BF0098411E0091FAD205
:101CB0000EE080E0C0F80080FFF7DAFD074604E0A0
:101CC000FFF7D6FDC01B022875D8686A8007F7D4D5
:101CD0002078400760D5E8690027C00008D4E8698B
:101CE00040F08050E861E869012700F080500090E2
:101CF0005C480168C90513D40168834641F48071CA
:101D00000160FFF7B5FD824606E000BFFFF7B0FDBA
:101D1000A0EB0A0064284ED8DBF80000C005F5D51A
:101D2000E06801280AD008B1052813D0286A20F0FD
:101D300001002862286A20F0040002E0286A40F0CE
:101D400001002862E06841F2883B98B1FFF790FDFE
:101D500082460BE0286A40F004002862EEE700BFEC
:101D6000FFF786FDA0EB0A0159455AD8286A80077B
:101D7000F6D50CE0FFF77CFD824605E0FFF778FD25
:101D8000A0EB0A0159454CD8286A8007F6D41FB148
:101D9000E86920F08050E861E06988B36968C1F3C0
:101DA0008101022944D00228C6F8608004D0FFF7E0
:101DB0005FFD044638E034E0FFF75AFD074604E0D3
:101DC000FFF756FDC01B02282BD828688001F7D4E6
:101DD000206AB0F5803F05D16868A16820F4003022
:101DE00008436860D4E908010843696821F4741164
:101DF00008436860C6F86090FFF73AFD044606E0C5
:101E000025E000BFFFF734FD001B022809D8286831
:101E10008001F7D51BE000BFFFF72AFD001B022859
:101E200002D90320BDE8F88F28688001F4D40EE0C1
:101E30000128F7D06868226A00F48031914204D109
:101E4000616A00F47010884201D00120EAE70020A6
:101E5000E8E70000001002400000424280044242D5
:101E6000000000200070004070B515460E460400CA
:101E700003D094F8410010B107E0012070BD0020AC
:101E800084F84000204600F01DF804F108012068A5
:101E9000FEF71EFF3146A2682068FEF74DFFD4E929
:101EA00001022946236BFEF7F5FE2168A06851F870
:101EB000202042F0010241F82020012084F8410056
:101EC000002070BD1F4800B5416985B041F48071A4
:101ED0004161416901F480710491816941F02001FF
:101EE0008161816901F020010491816941F0400123
:101EF0008161816901F040010491816941F480713F
:101F000081618069694600F4807004904CF23370FE
:101F100000900220019001200290032003900A48C3
:101F2000FFF7A4FB4FF68070009069460748FFF763
:101F30009DFB41F20100009069460548FFF796FBC2
:101F400005B000BD0010024000140140001801401F
:101F5000002001404FF0E0210428086903D020F060
:101F600004000861704740F00400FAE710B5401E15
:101F7000B0F1807F01D3012010BD4FF0E0246061FB
:101F80000F21601704F0ABFB0020A0610720206147
:101F9000002010BD7047704710B5040003D094F8BE
:101FA0003D0010B107E0012010BD002084F83C0086
:101FB000204600F00DF8022084F83D00211D206825
:101FC00003F0A2FC012084F83D00002010BD0000B9
:101FD00008B500680B49884212D10B48C16941F02D
:101FE0000201C161C069032200F0020000900121DA
:101FF0001D20FFF78BFCBDE808401D20FFF779BCD2
:1020000008BD000000040040001002400168CA68DA
:1020100042F00102CA600068816801F007010629E8
:1020200003D0016841F00101016000207047704752
:1020300070B50446006801694FF00005C94389077F
:1020400015D4C168C943890711D4E91E0161012073
:102050002077206880698007204602D0FFF7E7FFDD
:1020600004E000F098F8204600F096F82577206804
:102070000169C943490717D4C168C943490713D443
:102080006FF004010161022020772068806910F45C
:10209000407F204602D0FFF7CAFF04E000F07BF843
:1020A000204600F079F8257720680169C9430907BF
:1020B00016D4C168C943090712D46FF00801016141
:1020C000042020772068C0698007204602D0FFF7EF
:1020D000AEFF04E000F05FF8204600F05DF82577E1
:1020E00020680169C943C90617D4C168C943C90634
:1020F00013D46FF010010161082020772068C069B7
:1021000010F4407F204602D0FFF791FF04E000F07A
:1021100042F8204600F040F8257720680169C9435D
:10212000C90708D1C168C943C90704D1891E016123
:10213000204600F033F820680169C943090609D434
:10214000C168C943090605D46FF0800101612046CA
:10215000FFF720FF20680169C943490609D4C16817
:10216000C943490605D46FF040010161204600F0E3
:102170001FF820680169C94389060BD4C168C943A7
:10218000890607D46FF0200101612046BDE8704048
:10219000FFF701BF70BD70477047000003498842D8
:1021A00002D1012021F090BE70470000BC03002046
:1021B0007047704710F8391F407808437047000097
:1021C00070B5026804461068D168536910F00F0FAB
:1021D00050D003F0010501F4907635435DD0C2077D
:1021E00005D0CA0503D5E26B42F00102E263420763
:1021F00005D5DA0703D0E26B42F00202E263820700
:1022000005D5DA0703D0E26B42F00402E26302076D
:1022100005D5DA0703D0E26B42F00802E263E26B15
:10222000002A33D0800604D5880602D5204604F063
:1022300065F920684069E16BC0F38010090700D49C
:1022400028B3204604F04CF92068416949061AD5A4
:10225000416921F040014161606BA0B11B494163BC
:10226000606BFFF76BF9002810D0606B416BBDE825
:1022700070400847830610D58B060ED52046BDE872
:10228000704004F03BB92046FFF793FF70BD204635
:10229000FFF78FFF0020E06370BD030606D50B0635
:1022A00004D52046BDE8704004F0D0B94006F3D50F
:1022B0004806F1D5D168204621F04001D1602021A7
:1022C00084F8391000F0D2F870BD0000D164000825
:1022D00070B5040004D094F83900002510B106E070
:1022E000012070BD84F83850204600F023F82420E7
:1022F00084F839002068C16821F40051C16020468B
:1023000004F048F92068016921F4904101612068D6
:10231000416921F02A0141612068C16841F40051FE
:10232000C160E563202084F8390084F83A00002079
:1023300070BD000010B500681E4986B0884236D1D5
:102340001D48816941F004018161816901F0040146
:102350000491816941F480418161816901F4804186
:102360000491816941F0010181618069134C00F0A1
:10237000010004904FF400700090022001900120B1
:1023800002900320039069462046FFF76FF920155D
:1023900000900020019069462046FFF767F925204C
:1023A000FFF7A7FA032211462520FFF7AFFA06B080
:1023B00010BD00000038014000100240000801403C
:1023C00090F83A30202B22D1F9B1F2B190F83830A0
:1023D000012B1CD081628285C2850021C16322222B
:1023E00080F83A2080F838100168CA6842F4807298
:1023F000CA6001684A6942F001024A610068C16826
:1024000041F02001C1600020704701207047022088
:102410007047000030B50068114988420CD111485E
:1024200041880A0408D402464C0412784FF0000395
:1024300006D50A2A01D0438030BD41F400410DE0A9
:102440000D2A09D0C1F30D04074D491C89B22A5544
:102450004180C729EFD830BD41F48041418030BD73
:1024600000380140140000205C0200207047FEE7A5
:1024700070B50D4C0025C4F898510C48016821F046
:1024800070410160016841F040510160C4F89C5105
:10249000022004F5CC7407F077FD012020600220B3
:1024A00007F072FD256070BD00802142000C0140E4
:1024B0000E4810B5816986B041F0080181618069DC
:1024C000012400F008000490C020CDE9000403209E
:1024D000CDE9024069460648FFF7C8F80548C0F84C
:1024E0009C41C0F8984106B010BD000000100240A9
:1024F000000C01400080214270B50D4C0025C4F84D
:1025000098510C48016821F070410160016841F068
:10251000405101600126C4F89C61022004F5CC748E
:1025200007F032FD2660022007F02EFD256070BD09
:1025300000802142000C01402DE9F04781461748F8
:102540000024016821F070410160016841F0004100
:102550000160134E254627464FF00108C6F89871D2
:10256000022007F011FDC6F898816006040ED6F827
:102570001C0108B1641CE4B2012007F005FD6D1CCC
:10258000EDB2082DEAD3B9F1000F04D0FFF770FFC8
:102590002046BDE8F087FFF7AFFFF9E7000C0140E8
:1025A000008021422DE9F04106461448016821F0DF
:1025B00070410160016841F040510160104C0027FA
:1025C000C4F898713D464FF00108F009C4F89C0129
:1025D0007006060E022007F0D7FCC4F8988102208E
:1025E00007F0D2FCC4F89871022007F0CDFC6D1CF6
:1025F000EDB2082DE9D3BDE8F0810000000C0140E8
:102600000080214270B50D48016821F070410160E1
:10261000016841F040510160094C0120C4F89C015F
:10262000C4F89801042004F5CC7407F0ADFC002533
:102630006560042007F0A8FC256070BD000C014017
:10264000008021420E4810B5016821F07041016000
:10265000016841F0405101600A4C0020C4F8980123
:10266000C4F89C01042004F5CC7407F08DFC012013
:1026700020606060BDE81040042007F085BC0000C9
:10268000000C01400080214270B51348002401680D
:1026900021F070410160016841F0004101600F4D7F
:1026A0000126C5F89C61304607F06EFCC5F89861BC
:1026B000012007F069FC07E0641CE4B2FA2C03D99E
:1026C000FFF7C0FF012070BDD5F81C010028F3D131
:1026D000C5F8980170BD0000000C01400080214247
:1026E00070B5144886B0816941F004018161816947
:1026F00001F004010491816941F040018161806928
:10270000012400F0400004900326002500940220DC
:102710000396CDE9015069460748FEF7A7FF182048
:10272000CDE90005CDE9024669460448FEF79EFF63
:1027300006B070BD001002400008014000180140C2
:1027400070B509490646002408884D88214645434E
:10275000204602F053FD02F0B3FE044801E006807B
:10276000641CAC42FBD370BDAC0300200008006CBD
:102770002DE9F0478246A2EB0A00401C0E4685B2C6
:10278000981B401C87B20024DFF83C90DDF82080C5
:1027900015E0301981B2504602F030FD02F090FE93
:1027A0000020494607E000BF04FB050338F813206A
:1027B0000A80401C80B2A842F6D3641CA4B2BC427A
:1027C000E7D3BDE8F08700000008006C2DE9F04F6A
:1027D0002B492C260A46887192884FF4305A4FF4C0
:1027E000285B4FF4487541F6631E2B274FF02A0CE7
:1027F0004FF0F00845F210594FF4A0744FF4F07305
:10280000B8B10C80A1F802804A4532D1A1F808A0E5
:10281000A1F80AB0380288810D804B80A2F5A6404D
:10282000103801D10B804C80BDE8F04F002002F041
:1028300025BCA1F800804C804A4507D1A1F808A02A
:10284000A1F80AB04FF42C50888105E072450E8142
:1028500005D14F81A1F80CC00B804D8002E0A1F89A
:102860000AC08F81A2F5A6401038DDD10C804B80C4
:10287000DAE70E81A1F80AC072458F81CCD0CDE78E
:10288000AC0300202DE9FE4F161ACDE900104FF0E1
:1028900000085D1A47464FF0FF30002E02DD4FF072
:1028A000010102E003D14FF000018B4602E08346B4
:1028B000C6F10006002D02DD4FF0010002E003D159
:1028C0004FF00000824602E08246C5F10005AE42AC
:1028D00001DD344600E02C46601C4FF000090290F8
:1028E00018E0009881B2019880B200F019F8B04465
:1028F0002F44A04504DD0198A8EB0408584401903A
:10290000A74203DD00983F1B5044009009F10100ED
:102910001FFA80F902998945E3DDBDE8FE8F0000CA
:1029200000B502F06BFC02F0CBFD024802490088C2
:10293000088000BD1C0000200008006C2DE9FC4F41
:1029400080460025144603200F46A0EB440649E0CC
:10295000381B81B208EB050A01901FFA8AF0FFF7D5
:10296000DFFF781B81B208EB040900901FFA89F0A1
:10297000FFF7D6FF07EB050B1FFA8BF11FFA89F063
:10298000FFF7CEFF07EB04091FFA89F11FFA8AF05F
:10299000FFF7C6FFA8EB050A1FFA89F11FFA8AF0B4
:1029A000FFF7BEFFA8EB04091FFA8BF11FFA89F0AD
:1029B000FFF7B6FF019881B21FFA8AF0FFF7B0FF68
:1029C000009881B21FFA89F0FFF7AAFF6D1C002E54
:1029D00003DA06EB8506B61D04E0281B06EB80062D
:1029E000641E0A36A542B3DDBDE8FC8F2DE9F04137
:1029F0009046304A0D460446060A918810462F0A32
:102A00004089A1F5AA43103B0FD0A1F5C853633B01
:102A100024D002F049FD304602F03AFDE0B202F067
:102A200037FD908902F040FD36E002F03DFD304672
:102A300002F02EFD5089401C80B202F035FDE0B25C
:102A400002F026FD908902F02FFD384602F020FDAD
:102A50009089401C80B202F027FD20E0917919B9DD
:102A60001188091B491E8CB202F01EFD260A304651
:102A700002F00EFDE0B202F00BFD304602F008FD60
:102A8000E0B202F005FD908902F00EFD384602F03A
:102A9000FFFCE8B202F0FCFC384602F0F9FCE8B2B8
:102AA00002F0F6FC044910890880891CA1F8008016
:102AB000BDE8F081AC030020FE07006C2DE9F04F6B
:102AC000FE4895B0816941F008018161806910A9D3
:102AD00000F0080007900120109011901290032040
:102AE0001390F748FEF7C2FDF6484FF0204106224A
:102AF0000160F549C0E9011200211023C160C0E95D
:102B0000041381611B02C161C0E909139B00C0E984
:102B10000B13416381631A20CDE90A1009920F91CA
:102B2000032003918DE8070006916A4609A9E5484C
:102B3000FFF79AF9322007F019FAD32002F0B4FC1B
:102B400002F06CFADF4C4834A08002F067FA2146AC
:102B5000888002F063FA4FF6FF75214605EA0020EF
:102B6000888002F05BFA214647F28976898845F22F
:102B700010370843214645F210588880A0F51341CC
:102B800041F663194FF4704A4FF2010B413975D089
:102B9000042002F089FC02F041FAA08002F03EFA23
:102BA000A08002F03BFA05EA0020A08002F036FA8D
:102BB000A1880843A0F50541A08052395AD0B042FF
:102BC0005CD0D42002F070FC02F028FAA08002F061
:102BD00025FAA08002F022FA05EA0020A08002F087
:102BE0001DFAA1880843A080B84247D0552150461D
:102BF00002F070FCAA21584602F06CFC52214FF200
:102C0000020002F067FC08214FF2030002F062FCB0
:102C100001214FF2040002F05DFC4FF4454002F048
:102C200043FC02F0FBF905EA0020A0804CF20150C1
:102C300002F03AFC02F0F2F9A1880843A0803220A9
:102C400007F094F9A188414518D0A12002F02CFC8E
:102C500002F0E4F9A08002F0E1F905EA0020A0808A
:102C600002F0DCF9A1880843A0F5AE41A0806139EB
:102C700002D003E0A68001E0A4F80490A18893A00C
:102C8000FDF766FBA088A0F5134141397ED0B04224
:102C90007DD1112002F008FC782007F067F936207A
:102CA00002F002FC002002F0F3FB3A2002F0FCFBF1
:102CB000052002F0EDFBB22002F0F6FB0C2002F042
:102CC000E7FB0C2002F0E4FB002002F0E1FB3320E4
:102CD00002F0DEFB332002F0DBFBB72002F0E4FB66
:102CE000352002F0D5FBBB2002F0DEFB322002F0E3
:102CF000CFFBC02002F0D8FB0C2002F0C9FBC220A1
:102D000002F0D2FB012002F0C3FBC32002F0CCFB97
:102D1000102002F0BDFBC42002F0C6FB202002F010
:102D2000B7FBC62002F0C0FB0F2002F0B1FBD020A1
:102D300002F0BAFBA42002F0ABFBA12002F0A8FB3A
:102D4000E02002F0B1FBD02002F0A2FB002002F054
:102D50009FFB022002F09CFB072002F099FB0A2057
:102D600002F096FB282002F093FB322002F090FB49
:102D7000442002F08DFB422002F08AFB062002F084
:102D800087FB0E2002F084FB122001E056E078E180
:102D900002F07EFB142002F07BFB172002F078FB90
:102DA000E12002F081FBD02002F072FB002002F053
:102DB0006FFB022002F06CFB072002F069FB0A2087
:102DC00002F066FB282002F063FB312002F060FB7A
:102DD000542002F05DFB472002F05AFB0E2002F067
:102DE00057FB1C2002F054FB172002F051FB1B2064
:102DF00002F04EFB1E2002F04BFB2A2002F054FB97
:102E0000002002F045FB002002F042FB002002F00F
:102E10003FFBEF2002F03CFB2B2002F045FB0020A3
:102E200002F036FB002002F033FB012002F030FB01
:102E30003F2002F02DFB292002F01CB8CF2002F029
:102E400033FB002002F024FBC12002F021FB3020E4
:102E500002F01EFBED2002F027FB642002F018FBBD
:102E6000032002F015FB122002F012FB812002F079
:102E70000FFBE82002F018FB852002F009FB102070
:102E800002F006FB7A2002F003FBCB2002F00CFBE1
:102E9000392002F0FDFA2C2002F0FAFA002002F0AC
:102EA000F7FA342002F0F4FA022002F0F1FAF720E7
:102EB00002F0FAFA202002F0EBFA0FE000100240D4
:102EC000000C014064030020040100A0204C434496
:102ED0002049443A25780D0A00000000EA2002F05B
:102EE000E3FA002002F0D4FA002002F0D1FAC02068
:102EF00002F0DAFA1B2002F0CBFAC12002F0D4FA79
:102F0000012002F0C5FAC52002F0CEFA302002F00E
:102F1000BFFA302002F0BCFAC72002F0C5FAB72091
:102F200002F0B6FA362002F0BFFA482002F0B0FAFA
:102F30003A2002F0B9FA552002F0AAFAB12002F0C4
:102F4000B3FA002002F0A4FA1A2002F0A1FAB62087
:102F500002F0AAFA0A2002F09BFAA22002F098FAE4
:102F6000F22002F0A1FA002002F092FA262002F0EC
:102F70009BFA012002F08CFAE02002F095FA0F2073
:102F800002F086FA2A2002F083FA282002F080FA62
:102F9000082002F07DFA0E2002F07AFA082002F0F2
:102FA00077FA542002F074FAA92002F071FA432053
:102FB00002F06EFA0A2002F06BFA0F2002F068FAB3
:102FC000002002F065FA002002F062FA002002F010
:102FD0005FFA002002F05CFAE12002F065FA0020BE
:102FE00002F056FA152002F053FA172002F050FAB8
:102FF000072002F04DFA112002F04AFA062002F0F2
:1030000047FA2B2002F044FA562002F041FA3C2005
:1030100002F03EFA052002F03BFA102002F038FAE6
:103020000F2002F035FA3F2002F032FA3F2002F082
:103030002FFA0F2002F02CFA2B2002F035FA002094
:1030400002F026FA002002F023FA012002F020FA12
:103050003F2002F01DFA2A2002F026FA002002F09A
:1030600017FA002002F014FA002002F011FAEF2003
:1030700002F00EFA112002F017FA782006F076FF1F
:10308000D9E6B8427ED1ED2002F00EFA012002F01E
:10309000FFF9FE2002F0FCF9EE2002F005FADE2036
:1030A00002F0F6F9212002F0F3F9F12002F0FCF928
:1030B000012002F0EDF9DF2002F0F6F9102002F015
:1030C000E7F9C42002F0F0F98F2002F0E1F9C62000
:1030D00002F0EAF9002002F0DBF9E22002F0D8F970
:1030E000E22002F0D5F9E22002F0D2F9BF2002F08E
:1030F000DBF9AA2002F0CCF9B02002F0D5F90D20BE
:1031000002F0C6F9002002F0C3F90D2002F0C0F968
:10311000002002F0BDF9112002F0BAF9002002F0FF
:10312000B7F9192002F0B4F9002002F0B1F921201A
:1031300002F0AEF9002002F0ABF92D2002F0A8F960
:10314000002002F0A5F93D2002F0A2F9002002F0D3
:103150009FF95D2002F09CF9002002F099F95D20B2
:1031600002F096F9002002F093F9B12002F09CF9E8
:10317000802002F08DF9002002F08AF98B2002F005
:1031800087F900E0FDE3002002F082F9962002F0CA
:103190007FF9002002F07CF9B22002F085F90020CE
:1031A00002F076F9002002F073F9022002F070F9C3
:1031B000002002F06DF9032002F06AF9002002F00D
:1031C00067F9B32002F070F9002002F061F90020E5
:1031D00002F05EF9002002F05BF9002002F058F9DD
:1031E000002002F055F9002002F052F9002002F010
:1031F0004FF9002002F04CF9002002F049F90020BC
:1032000002F046F9002002F043F9002002F040F9F4
:10321000002002F03DF9002002F03AF9002002F00F
:1032200037F9002002F034F9002002F031F90020D3
:1032300002F02EF9002002F02BF9002002F028F90C
:10324000002002F025F9002002F022F9002002F00F
:103250001FF9002002F01CF9B42002F025F98B20A0
:1032600002F016F9002002F013F9962002F010F98E
:10327000002002F00DF9A12002F00AF9002002F06E
:1032800007F9B52002F010F9022002F001F9002040
:1032900002F0FEF8032002F0FBF8002002F0F8F83C
:1032A000042002F0F5F8002002F0F2F8B62002F057
:1032B000FBF8002002F0ECF8002002F0E9F8B7205B
:1032C00002F0F2F8002002F0E3F8002002F0E0F84B
:1032D0003F2002F0DDF8002002F0DAF85E2002F074
:1032E000D7F8002002F0D4F8642002F0D1F80020D2
:1032F00002F0CEF88C2002F0CBF8002002F0C8F8E3
:10330000AC2002F0C5F8002002F0C2F8DC2002F088
:10331000BFF8002002F0BCF8702002F0B9F80020DD
:1033200002F0B6F8902002F0B3F8002002F0B0F8F6
:10333000EB2002F0ADF8002002F0AAF8DC2002F049
:10334000A7F8002002F0A4F8B82002F0ADF80020A1
:1033500002F09EF8002002F09BF8002002F098F89E
:10336000002002F095F8002002F092F8002002F010
:103370008FF8002002F08CF8002002F089F8BA20C3
:1033800002F092F8242002F083F8002002F080F886
:10339000002002F07DF8002002F07AF8C12002F04F
:1033A00083F8202002F074F8002002F071F8542015
:1033B00002F06EF8002002F06BF8FF2002F068F8CF
:1033C000002002F065F8C22002F06EF80A2002F038
:1033D0005FF8002002F05CF8042002F059F80020A9
:1033E00002F056F8C32002F05FF83C2002F050F8DB
:1033F000002002F04DF83A2002F04AF8002002F0D6
:1034000047F8392002F044F8002002F041F8372054
:1034100002F03EF8002002F03BF83C2002F038F8C1
:10342000002002F035F8362002F032F8002002F0D9
:103430002FF8322002F02CF8002002F029F82F207B
:1034400002F026F8002002F023F82C2002F020F8E9
:10345000002002F01DF8292002F01AF8002002F0E6
:1034600017F8262002F014F8002002F011F82420AA
:1034700002F00EF8002002F00BF8242002F008F809
:10348000002002F005F8232002F002F8002001F0ED
:10349000FFFF3C2001F0FCFF002001F0F9FF362087
:1034A00001F0F6FF002001F0F3FF322001F0F0FF01
:1034B000002001F0EDFF2F2001F0EAFF002001F0D5
:1034C000E7FF2C2001F0E4FF002001F0E1FF2920BC
:1034D00001F0DEFF002001F0DBFF262001F0D8FF25
:1034E000002001F0D5FF242001F0D2FF002001F0E0
:1034F000CFFF242001F0CCFF002001F0C9FF2320E2
:1035000001F0C6FF002001F0C3FFC42001F0CCFF92
:10351000622001F0BDFF002001F0BAFF052001F09C
:10352000B7FF002001F0B4FF842001F0B1FF0020BC
:1035300001F0AEFFF02001F0ABFF002001F0A8FF8A
:10354000182001F0A5FF002001F0A2FFA42001F047
:103550009FFF002001F09CFF182001F099FF002040
:1035600001F096FF502001F093FF002001F090FF42
:103570000C2001F08DFF002001F08AFF172001F0E0
:1035800087FF002001F084FF952001F081FF0020DB
:1035900001F07EFFF32001F07BFF002001F078FFB7
:1035A000E62001F075FF002001F072FFC52001F058
:1035B0007BFF322001F06CFF002001F069FF442006
:1035C00001F066FF002001F063FF652001F060FF5D
:1035D000002001F05DFF762001F05AFF002001F08D
:1035E00057FF882001F054FF002001F051FFC62052
:1035F00001F05AFF202001F04BFF002001F048FFAE
:10360000172001F045FF002001F042FF012001F0EA
:103610003FFF002001F03CFFC72001F045FF0020E4
:1036200001F036FF002001F033FF002001F030FFF1
:10363000002001F02DFFC82001F036FF002001F02E
:1036400027FF002001F024FF002001F021FF0020CF
:1036500001F01EFFC92001F027FF002001F018FF34
:10366000002001F015FF002001F012FF002001F002
:103670000FFF002001F00CFF002001F009FF0020E7
:1036800001F006FF002001F003FF002001F000FF21
:10369000002001F0FDFE002001F0FAFE002001F004
:1036A000F7FE002001F0F4FE002001F0F1FE002002
:1036B00001F0EEFE002001F0EBFEE02001F0F4FE50
:1036C000162001F0E5FE002001F0E2FE1C2001F0D2
:1036D000DFFE002001F0DCFE212001F0D9FE0020F9
:1036E00001F0D6FE362001F0D3FE002001F0D0FE1E
:1036F000462001F0CDFE002001F0CAFE522001F06C
:10370000C7FE002001F0C4FE642001F0C1FE0020CD
:1037100001F0BEFE7A2001F0BBFE002001F0B8FEF1
:103720008B2001F0B5FE002001F0B2FE992001F0DF
:10373000AFFE002001F0ACFEA82001F0A9FE0020A1
:1037400001F0A6FEB92001F0A3FE002001F0A0FECA
:10375000C42001F09DFE002001F09AFECA2001F075
:1037600097FE002001F094FED22001F091FE00208F
:1037700001F08EFED92001F08BFE002001F088FEC2
:10378000E02001F085FE002001F082FEF32001F030
:103790007FFE002001F07CFEE12001F085FE162076
:1037A00001F076FE002001F073FE1C2001F070FE97
:1037B000002001F06DFE222001F06AFE002001F0E1
:1037C00067FE362001F064FE002001F061FE452016
:1037D00001F05EFE002001F05BFE522001F058FE79
:1037E000002001F055FE642001F052FE002001F09F
:1037F0004FFE7A2001F04CFE002001F049FE8B20A4
:1038000001F046FE002001F043FE992001F040FE49
:10381000002001F03DFEA82001F03AFE002001F05A
:1038200037FEB92001F034FE002001F031FEC42043
:1038300001F02EFE002001F02BFECA2001F028FE30
:10384000002001F025FED22001F022FE002001F030
:103850001FFED82001F01CFE002001F019FEE02020
:1038600001F016FE002001F013FEF32001F010FE1F
:10387000002001F00DFEE22001F016FE052001F00F
:1038800007FE002001F004FE0B2001F001FE0020E5
:1038900001F0FEFD1B2001F0FBFD002001F0F8FD12
:1038A000342001F0F5FD002001F0F2FD442001F08C
:1038B000EFFD002001F0ECFD4F2001F0E9FD0020BC
:1038C00001F0E6FD612001F0E3FD002001F0E0FDE4
:1038D000792001F0DDFD002001F0DAFD882001F003
:1038E000D7FD002001F0D4FD972001F0D1FD00208C
:1038F00001F0CEFDA62001F0CBFD002001F0C8FDB7
:10390000B72001F0C5FD002001F0C2FDC22001F08A
:10391000BFFD002001F0BCFDC72001F0B9FD002073
:1039200001F0B6FDD12001F0B3FD002001F0B0FDA3
:10393000D62001F0ADFD002001F0AAFDDD2001F050
:10394000A7FD002001F0A4FDF32001F0A1FD00205F
:1039500001F09EFDE32001F0A7FD052001F098FD98
:10396000002001F095FD0A2001F092FD002001F0F9
:103970008FFD1C2001F08CFD002001F089FD33201B
:1039800000E0FAE201F084FD002001F081FD442016
:1039900001F07EFD002001F07BFD502001F078FD5C
:1039A000002001F075FD622001F072FD002001F0A1
:1039B0006FFD782001F06CFD002001F069FD88208A
:1039C00001F066FD002001F063FD972001F060FD2D
:1039D000002001F05DFDA62001F05AFD002001F05D
:1039E00057FDB72001F054FD002001F051FDC22029
:1039F00001F04EFD002001F04BFDC72001F048FD15
:103A0000002001F045FDD12001F042FD002001F031
:103A10003FFDD52001F03CFD002001F039FDDD2007
:103A200001F036FD002001F033FDF32001F030FD00
:103A3000002001F02DFDE42001F036FD012001F011
:103A400027FD002001F024FD012001F021FD0020D0
:103A500001F01EFD022001F01BFD002001F018FD09
:103A60002A2001F015FD002001F012FD3C2001F09C
:103A70000FFD002001F00CFD4B2001F009FD00209E
:103A800001F006FD5D2001F003FD002001F000FDC6
:103A9000742001F0FDFC002001F0FAFC842001F00C
:103AA000F7FC002001F0F4FC932001F0F1FC002071
:103AB00001F0EEFCA22001F0EBFC002001F0E8FC9C
:103AC000B32001F0E5FC002001F0E2FCBE2001F093
:103AD000DFFC002001F0DCFCC42001F0D9FC002058
:103AE00001F0D6FCCD2001F0D3FC002001F0D0FC89
:103AF000D32001F0CDFC002001F0CAFCDD2001F054
:103B0000C7FC002001F0C4FCF32001F0C1FC002040
:103B100001F0BEFCE52001F0C7FC002001F0B8FC7C
:103B2000002001F0B5FC002001F0B2FC002001F003
:103B3000AFFC022001F0ACFC002001F0A9FC292020
:103B400001F0A6FC002001F0A3FC3C2001F0A0FC49
:103B5000002001F09DFC4B2001F09AFC002001F0B8
:103B600097FC5D2001F094FC002001F091FC742092
:103B700001F08EFC002001F08BFC842001F088FC19
:103B8000002001F085FC932001F082FC002001F070
:103B90007FFCA22001F07CFC002001F079FCB32026
:103BA00001F076FC002001F073FCBE2001F070FCF7
:103BB000002001F06DFCC42001F06AFC002001F03F
:103BC00067FCCD2001F064FC002001F061FCD320F3
:103BD00001F05EFC002001F05BFCDC2001F058FCF1
:103BE000002001F055FCF32001F052FC002001F010
:103BF0004FFCE62001F058FC112001F049FC0020A8
:103C000001F046FC342001F043FC002001F040FCB0
:103C1000562001F03DFC002001F03AFC762001F036
:103C200037FC002001F034FC772001F031FC00204B
:103C300001F02EFC662001F02BFC002001F028FC96
:103C4000882001F025FC002001F022FC992001F0E1
:103C50001FFC002001F01CFCBB2001F019FC00201F
:103C600001F016FC992001F013FC002001F010FC7B
:103C7000662001F00DFC002001F00AFC552001F047
:103C800007FC002001F004FC552001F001FC00209D
:103C900001F0FEFB452001F0FBFB002001F0F8FBEA
:103CA000432001F0F5FB002001F0F2FB442001F07D
:103CB000EFFB002001F0ECFBE72001F0F5FB3220E8
:103CC00001F0E6FB002001F0E3FB552001F0E0FBF2
:103CD000002001F0DDFB762001F0DAFB002001F08E
:103CE000D7FB662001F0D4FB002001F0D1FB672058
:103CF00001F0CEFB002001F0CBFB672001F0C8FBF8
:103D0000002001F0C5FB872001F0C2FB002001F07C
:103D1000BFFB992001F0BCFB002001F0B9FBBB20E8
:103D200001F0B6FB002001F0B3FB992001F0B0FBDD
:103D3000002001F0ADFB772001F0AAFB002001F08C
:103D4000A7FB442001F0A4FB002001F0A1FB5620BA
:103D500001F09EFB002001F09BFB232001F098FB6B
:103D6000002001F095FB332001F092FB002001F0D0
:103D70008FFB452001F08CFB002001F089FBE8203F
:103D800001F092FB002001F083FB002001F080FB9A
:103D9000992001F07DFB002001F07AFB872001F0E3
:103DA00077FB002001F074FB882001F071FB0020FC
:103DB00001F06EFB772001F06BFB002001F068FB47
:103DC000662001F065FB002001F062FB882001F015
:103DD0005FFB002001F05CFBAA2001F059FB0020F2
:103DE00001F056FBBB2001F053FB002001F050FB1B
:103DF000992001F04DFB002001F04AFB662001F004
:103E000047FB002001F044FB552001F041FB00205E
:103E100001F03EFB552001F03BFB002001F038FB98
:103E2000442001F035FB002001F032FB442001F07A
:103E30002FFB002001F02CFB552001F029FB002076
:103E400001F026FBE92001F02FFBAA2001F020FB66
:103E5000002001F01DFB002001F01AFB002001F002
:103E600017FB002001F020FBAA2001F011FBCF205E
:103E700001F01AFB002001F00BFB002001F008FB11
:103E8000002001F005FB002001F002FB002001F002
:103E9000FFFA002001F0FCFA002001F0F9FA0020FE
:103EA00001F0F6FA002001F0F3FA002001F0F0FA38
:103EB000002001F0EDFA002001F0EAFA002001F004
:103EC000E7FA002001F0E4FA002001F0E1FA002016
:103ED00001F0DEFA002001F0DBFAF02001F0E4FA54
:103EE000002001F0D5FA502001F0D2FA002001F0B4
:103EF000CFFA002001F0CCFA002001F0C9FAF3203B
:103F000001F0D2FA002001F0C3FAF92001F0CCFA56
:103F1000062001F0BDFA102001F0BAFA292001F0C4
:103F2000B7FA002001F0B4FA3A2001F0BDFA5520AA
:103F300001F0AEFA112001F0B7FA642006F016F88D
:103F4000292001F0B1FA352001F0AEFA002001F08D
:103F50009FFA512001F0A8FAFF2001F099FA5320AE
:103F600001F0A2FA2C2001F093FA552001F09CFAFE
:103F7000822001F08DFA2C20FEE340457ED15521B0
:103F8000504601F0A7FAAA215B46584601F0A2FA72
:103F90004FF202045221204601F09CFA661C0821CF
:103FA000304601F097FAA71C0121384601F092FA39
:103FB0000D214FF4304001F08DFA0D214BF201003C
:103FC00001F088FA0D214BF2020001F083FA4FF460
:103FD00036483421404601F07DFA34214BF201602D
:103FE00001F078FA34214BF2026001F073FA4FF4D9
:103FF00031490D21484601F06DFA4BF2011B0D21AC
:10400000584601F067FA0D214BF2021001F062FAF6
:1040100034214FF4374001F05DFA34214BF2017046
:1040200001F058FA34214BF2027001F053FA0021EA
:104030004FF4324001F04EFA00214BF2012001F022
:1040400049FA00214BF2022001F044FA24214FF4F6
:10405000384001F03FFA24214BF6010001F03AFA12
:1040600024214BF6020001F035FA01214FF43F40C4
:1040700001F030FA0F214FF4334000E0FEE301F08D
:1040800029FA0F214BF2013001F024FA0F214BF2F3
:10409000023001F01FFA34214FF4394001F01AFACE
:1040A00034214BF6011001F015FA34214BF60210C1
:1040B00001F010FA08214FF4354001F00BFA082105
:1040C0004BF2015001F006FA08214BF2025001F0C8
:1040D00001FA03214FF4424001F0FCF924214FF48E
:1040E0003A4001F0F7F924214BF6012001F0F2F9F2
:1040F00024214BF6022001F0EDF900214FF43C4061
:1041000001F0E8F978214BF6014001F0E3F90021D4
:104110004BF6024001F0DEF900214FF43D4001F082
:10412000D9F978214BF6015001F0D4F900214BF672
:10413000025001F0CFF900214FF43E4001F0CAF9DE
:1041400064214BF6016001F0C5F900214FF45140A4
:1041500001F0C0F933214DF2011001F0BBF900214B
:104160004DF2021001F0B6F934214DF2031001F0C6
:10417000B1F900214DF2041001F0ACF93A214DF2F1
:10418000051001F0A7F900214DF2061001F0A2F987
:104190004A214DF2071001F09DF900214DF208105F
:1041A00001F098F95C214DF2091001F093F900211A
:1041B0004DF20A1001F08EF981214DF20B1001F041
:1041C00089F900214DF20C1001F084F9A6214DF27D
:1041D0000D1001F07FF900214DF20E1001F07AF977
:1041E000E5214DF20F1001F075F901214DF210108B
:1041F00001F070F913214DF2111001F06BF901215A
:104200004DF2121001F066F954214DF2131001F035
:1042100061F901214DF2141001F05CF982214DF297
:10422000151001F057F901214DF2161001F052F965
:10423000CA214DF2171001F04DF902214DF218106C
:1042400001F048F900214DF2191001F043F9022163
:104250004DF21A1001F03EF901214DF21B1001F050
:1042600039F902214DF21C1001F034F934214DF2DC
:104270001D1001F02FF902214DF21E1001F02AF954
:1042800067214DF21F1001F025F902214DF2201097
:1042900001F020F984214DF2211001F01BF90221D7
:1042A0004DF2221001F016F9A4214DF2231001F075
:1042B00011F902214DF2241001F00CF9B7214DF251
:1042C000251001F007F902214DF2261001F002F944
:1042D000CF214DF2271001F0FDF802214DF22810F8
:1042E00001F0F8F8DE214DF2291001F0F3F8022177
:1042F0004DF22A1001F0EEF8F2214DF22B1001F0F0
:10430000E9F802214DF22C1001F0E4F8FE214DF203
:104310002D1001F0DFF803214DF22E1001F0DAF834
:1043200010214DF22F1001F0D5F803214DF230107D
:1043300001F0D0F833214DF2311001F0CBF8032118
:104340004DF2321001F0C6F86D214DF2331001F03C
:10435000C1F800214FF4524001F0BCF833214DF276
:10436000012001F0B7F800214DF2022001F0B2F86F
:1043700034214DF2032001F0ADF800214DF204206C
:1043800001F0A8F83A214DF2052001F0A3F8002130
:104390004DF2062001F09EF84A214DF2072001F06F
:1043A00099F800214DF2082001F094F85C214DF2BB
:1043B000092001F08FF800214DF20A2001F08AF85F
:1043C00081214DF20B2001F085F800214DF20C20E7
:1043D00001F080F8A6214DF20D2001F07BF80021BC
:1043E0004DF20E2001F076F8E5214DF20F2001F09C
:1043F00071F801214DF2102001F06CF813214DF2FB
:10440000112001F067F801214DF2122001F062F84D
:1044100054214DF2132001F05DF801214DF21420DA
:1044200001F058F882214DF2152001F053F80121D6
:104430004DF2162001F04EF8CA214DF2172001F07E
:1044400049F802214DF2182001F044F800214DF204
:10445000192001F03FF802214DF21A2001F03AF83C
:1044600001214DF21B2001F035F802214DF21C20F4
:1044700001F030F834214DF21D2001F02BF802211B
:104480004DF21E2001F026F867214DF21F2001F0A9
:1044900021F802214DF2202001F01CF884214DF278
:1044A000212001F017F802214DF2222001F012F82C
:1044B000A4214DF2232001F00DF802214DF2242019
:1044C00001F008F8B7214DF2252001F003F8022190
:1044D0004DF2262000F0FEFFCF214DF2272000F004
:1044E000F9FF02214DF2282000F0F4FFDE214DF209
:1044F000292000F0EFFF02214DF22A2000F0EAFF10
:10450000F2214DF22B2000F0E5FF02214DF22C208C
:1045100000F0E0FFFE214DF22D2000F0DBFF032133
:104520004DF22E2000F0D6FF10214DF22F2000F08A
:10453000D1FF03214DF2302000F0CCFF33214DF2AA
:10454000312000F0C7FF03214DF2322000F0C2FFFE
:104550006D214DF2332000F0BDFF00214FF4534098
:1045600000F0B8FF33214DF2013000F0B3FF00211D
:104570004DF2023000F0AEFF34214DF2033000F076
:10458000A9FF00214DF2043000F0A4FF3A214DF2C2
:10459000053000F09FFF00214DF2063000F09AFF39
:1045A0004A214DF2073000F095FF00214DF208300E
:1045B00000F090FF5C214DF2093000F08BFF0021EC
:1045C0004DF20A3000F086FF81214DF20B3000F0F1
:1045D00081FF00214DF20C3000F07CFFA6214DF24E
:1045E0000D3000F077FF00214DF20E3000F072FF29
:1045F000E5214DF20F3000F06DFF01214DF210303A
:1046000000F068FF13214DF2113000F063FF01212B
:104610004DF2123000F05EFF54214DF2133000F0E5
:1046200059FF01214DF2143000F054FF82214DF268
:10463000153000F04FFF01214DF2163000F04AFF17
:10464000CA214DF2173000F045FF02214DF218301B
:1046500000F040FF00214DF2193000F03BFF022135
:104660004DF21A3000F036FF01214DF21B3000F000
:1046700031FF02214DF21C3000F02CFF34214DF2AD
:104680001D3000F027FF02214DF21E3000F022FF06
:1046900067214DF21F3000F01DFF02214DF2203046
:1046A00000F018FF84214DF2213000F013FF0221A9
:1046B0004DF2223000F00EFFA4214DF2233000F025
:1046C00009FF02214DF2243000F004FFB7214DF222
:1046D000253000F0FFFE02214DF2263000F0FAFEF8
:1046E000CF214DF2273000F0F5FE02214DF22830A7
:1046F00000F0F0FEDE214DF2293000F0EBFE022149
:104700004DF22A3000F0E6FEF2214DF22B3000F09F
:10471000E1FE02214DF22C3000F0DCFEFE214DF2D4
:104720002D3000F0D7FE03214DF22E3000F0D2FEE6
:1047300010214DF22F3000F0CDFE03214DF230302C
:1047400000F0C8FE33214DF2313000F0C3FE0321EA
:104750004DF2323000F0BEFE6D214DF2333000F0EC
:10476000B9FE00214FF4544000F0B4FE33214DF265
:10477000014000F0AFFE00E07CE300214DF202407A
:1047800000F0A8FE34214DF2034000F0A3FE00210A
:104790004DF2044000F09EFE3A214DF2054000F03B
:1047A00099FE00214DF2064000F094FE4A214DF2A0
:1047B000074000F08FFE00214DF2084000F08AFE15
:1047C0005C214DF2094000F085FE00214DF20A40C7
:1047D00000F080FE81214DF20B4000F07BFE0021B5
:1047E0004DF20C4000F076FEA6214DF20D4000F097
:1047F00071FE00214DF20E4000F06CFEE5214DF2FD
:104800000F4000F067FE01214DF2104000F062FE03
:1048100013214DF2114000F05DFE01214DF21240D6
:1048200000F058FE54214DF2134000F053FE0121D8
:104830004DF2144000F04EFE82214DF2154000F082
:1048400049FE01214DF2164000F044FECA214DF20E
:10485000174000F03FFE02214DF2184000F03AFEF2
:1048600000214DF2194000F035FE02214DF21A40B0
:1048700000F030FE01214DF21B4000E0FDE200F0AF
:1048800029FE02214DF21C4000F024FE34214DF29D
:104890001D4000F01FFE02214DF21E4000F01AFEE6
:1048A00067214DF21F4000F015FE02214DF220401D
:1048B00000F010FE84214DF2214000F00BFE022199
:1048C0004DF2224000F006FEA4214DF2234000F0FC
:1048D00001FE02214DF2244000F0FCFDB7214DF213
:1048E000254000F0F7FD02214DF2264000F0F2FDD8
:1048F000CF214DF2274000F0EDFD02214DF228407E
:1049000000F0E8FDDE214DF2294000F0E3FD022138
:104910004DF22A4000F0DEFDF2214DF22B4000F076
:10492000D9FD02214DF22C4000F0D4FDFE214DF2C4
:104930002D4000F0CFFD03214DF22E4000F0CAFDC6
:1049400010214DF22F4000F0C5FD03214DF2304003
:1049500000F0C0FD33214DF2314000F0BBFD0321DA
:104960004DF2324000F0B6FD6D214DF2334000F0C3
:10497000B1FD00214FF4554000F0ACFD33214DF264
:10498000015000F0A7FD00214DF2025000F0A2FD01
:1049900034214DF2035000F09DFD00214DF20450F2
:1049A00000F098FD3A214DF2055000F093FD0021F2
:1049B0004DF2065000F08EFD4A214DF2075000F0F6
:1049C00089FD00214DF2085000F084FD5C214DF27C
:1049D000095000F07FFD00214DF20A5000F07AFDF1
:1049E00081214DF20B5000F075FD00214DF20C506D
:1049F00000F070FDA6214DF20D5000F06BFD00217E
:104A00004DF20E5000F066FDE5214DF20F5000F022
:104A100061FD01214DF2105000F05CFD13214DF2BB
:104A2000115000F057FD01214DF2125000F052FDDF
:104A300054214DF2135000F04DFD01214DF2145060
:104A400000F048FD82214DF2155000F043FD012198
:104A50004DF2165000F03EFDCA214DF2175000F005
:104A600039FD02214DF2185000F034FD00214DF2C5
:104A7000195000F02FFD02214DF21A5000F02AFDCE
:104A800001214DF21B5000F025FD02214DF21C507A
:104A900000F020FD34214DF21D5000F01BFD0221DD
:104AA0004DF21E5000F016FD67214DF21F5000F030
:104AB00011FD02214DF2205000F00CFD84214DF239
:104AC000215000F007FD02214DF2225000F002FDBE
:104AD000A4214DF2235000F0FDFC02214DF22450A0
:104AE00000F0F8FCB7214DF2255000F0F3FC022154
:104AF0004DF2265000F0EEFCCF214DF2275000F091
:104B0000E9FC02214DF2285000F0E4FCDE214DF2D8
:104B1000295000F0DFFC02214DF22A5000F0DAFCAF
:104B2000F2214DF22B5000F0D5FC02214DF22C5019
:104B300000F0D0FCFE214DF22D5000F0CBFC032103
:104B40004DF22E5000F0C6FC10214DF22F5000F017
:104B5000C1FC03214DF2305000F0BCFC33214DF27A
:104B6000315000F0B7FC03214DF2325000F0B2FC9E
:104B70006D214DF2335000F0ADFC00214FF4564052
:104B800000F0A8FC33214DF2016000F0A3FC0021ED
:104B90004DF2026000F09EFC34214DF2036000F003
:104BA00099FC00214DF2046000F094FC3A214DF292
:104BB000056000F08FFC00214DF2066000F08AFCD9
:104BC0004A214DF2076000F085FC00214DF208609B
:104BD00000F080FC5C214DF2096000F07BFC0021BC
:104BE0004DF20A6000F076FC81214DF20B6000F07E
:104BF00071FC00214DF20C6000F06CFCA6214DF21E
:104C00000D6000F067FC00214DF20E6000F062FCC8
:104C1000E5214DF20F6000F05DFC01214DF21060C6
:104C200000F058FC13214DF2116000F053FC0121FB
:104C30004DF2126000F04EFC54214DF2136000F072
:104C400049FC01214DF2146000F044FC82214DF238
:104C5000156000F03FFC01214DF2166000F03AFCB7
:104C6000CA214DF2176000F035FC02214DF21860A8
:104C700000F030FC00214DF2196000F02BFC022105
:104C80004DF21A6000F026FC01214DF21B6000F08D
:104C900021FC02214DF21C6000F01CFC34214DF27D
:104CA0001D6000F017FC02214DF21E6000F012FCA6
:104CB00067214DF21F6000F00DFC02214DF22060D3
:104CC00000F008FC84214DF2216000F003FC022179
:104CD0004DF2226000F0FEFBA4214DF2236000F0B3
:104CE000F9FB02214DF2246000F0F4FBB7214DF2F4
:104CF000256000F0EFFB02214DF2266000F0EAFB98
:104D0000CF214DF2276000F0E5FB02214DF2286033
:104D100000F0E0FBDE214DF2296000F0DBFB022118
:104D20004DF22A6000F0D6FBF2214DF22B6000F02C
:104D3000D1FB02214DF22C6000F0CCFBFE214DF2A4
:104D40002D6000F0C7FB03214DF22E6000F0C2FB86
:104D500010214DF22F6000F0BDFB03214DF23060B9
:104D600000F0B8FB33214DF2316000F0B3FB0321BA
:104D70004DF2326000F0AEFB6D214DF2336000F079
:104D8000A9FB5521504600F0A5FBAA21184600F0CA
:104D9000A1FB5221204600F09DFB0821304600F087
:104DA00099FB0021384600F095FBCC21484600F0E5
:104DB00091FB0021584600F08DFB0521404600F094
:104DC00089FB70214FF4374000F084FB70214BF2D7
:104DD000017000F07FFB01214FF4384000F07AFBB6
:104DE00003214BF6010000F075FB03214BF6020096
:104DF00000F070FB03214BF6030000F06BFB022177
:104E00004FF43C4000F066FB00214BF6014000F0FF
:104E100061FB00214BF6024000F05CFBD0214FF417
:104E2000494000F057FB02214CF6011000F052FB04
:104E300050214CF6021000F04DFB50214CF60310AF
:104E400000F048FB50214CF6041000F043FB002119
:104E50004FF4545000F03EFB55214FF4685000F0E1
:104E600039FB4FF4885000F01FFB782005F08CF8D8
:104E70004FF4245000F018FBB9E04845FCD1E22083
:104E800000F012FB1D2000F003FB022000F000FBED
:104E9000042000F0FDFA642005F076F8E02000F030
:104EA00003FB012000F0F4FA0A2005F05FF8E0208F
:104EB00000F0FAFA032000F0EBFA0C2005F056F8A7
:104EC000012000F0F1FA0A2005F050F8E62000F089
:104ED000EBFA2F2000F0DCFAFF2000F0D9FAFF20D7
:104EE00000F0D6FAB02000F0DFFA202000F0D0FA6F
:104EF000002000F0CDFA032000F0CAFA40F21F3083
:104F000000F0C6FA012000F0C3FA40F2DF1000F012
:104F1000BFFA002000F0BCFAB42000F0C5FA04206B
:104F200000F0B6FA40F21F4000F0B2FA002000F0A4
:104F3000AFFA2E2000F0ACFA002000F0A9FA002011
:104F400000F0A6FA002000F0A3FA002000F0A0FA7A
:104F5000B62000F0A9FA022000F09AFA4FF403708C
:104F600000F096FA002000F093FA172000F090FA73
:104F7000152000F08DFA002000F08AFA002000F0E1
:104F800087FAF02000F090FA032000F081FA29203F
:104F900000F08AFAD02000F087FA002000F078FABA
:104FA000BE2000F081FA052000F072FAFE2000F029
:104FB0006FFA012000F06CFA002000F069FA00207E
:104FC00000F066FA002000F063FAB82000F06CFAF6
:104FD000032000F05DFA012000F05AFABA2000F038
:104FE00063FA012000F054FA642000F021F8002058
:104FF000FDF7ECFB04490120C1F880012846FDF7CC
:105000009FFB15B0BDE8F08F0080214202460120D1
:1050100000E05043491EC9B2FBD27047034808B5AF
:105020000088ADF80000BDF8000008BD0008006C65
:1050300010B50246BE2000F037FA052000F028FA2D
:10504000104623F05EFF4FF066320B4B23F0A8FFB3
:1050500023F02AFF80B200F01BFA012000F018FABA
:10506000FF2000F015FA002000F012FABDE8104011
:10507000002000F00DBA00006666044070B55E4C7A
:1050800000232146A279898841F66316012A01D0BE
:105090001AB10CE0B14202D109E0B14207D10828AF
:1050A00005D2DFE800F0161812140C19100E0828AB
:1050B00012D2DFE800F0110406080A0C0E1080235B
:1050C0000AE0402308E0C02306E0202304E0602338
:1050D00002E0A02300E0E02345F21055A94202D1EE
:1050E0004FF4585000E03620A1F51342413A03D066
:1050F000A1F5EE42893A01D143F00803194600F0C8
:10510000E9F9A188B1420AD098062088628802D5C0
:10511000904202D303E0904201D9228060806089EE
:10512000A94240D100F0C0F9002000F0B1F9608937
:10513000401C80B200F0B8F9002000F0A9F96089A5
:10514000801C80B200F0B0F92088401EC0F30F2010
:1051500000F09EF96089C01C80B200F0A5F92078AB
:10516000401EC0B200F094F9A08900F09DF9002023
:1051700000F08EF9A089401C80B200F095F9002063
:1051800000F086F9A089801C80B200F08DF960885B
:10519000401EC0F30F2000F07BF9A089C01C80B234
:1051A00000F082F921E000F07FF9002000F070F9B2
:1051B000002000F06DF92088401EC0F30F2000F0A1
:1051C00067F92078401EC0B200F062F9A08900F0B3
:1051D0006BF9002000F05CF9002000F059F96088BC
:1051E000401EC0F30F2000F053F9A078BDE87040D6
:1051F000401EC0B200F04CB9AC030020F0B53B4AF1
:105200000D460446060A918810462F0A4089A1F5EA
:10521000C853633B16D0A1F5AA43103B4CD000F015
:1052200043F9304600F034F9E0B200F031F99089EA
:1052300000F03AF9384600F02BF9E8B2BDE8F0404A
:1052400000F026B9917931B300F02EF9304600F024
:105250001FF9E0B200F01CF91088401EC0F30F20C7
:1052600000F016F91078401E5FFA80F000F010F997
:10527000908900F019F9384600F00AF9E8B200F018
:1052800007F95088401EC0F30F2000F001F9907814
:10529000401EC0B2D2E71188091B491E8CB200F033
:1052A00003F9002000F0F4F8002000F0F1F8200AE3
:1052B00000F0EEF8E0B2D9E700F0F6F8304600F082
:1052C000E7F85089401C80B200F0EEF8E0B200F040
:1052D000DFF8908900F0E8F8384600F0D9F89089B6
:1052E000401C80B200F0E0F8A7E70000AC0300200B
:1052F0002DE9FF4F1D460C468A46580700D0012075
:1053000000EBD50069084843203A00F0FF09D0B20D
:105310000026DFF89CB0029046E00C2D12D0102D34
:1053200015D0182D42D10298224900EBC00000BFD1
:1053300001EB80004FF00008875D38060CD51E4851
:1053400000880DE002981D4900EB4000F0E71C4981
:10535000029801EB0010EDE70D9830B916488088EF
:10536000214682B20098FDF741FB7806070E641CC7
:10537000BBF80200A4B2A04218D9A4EB0A00A842CC
:1053800009D100985446401C80B20090BBF8001030
:1053900081420BD906E008F1010000F0FF08B8F1E6
:1053A000080FCAD3761CF6B24E45B6D3BDE8FF8FC0
:1053B000AC0300201AA702081C000020B69C0208BB
:1053C0002AA102082DE9FF4F81B00026DDF838A0A0
:1053D0001D46934681463446B0464FEA5A0727E0B9
:1053E000281B401EC1B20A20FFF710FEBBFBF0F0E5
:1053F0000A21B0FBF1F201FB120026B9691E8C42B2
:1054000001DA48B101263030C2B207FB049080B205
:105410005346CDF8008006E007FB049080B2534667
:105420002022CDF800800299FFF762FF641CE4B2ED
:10543000AC42D5D305B0BDE8F08F2DE9F84F044656
:1054400000F0FF0910190D46DDE90AB61FFA80F8D1
:10545000581987B24FF0000A12E0444503D305EB18
:105460000B004C4685B2BD420FD25B462946204612
:10547000CDF800A0FFF73CFF04EB5B0084B2761C84
:105480003278A2F120005E28E7D9BDE8F88F00004D
:1054900001B5BDF80000ADF80000BDF800000149FD
:1054A000088008BD0008006C01B5BDF80000ADF82B
:1054B0000000BDF800000149088008BDFE07006C2F
:1054C000024803490089088070470000AC030020AF
:1054D000FE07006C024A1080901C0180704700009B
:1054E000FE07006C30B5184885B0816941F00801AD
:1054F0008161816901F008010491816941F04001F5
:1055000081618069202400F0400004900120CDE9F1
:105510000040029003200D4D039069462846FCF799
:10552000A5F800940A4C69462046FCF79FF8012232
:1055300020212846FCF796F9012220212046FCF77D
:1055400091F905B030BD000000100240000C014090
:1055500000180140FEE7704770B586B0224800246D
:105560008DF80040816941F08001816180690125E9
:1055700000F0800005904FF40060CDE901050320A4
:10558000CDE90350194E01A93046FCF76FF8A80287
:10559000CDE9010401A93046FCF768F8FBF738FAB9
:1055A000134EC6F8AC41642006F5D67604F0DEFC56
:1055B0003560642004F0DAFC012000F007F90122D4
:1055C00069464FF4506000F01BF89DF8001009A0E8
:1055D000FAF7BEFE9DF80000802802D0012006B038
:1055E00070BD0020FBE7000000100240001C0140DD
:1055F000008023424354502049443A25780D0A0044
:105600002DE9F04115460E460446FBF7CDFAB220CF
:10561000FBF796FAFBF710FB200AFBF791FAFBF772
:105620000BFBE0B2FBF78CFAFBF706FBFBF7BCFACF
:10563000B320FBF785FAFBF7FFFA00246F1E09E0A1
:10564000BC4201D0012000E00020FBF73DFA3055BC
:10565000641CE4B2AC42F3D3BDE8F041FBF7CABA34
:105660002DE9F14F514E00244FF00A09307882B0F5
:10567000401CC0B2B0FBF9F209FB1201DFF8308127
:105680002746307009B10A2873D2012202A90020EE
:10569000FFF7B6FF9DF80800C1066ED000F01F00AE
:1056A00040F0C000DFF80CB1454688F82000012723
:1056B00095F8200007FA04F108424DD03E48042234
:1056C000694630F81400FFF79BFF95F830009DF80D
:1056D0000210C0079DF8030000EB012020D023F04A
:1056E00010FC5A46354B23F05BFC23F0DDFB05EB49
:1056F000440AAAF816009DF801009DF8001000EB7E
:10570000012023F0FEFB2E4A2E4B23F049FC002201
:105710002D4B23F079FD23F0C7FBAAF80C001BE00A
:1057200023F0EFFB5A46254B23F03AFC23F0BCFB59
:1057300005EB440AAAF80C009DF801009DF8001042
:1057400000EB012023F0DDFB1D4A1E4B23F028FC5B
:1057500023F0AAFBAAF81600641CE4B2052CA7D318
:105760000127A989002019B9E98A09B98DF808002B
:1057700030709DF80800C00610D198F8200001068E
:1057800002D520F0800007E04FF6FF71A8F80C105A
:10579000A8F8161000F0E00088F820003078F02813
:1057A00001D986F800903846BDE8FE8F2C00002015
:1057B000340000207B14AE474CB50208E17AD43F98
:1057C000D881734694F6D23F0000894008B5002185
:1057D0008DF8001010B180208DF80000012269467C
:1057E0004FF4506000F001F808BD2DE9F041164675
:1057F0000F4604460025FBF7D7F9B220FBF7A0F9C6
:10580000FBF71AFA200AFBF79BF9FBF715FAE0B24F
:10581000FBF796F9FBF710FA002408E0385DFBF778
:105820008FF9FBF709FA050003D1641CE4B2B44216
:10583000F4D3FBF7DFF92846BDE8F08170477047E5
:1058400030B58FB00121009102250904002407958D
:10585000CDE90114CDE908106846FCF775F900B1EF
:10586000FEE70F20CDE90A054FF48060CDE90C403A
:1058700002210AA80E94FCF77BF8002800D0FEE76E
:105880000FB030BDFBF7FABF0D48016841F00101D0
:10589000016041680B4A1140416001680A4A1140A9
:1058A0000160016821F480210160416821F4FE015A
:1058B00041604FF41F0181600449C00308607047D4
:1058C000001002400000FFF8FFFFF6FE08ED00E0C8
:1058D0000148FCF7ADBB0000BC030020094A10B52D
:1058E000074BC2E900310021C2E9021010461161E4
:1058F000FCF752FBBDE810400248FCF787BB0000F4
:1059000000040040BC030020F0B502681C4B1D4D94
:105910001D4E1E4F1E4C4FF0804C984209D0A042A5
:1059200007D0604505D0A84203D0B04201D0B842AC
:1059300004D122F0700E4A6842EA0E02984209D061
:10594000A04207D0604505D0A84203D0B04201D0A4
:10595000B84203D122F44075CA682A434D6922F047
:1059600080022A4302608A68C2620A6882629842A0
:1059700001D0A04201D10969016301214161F0BD5B
:10598000002C01400004004000080040000C0040D2
:10599000003401402DE9FF4F83B00E46DDE910A928
:1059A0004E4907464FF47840DDF8508008604CA01F
:1059B0001024CDE900404B4D9346A0216B882A88E6
:1059C0002820FFF73AFD48A0CDE900406B882A88DF
:1059D000A0217820FFF731FD44A0CDE900406B887D
:1059E0002A88B4212820FFF728FD41A0CDE90040F6
:1059F0006B882A88B4217820FFF71FFD3DA0CDE9F0
:105A000000406B882A88C8212820FFF716FD3AA09D
:105A1000CDE900406B882A88C8217820FFF70DFD6A
:105A200036A0CDE900406B882A88DC212820FFF7CA
:105A300004FD33A0CDE900406B882A88DC21782062
:105A4000FFF7FBFC2FA0CDE900406B882A88F021EE
:105A50002820FFF7F2FC04233A46A02140200094BE
:105A6000FFF7B0FC04233246A02190200094FFF7FA
:105A7000A9FC04235A46B42140200094FFF7A2FC5D
:105A800004230094B4219020069AFFF79BFC042382
:105A90005246C82140200094FFF794FC04234A4654
:105AA000C82190200094FFF78DFC04230094DC2192
:105AB0004020129AFFF786FC04230094DC219020FA
:105AC000139AFFF77FFC03234246F02160200094E5
:105AD000FFF778FC07B0BDE8F08F00001C00002045
